:100000000C9476000C9495000C9495000C94EB00E5
:100010000C9495000C9495000C9495000C9495000C
:100020000C9495000C9495000C9495000C949500FC
:100030000C9495000C9495000C9495000C949500EC
:100040000C9495000C94340C0C9495000C94950031
:100050000C9495000C9495000C9495000C949500CC
:100060000C9495000C9495000C9495000C94EE055E
:100070000C9495000C9495000C9495000C949B00A6
:100080000C9495000C94C3000C9495000C9495006E
:100090000C9495000C9495000C9495000C9495008C
:1000A0000C9495000C9495000C9495000C9495007C
:1000B0000C9495000C9495000C9495000C9495006C
:1000C0000C9495000C9495000C9495000C9495005C
:1000D0000C9495000C9495000C9495000C9495004C
:1000E0000C9495000C9495000C94950011241FBE5F
:1000F000CFEFCDBFDFE7DEBF13E4A0E0B0E4E4E77D
:10010000F4E400E00BBF02C007900D92AE31B107DE
:10011000D9F724E4AEE1B3E401C01D92A03CB207DC
:10012000E1F70E94AC020C9438220C9400000E946B
:10013000DA080C94D3031F920F920FB60F9211247A
:100140000BB60F922F933F934F935F936F937F93D1
:100150008F939F93AF93BF93EF93FF930E94850379
:10016000FF91EF91BF91AF919F918F917F916F918F
:100170005F914F913F912F910F900BBE0F900FBE4B
:100180000F901F9018951F920F920FB60F92112487
:100190000BB60F922F933F934F935F936F937F9381
:1001A0008F939F93AF93BF93EF93FF930E9484032A
:1001B000FF91EF91BF91AF919F918F917F916F913F
:1001C0005F914F913F912F910F900BBE0F900FBEFB
:1001D0000F901F9018951F920F920FB60F92112437
:1001E0000BB60F922F933F934F935F936F937F9331
:1001F0008F939F93AF93BF93EF93FF930E94B905A3
:100200000E94740382E080934301FF91EF91BF91BC
:10021000AF919F918F917F916F915F914F913F919E
:100220002F910F900BBE0F900FBE0F901F9018953F
:10023000CF93DF93CDB7DEB76297CDBFDEBF82E14C
:10024000EEE5F1E4DE01119601900D928A95E1F759
:1002500042E150E0BE016F5F7F4F80E690E00E9478
:10026000890C8FE59AEE0197F1F700C000006296C5
:10027000CDBFDEBFDF91CF9108951F93CF93DF9362
:10028000CDB7DEB76297CDBFDEBF882309F446C085
:10029000182F82E1EEE5F1E4DE01119601900D9256
:1002A0008A95E1F742E150E0BE016F5F7F4F80E643
:1002B00090E00E94890C8FE59AEE0197F1F700C05B
:1002C00000009FE72FE482E1915020408040E1F759
:1002D00000C0000082E1E0E7F1E4DE011196019048
:1002E0000D928A95E1F742E150E0BE016F5F7F4FCA
:1002F00080E690E00E94890C8FE59AEE0197F1F775
:1003000000C000009FE72FE482E191502040804030
:10031000E1F700C00000115009F0BBCF6296CDBFDD
:10032000DEBFDF91CF911F91089550E090E00E94D1
:10033000890C8FE59AEE0197F1F700C0000008954F
:1003400081E3EFE1F3E4DF011D928A95E9F7209163
:1003500051432223D1F0A2E5B3E4215030E0220F33
:10036000331F2C5A3C4B91E0EC9111968C911197D4
:1003700047E0E49FF0011124E15EFC4BE80FF11D22
:1003800090831296A217B30779F7E091BC4380914E
:10039000BD43B7E0EB02F0011124E15EFC4BE80F36
:1003A000F11D87FDFA9581E0808380911E43909135
:1003B0001F4390FB80F99091264390FB81F9909127
:1003C0002D4390FB82F99091344390FB83F99091F7
:1003D0003B4390FB84F99091424390FB85F99091C7
:1003E000494390FB86F9809305409091204390FB10
:1003F00080F99091274390FB81F990912E4390FBD7
:1004000082F99091354390FB83F990913C4390FBA6
:1004100084F99091434390FB85F990914A4390FB76
:1004200086F9809307409091214390FB80F9909149
:10043000284390FB81F990912F4390FB82F9909192
:10044000364390FB83F990913D4390FB84F9909162
:10045000444390FB85F990914B4390FB86F9809340
:1004600009409091224390FB80F99091294390FBA1
:1004700081F99091304390FB82F99091374390FB42
:1004800083F990913E4390FB84F99091454390FB12
:1004900085F990914C4390FB86F980930B409091A5
:1004A000234390FB80F990912A4390FB81F990912E
:1004B000314390FB82F99091384390FB83F99091FE
:1004C0003F4390FB84F99091464390FB85F99091CE
:1004D0004D4390FB86F980930D409091244390FB0F
:1004E00080F990912B4390FB81F99091324390FBDE
:1004F00082F99091394390FB83F99091404390FBAE
:1005000084F99091474390FB85F990914E4390FB7D
:1005100086F980930F409091254390FB80F990914C
:100520002C4390FB81F99091334390FB82F9909199
:100530003A4390FB83F99091414390FB84F9909169
:10054000484390FB85F990914F4390FB86F9809347
:100550001E438093114008950E94970085E00E94F9
:100560003D010E94160611E0D2E0C3E004C0809174
:100570002E4481FD76C00E94D504E0911640F09192
:1005800017408181807F803109F47BC0803209F47B
:100590007EC0803309F481C0803409F48FC080911B
:1005A0002D4485FF0BC080915043813011F0109293
:1005B000504380912D448F7D80932D4480912D4414
:1005C00086FF0AC08091504381111093504380915F
:1005D0002D448F7B80932D4480912D4483FF0BC04D
:1005E00080915043833011F0D093504380912D443B
:1005F000877F80932D4480912D4484FF0BC0809190
:100600005043823011F0C093504380912D448F7E2F
:1006100080932D440E94E21280912E4482FD0CC0F2
:1006200080912D4480FF04C080912D4481FF4CC0F7
:1006300080912D4481FD37C080912E4480FF97CF5B
:1006400080912E448E7F80932E440E9418018895BD
:1006500080912E44846080932E4480912E4481FFAB
:100660008ACF82E00E943D010E94160680912E44AE
:100670008D7F80932E4480912E448B7F80932E44D7
:100680007ACF80912D44806180932D4488CF8091D2
:100690002D44886080932D4482CF80912D448062C8
:1006A00080932D447CCF82E00E943D010E9416067B
:1006B00080912D448D7F80932D44BECF80912D4419
:1006C000806480932D446BCF0E94AA060E94A001F3
:1006D00042E164E070E480E60E94950180912D443F
:1006E0008E7F80932D44A4CF80912C4491E0980F6D
:1006F00090932C44893138F080912D44816080930F
:100700002D4410922C4408950895089581E080931B
:10071000BA4308958091B4439091B543449709F446
:1007200041C010922D02109211028091410181115D
:10073000FCCF80E880934001809151018111FCCF72
:100740001092500184E190E08093B4439093B543BC
:100750008091410182FDFCCF84E190E080934A01C9
:1007600090934B018091420182608093420180917D
:10077000410181FDFCCF1092480110924901809106
:1007800041018111FCCF81E88093400181E0809399
:10079000BB431092B6431092B74380912E448260BF
:1007A00080932E4408950F931F93CF93809141011E
:1007B00082FDFCCF84E190E080934A0190934B014D
:1007C000809142018260809342018091410181FDCC
:1007D000FCCF109248011092490180917504877FE7
:1007E0008093750480917504887F8460809375047C
:1007F00080917004877F8093700480917004887F5B
:1008000084608093700480911604877F809316041F
:1008100080911604887F846080931604809171040F
:10082000877F8093710480917104887F84608093B6
:10083000710480917604877F80937604809176049A
:10084000887F84608093760480911504877F8093ED
:10085000150480911504887F84608093150480912D
:100860007704877F8093770480917704887F846002
:100870008093770480911404877F8093140480917F
:100880001404887F84608093140480919204877F8D
:100890008093920480919204887F84608093920474
:1008A00080919304877F8093930480919304887F41
:1008B0008460809393048091B404877F8093B40410
:1008C0008091B404887F84608093B4048091B504DF
:1008D000877F8093B5048091B504887F846080937E
:1008E000B50410922D0210921102809141018111E4
:1008F000FCCF80E880934001809151018111FCCFB1
:100900001092500184E190E08093B4439093B543FA
:100910008091410182FDFCCF84E190E080934A0107
:1009200090934B01809142018260809342018091BB
:10093000410181FDFCCF1092480110924901C09104
:100940004101C111FCCF81E88093400188E790E428
:100950000E94441E8DE694E40E94FB1E00E010E01D
:10096000B80188E790E40E94751FB80188E790E419
:100970000E94941F0F5F1F4F0930110589F700E493
:1009800014E4A8016C2F85E490E40E94570DCF5F1A
:100990000B5F1F4FC930A9F784E390E40E94501AFF
:1009A000CF911F910F910C94E712CF938091BB438D
:1009B000813009F45FC0C091BA43C13011F0CF91CA
:1009C00008951092BA430E94EB1B882309F4B0C02B
:1009D000C093B843E0914540F0914640808187FD47
:1009E000C4C081E08093B94380913A4480FF4DC0F8
:1009F0001092B6431092B7438091B4439091B5439F
:100A00004497E9F20E945D2010922D02109211028B
:100A1000809141018111FCCF80E880934001809159
:100A200051018111FCCF1092500184E190E080933C
:100A3000B4439093B5438091410182FDFCCF84E1A2
:100A400090E080934A0190934B0180914201826033
:100A5000809342018091410181FDFCCF10924801B9
:100A600010924901809141018111FCCF81E880936E
:100A70004001A5CF66E873E088E790E40E94051F77
:100A8000811199CF1092BB4396CF8091B64390913C
:100A9000B74380329E4408F4AFCF6AE873E082E740
:100AA00090E40E94D51F90912E44916090932E4423
:100AB0002091B4433091B5432838334109F47FCFB6
:100AC00081117DCF8BE08093110282E080932D0213
:100AD000809141018111FCCF80E880934001809199
:100AE00051018111FCCF85E18093500188E893E1A9
:100AF0008093B4439093B5438091410182FDFCCF34
:100B000088E893E180934A0190934B0180914201E0
:100B10008260809342018091410181FDFCCF10925F
:100B2000480110924901809141018111FCCF9ECF73
:100B300085E490E40E94760D882319F082E080938A
:100B4000B84384E390E40E94C717882319F083E038
:100B50008093B84386E190E40E940A13882309F445
:100B600039CF84E08093B84335CF81E08093BB4395
:100B700026CF81E08093BB438091B4439091B543ED
:100B80000E944C0D2091B4433091B543ADECBCECC8
:100B90000E94282196958795969587959695879595
:100BA0000E94FD122091B4433091B5438091B64329
:100BB0009091B743A901409550958417950738F057
:100BC0008FEF9FEF8093B6439093B7430895820FC2
:100BD000931F8093B6439093B74308951F920F924B
:100BE0000FB60F9211240BB60F922F933F934F9392
:100BF0005F936F937F938F939F93AF93BF93EF9385
:100C0000FF930E94B220FF91EF91BF91AF919F910E
:100C10008F917F916F915F914F913F912F910F90A5
:100C20000BBE0F900FBE0F901F9018958F929F9242
:100C3000AF92BF92CF92DF92EF92FF92CF93DF936A
:100C400084E6E2E8F1E4A0E5B3E401900D928A9530
:100C5000E1F782E0809350438093514383E0809397
:100C60005243809353438093544384E0809355438D
:100C700080912D448B7F80932D44C0912C440E9401
:100C8000D9219B01AC01AC2FB0E00E9437210E941A
:100C9000272297E0C92ED12CE12CF12C80912D44F4
:100CA00082FD46C00E94D9210E94D9216F5F7F4FEB
:100CB0008F4F9F4FA70196010E940921EB010E94CF
:100CC000D9210E94D9216F5F7F4F8F4F9F4FA7017E
:100CD00096010E9409214B015C01C093BC436093C3
:100CE000BD4380912D44846080932D4420915143D5
:100CF0002223A1F2AE01E2E5F3E4215030E0220F1D
:100D0000331F2C5A3C4B04C032962E173F0731F24A
:100D1000808190E084179507B9F7818190E088156C
:100D2000990591F780912D448B7F80932D44ECCFD2
:100D30000E94A00142E164E070E480E6DF91CF917F
:100D4000FF90EF90DF90CF90BF90AF909F908F90EB
:100D50000C9495018F929F92AF92BF92CF92DF92A7
:100D6000EF92FF92CF93DF9380915043813009F44B
:100D70008CC008F484C0833009F444C0709152439D
:100D8000C0915343C15077FD44C077300CF070E000
:100D9000C7FD42C0C7300CF0C0E0609151436623EC
:100DA00009F457C0472F072E000C550BE2E5F3E47A
:100DB0002FEF260F30E0220F331F2C5A3C4BAC2F65
:100DC0000C2E000CBB0B04C032962E173F0731F1DE
:100DD000808190E084179507B9F7818190E0A8178A
:100DE000B90791F780912D44826080932D44DF9163
:100DF000CF91FF90EF90DF90CF90BF90AF909F90FA
:100E00008F90089570915243C0915343CF5F77FF05
:100E1000BCCF76E0C7FFBECFC6E0BFCF6F3210F7C2
:100E2000262F822F90E0DC01AA0FBB1FA05BBC4BDA
:100E30003C91FC01EE0FFF1FEE5AFC4B3083880FF4
:100E4000991FFC01E25BFC4B838113968C9321502C
:100E500041F770935243C09353438091BC4378173A
:100E6000D1F070E0FB01EE0FFF1FEE5AFC4B108239
:100E7000660F771FFB01E05BFC4B1382B8CF7091CC
:100E800052437F5FC09153437ECF70915243715064
:100E9000C091534378CF8091BD43C813E2CF6F5FB9
:100EA0006093514380912D448B7F80932D44C0915A
:100EB0002C440E94D9219B01AC01AC2FB0E00E94D0
:100EC00037210E94272277E0C72ED12CE12CF12C6C
:100ED00080912D4482FD8BCF0E94D9210E94D9217F
:100EE0006F5F7F4F8F4F9F4FA70196010E9409218F
:100EF000EB010E94D9210E94D9216F5F7F4F8F4F54
:100F00009F4FA70196010E9409214B015C01C093EC
:100F1000BC436093BD4380912D44846080932D44F5
:100F2000209151432223A1F2AE01E2E5F3E42150E6
:100F300030E0220F331F2C5A3C4B04C03296E2178C
:100F4000F30731F2808190E084179507B9F781812A
:100F500090E08815990591F780912D448B7F8093BF
:100F60002D44ECCF1092890080E0089544E268EDB2
:100F700088E690E00E94BF0C80E00895789480E0BD
:100F80000895E0E1F4E0808188608083E1E1F4E0AD
:100F9000808188608083E2E1F4E0808188608083E2
:100FA000E3E1F4E0808188608083E4E1F4E0808123
:100FB00088608083E5E1F4E0808188608083E6E1F9
:100FC000F4E0808188608083E7E1F4E080818860DC
:100FD0008083E0E3F4E0808188608083E1E3F4E0F3
:100FE000808188608083E2E3F4E080818860808390
:100FF000E3E3F4E0808188608083E4E3F4E08081CF
:1010000088608083E5E3F4E0808188608083E6E3A4
:10101000F4E0808188608083E7E3F4E08081886089
:101020008083E0E5F4E0808188608083E1E5F4E09E
:10103000808188608083E2E5F4E08081886080833D
:10104000E3E5F4E0808188608083E4E5F4E080817A
:1010500088608083E5E5F4E0808188608083E6E550
:10106000F4E0808188608083E7E5F4E08081886037
:101070008083E0E7F4E0808188608083E1E7F4E04A
:10108000808188608083E2E7F4E0808188608083EB
:10109000E3E7F4E0808188608083E4E7F4E0808126
:1010A00088608083E5E7F4E0808188608083E6E7FC
:1010B000F4E0808188608083E7E7F4E080818860E5
:1010C0008083E0E9F4E0808188608083E1E9F4E0F6
:1010D000808188608083E2E9F4E080818860808399
:1010E000E3E9F4E0808188608083E4E9F4E08081D2
:1010F00088608083E5E9F4E0808188608083E6E9A8
:10110000F4E0808188608083E7E9F4E08081886092
:101110008083E0EBF4E0808188608083E1EBF4E0A1
:10112000808188608083E2EBF4E080818860808346
:10113000E3EBF4E0808188608083E4EBF4E080817D
:1011400088608083E5EBF4E0808188608083E6EB53
:10115000F4E0808188608083E7EBF4E08081886040
:101160008083E0EDF4E0808188608083E1EDF4E04D
:10117000808188608083E2EDF4E0808188608083F4
:10118000E3EDF4E0808188608083E4EDF4E0808129
:1011900088608083E5EDF4E0808188608083E6EDFF
:1011A000F4E0808188608083E7EDF4E080818860EE
:1011B000808308950E94C1070E94B6074198E1E527
:1011C000F4E08081877F8083409A48980E94D80C01
:1011D0000E94D30C0E94BE07439A4B98E3E5F4E0CB
:1011E0008081877F808380818F7780838081887FE3
:1011F0008083A0EEB5E015968C91159782601596C8
:101200008C931597429A4A98E2E5F4E08081877FB3
:10121000808380818F7780838081887F808315960B
:101220008C911597826015968C930E945F0B0E949B
:10123000B2070C94C40CE0E0F9E0848188608483F8
:10124000858181608583EEEBF3E480818E7F8083EE
:1012500013868EE00895EEEBF3E480818E7F808329
:10126000138680E00895E0E0F9E084818360848360
:10127000EEEBF3E480818E7F8083138680E0089517
:10128000EEEBF3E48081886080838181880F816048
:101290008093070984E00895EEEBF3E48081886091
:1012A00080838181880F8093070983E00895E0E0BF
:1012B000F9E084818B7F848384E00895E0E0F9E0A5
:1012C00084818B7F848383E00895E0E0F9E084816A
:1012D00084608483848183608483EEEBF3E4808183
:1012E0008E7F8083138680E00895E0E0F9E08481BA
:1012F0008460848388E00895E0E0F9E08481886078
:101300008483858181608583EEEBF3E480818E7F29
:10131000808382E083878EE0089581E0089585E0F0
:1013200008958091BE43877F8093BE4382E080937F
:10133000C943E091CE43F091CF438091DA4390913D
:10134000DB4309958230E1F0833061F48091BE4344
:1013500088608093BE438091BF43880F80930709C4
:1013600083E008958091040983608093040980914B
:10137000BE438E7F8093BE431092C94380E00895A0
:101380008091BE4388608093BE438091BF43880FA5
:1013900081608093070984E008958091050984FDA8
:1013A00021C08091BE43877F8093BE43E091C043BC
:1013B000F091C143CF0101968093C0439093C14304
:1013C0008081809308098091C2439091C343019723
:1013D0008093C2439093C343892B11F083E0089517
:1013E00085E00895E091D043F091D1438091DC43B2
:1013F0009091DD430995823071F08330C9F480917A
:10140000BE4388608093BE438091BF43880F809322
:10141000070983E008958091BE4388608093BE43AE
:101420008091BF43880F81608093070984E008950D
:10143000809104098360809304098091BE438E7F6C
:101440008093BE431092C94380E008958091BE43CB
:10145000877F8093BE438091C2439091C343813084
:10146000910509F1209104092B7F2093040901972C
:101470008093C2439093C343E091C043F091C14332
:101480008091080980838091C0439091C143019667
:101490008093C0439093C1438091040982608093FC
:1014A000040984E00895809104098460809304090C
:1014B0001092C2431092C343E091C043F091C143E4
:1014C0008091080980838091C0439091C143019627
:1014D0008093C0439093C1438091BE4384608093C6
:1014E000BE43E091CA43F091CB438091D6439091A3
:1014F000D74309958250823038F480910409846082
:101500008093040988E008958091040984608093A1
:101510000409809104098360809304098091BE438B
:101520008E7F8093BE431092C94380E008958091DE
:10153000050984FF19C0E091D043F091D143809117
:10154000DC439091DD430995823081F1833001F5D0
:101550008091BE4388608093BE438091BF43880FD3
:101560008093070983E008958091BE43846080934F
:10157000BE43E091CA43F091CB438091D643909112
:10158000D7430995833021F38430E9F0823071F03C
:10159000809104098360809304098091BE438E7F0B
:1015A0008093BE431092C94380E008958091BE436A
:1015B00088608093BE438091BF43880F8160809391
:1015C000070984E008950C94CD098091050988608D
:1015D0008093050982E08093C943E091CC43F09168
:1015E000CD438091D8439091D9430995823009F138
:1015F000833061F48091BE4388608093BE438091C4
:10160000BF43880F8093070983E008958091040900
:1016100088608093040980910509816080930509A1
:101620008091BE438E7F8093BE431092C9438EE06B
:1016300008958091BE4388608093BE438091BF43EC
:10164000880F81608093070984E00895EEEBF3E44E
:101650008081886080838181880F8093070983E07F
:101660000895EEEBF3E48081886080838181880FA8
:1016700081608093070984E00895EEEBF3E48081B4
:10168000886080838181880F81608093070984E06E
:101690000895009749F08093CE439093CF43609391
:1016A000DA437093DB4308958DE899E08093CE434D
:1016B0009093CF431092DA431092DB430895E0E019
:1016C000F9E083E7868381EC838308959091BE439C
:1016D00091FD52C08093BF43947F8EE08093C843B6
:1016E00024EF31E02093C6433093C7439260946067
:1016F0009093BE438DE899E08093CA439093CB4387
:101700001092D6431092D7438093CC439093CD430D
:101710001092D8431092D9438093CE439093CF43F5
:101720001092DA431092DB438093D0439093D143DD
:101730001092DC431092DD438FE899E08093D2430E
:101740009093D3431092DE431092DF4380910409BB
:101750008860809304098091050981608093050960
:1017600080910509806C8093050980910309806C44
:101770008093030980E0089581E008958091050930
:1017800082FF08C08091BE438E7F8093BE4382E07B
:101790008093C9438091BE4380FD13C08D7F8093A9
:1017A000BE438FEF8093BF4380910509806C809387
:1017B0000509809103098F73809303098091C943C0
:1017C000089581E008959C019091BE4392FF0BC063
:1017D0002093C0433093C1436093C2437093C3438B
:1017E0009B7F9093BE4308958091BE4380FF02C0CB
:1017F00081E0089581608093BE4382E08093C84376
:1018000080910509806C809305098091BE4383FF18
:1018100007C08091050984FF03C08FE08093C8430F
:101820008091050983FD15C08091050982FF18C0CC
:1018300081E18093C843E1E1F0E0EE0FFF1FE95C36
:10184000FE4B0190F081E02D09958093C84380E024
:10185000089580E18093C8438091050982FDE8CF17
:10186000E091C843F0E0E9CF1F920F920FB60F92BC
:1018700011240BB60F922F933F934F935F936F9367
:101880007F938F939F93AF93BF93EF93FF93809139
:101890000509806C809305098091BE4383FF04C0D5
:1018A0008091050984FD2DC08091050983FF03C047
:1018B00080E18093C8438091050982FF26C081E1C1
:1018C0008093C843E1E1F0E0EE0FFF1FE95CFE4BBF
:1018D0000190F081E02D09958093C843FF91EF912D
:1018E000BF91AF919F918F917F916F915F914F9138
:1018F0003F912F910F900BBE0F900FBE0F901F9036
:1019000018958FE08093C843CFCFE091C843F0E0B3
:10191000DBCFCF92DF92EF92FF921F93CF93DF93B3
:10192000182F7B016A01C0E1D7E202C02197D9F0EC
:10193000812F0E94660B8130C9F3B601C7010E9456
:10194000E30B60E070E08DEB9CE00E94490B0E948D
:10195000F40BC0E1D7E202C0219769F00E94BE0BF0
:101960008130D1F380E0DF91CF911F91FF90EF9014
:10197000DF90CF90089582E0F6CF83E008951BBEFC
:10198000FC0164BF40830895809141018111FCCF27
:1019900081E88093400181E08093470182E0809359
:1019A000420180E0089583E08093500080E0089534
:1019B000E0E2F8E081E493E08087918780EC858322
:1019C000868380E00895CF92DF92FF920F931F935A
:1019D000CF93DF93EC01AE81BF81EB01CC0FDD1F14
:1019E000C60FD71FCA0FDB1FFA80FC014481558147
:1019F000E6E0E69F9001E79F300D11248A01020F77
:101A0000131FF80122813381F90121813281F8010C
:101A100004811581201B310BE8812E1B3109EC015B
:101A2000EA81FB8100811181FA0140E050E040171A
:101A3000510739F146175707F9F012968C91129712
:101A4000F8121AC0808185588230E8F0C480D580B1
:101A500082819381EC0189819A81C816D90660F44C
:101A60008C199D09CC91D0E0C817D90728F48C1B9C
:101A70009D0B2817390738F04F5F5F4F1396369646
:101A8000D6CF80E001C081E0DF91CF911F910F910F
:101A9000FF90DF90CF9008952091E2433091E3438F
:101AA000820F931F8093E2439093E343089500973E
:101AB000D9F041155105C1F026E0629FB001112413
:101AC000DC011496ED91FC911597E60FF71F21E0CC
:101AD000208314968D919C911597FC01E60FF71FBA
:101AE0004283538380E008958BE008952F923F92C4
:101AF0004F925F926F927F928F929F92AF92BF921E
:101B0000CF92DF92EF92FF920F931F93CF93DF93C9
:101B1000009709F47DC3EC01A12CB12C812C912CF0
:101B2000212CD12C33E0C32E45E8642E56E8752EC7
:101B300067E0362E72E0472EE8E05E2EEA81FB81F8
:101B4000808191818816990608F0A5C17501EE0C77
:101B5000FF1C0C811D810E0D1F1DD8018C9184303E
:101B600009F4A2C038F4823001F108F049C0813094
:101B700059F08AC1853809F4C2C0863809F4F6C024
:101B8000873009F081C137C1D8011296ED91FC91DF
:101B9000139780818E7109F069C14C928C819D816F
:101BA000FC01EE0DFF1D518261C1F801218122234C
:101BB00029F10280F381E02D253020F0818192818E
:101BC000D8010EC0D80114968D919C911597418132
:101BD00052818417950769F04817590730F4019727
:101BE00014968D939C93159704C00196F8018483F5
:101BF00095832150D80111962C9338C1F80131C139
:101C0000D80114962D913C91159712968D919C9127
:101C10001397DC0111964D915C91129724173507AB
:101C200009F432C18E819F8142175307E0F4241BCF
:101C3000350BDC01AA0DBB1D8C9190E0058002C024
:101C4000959587950A94E2F799272817390708F49C
:101C50001BC18481882309F417C1F8013082EA810D
:101C6000FB8124811AC0FC01EA0DFB1D421B530BB2
:101C7000808190E04817590708F406C182818823C3
:101C800031F0B401CE010E94E30C8111FDC0E4E00B
:101C9000D801EC93EA81FB8122818C819D81FC013A
:101CA000EE0DFF1D2183E2C0D80114962D913C91C9
:101CB00015971296ED91FC9113978181928182176D
:101CC000930708F4D7C0EE81FF81EA0DFB1D821B4C
:101CD000930B208130E02817390708F0AFC08281CC
:101CE000882331F0B401CE010E94E30C8111CCC0F5
:101CF000F8018181882309F467C08150B6C0A881AA
:101D0000B981808513968C93EC81FD81EE0DFF1DCA
:101D100044815581A281B38111968D919C91129736
:101D200084179507C0F0AE81BF81AA0DBB1D6C91D1
:101D3000262F30E011967C917F5F02C03595279564
:101D40007A95E2F7841B950B621B262F30E028174B
:101D5000390708F497C07082EA81FB8122818C8167
:101D60009D81FC01EE0DFF1D218342C0D801149618
:101D70006D917C9115971296ED91FC9113972181AD
:101D800032812617370758F411968C9111978111DB
:101D900002C0CC9277C08150F801818373C0EE817C
:101DA000FF81EA0DFB1D8081482F50E091819F5FEC
:101DB00002C0559547959A95E2F7261B370B841B71
:101DC00090E08217930760F4D8016C92EA81FB815E
:101DD00023818C819D81FC01EE0DFF1D218352C06A
:101DE000F8018181811102C0C0824CC08150818381
:101DF000222423943BC0D80114962D913C91159731
:101E000012968D919C911397DC0111968D919C9166
:101E100012978217930768F5281B390BAE81BF8193
:101E2000AA0DBB1D8C9190E0058002C09595879509
:101E30000A94E2F799272817390718F4F801C082A5
:101E40001AC0D80111968C91119781110CC081E0B4
:101E50008C938C819D81FC01EE0DFF1D0280F3812E
:101E6000E02DC08211C08150F8018183DD24D3941C
:101E70000BC0D801CC928C819D81FC01EE0DFF1D21
:101E8000118202C022242394BFEF8B1A9B0AE3E045
:101E9000AE0EB11C53CEE881F981808187FF23C04B
:101EA00040E050E020E030E0EA81FB8180819181D8
:101EB0002817390798F4EC81FD81E40FF51FA28102
:101EC000B3818C9180FD05C09081977F11F0816076
:101ED0008C932F5F3F4F4A5F5F4FE6CFE881F981D8
:101EE00080818F778083D11007C0E881F98121102C
:101EF0006FC080818E7F6EC0EA81FB8181858823DF
:101F0000A1F3E881F981808180688083EA81FB8187
:101F10008185813051F740E050E020E030E096E0EC
:101F2000D92EEA81FB816081718126173707E8F697
:101F30000C811D81FA01EE0FFF1FE00FF11F808160
:101F4000982F977FA1F1853811F08330B1F5EE809D
:101F5000FF80D701A40FB51F1296BC90BB2039F1AA
:101F600080E090E0C12C86179707F8F4281739070E
:101F7000D1F0D89ED001D99EB00D1124A00FB11F71
:101F8000AC91A43011F0A63871F4DC01AA0FBB1F8C
:101F9000A80FB91FAE0DBF1D1296AC91BA1203C0A7
:101FA000CB01CC24C3940196DECFC11006C00280C1
:101FB000F381E02D80818E7F05C00280F381E02DCA
:101FC0008081816080832F5F3F4F4D5F5F4FA9CF3E
:101FD0008081816080838091E2439091E343E88136
:101FE000F98121813281A90148535F4F4817590770
:101FF00038F4821B930BAA24A394A3E0BA2E44C006
:102000008217930710F080E004C1821B930B0197A5
:10201000893C9105C0F3EFCF885C9109E881F98193
:102020002181328128533F4F218332832381211123
:1020300096C02481222311F021502483E881F98164
:102040002581222311F0215025838A809B80D40191
:1020500016962C91169721111BC08A809B80F40143
:102060002781211148C0EA81FB812381222361F06D
:1020700020E030E0A0E0B0E0EA81FB8140815181C6
:10208000A417B50708F46EC0893C910528F6BBCFAC
:1020900008811981F80124812111DFCFED90FC9096
:1020A00060E070E040E050E04E155F05F1F0EC813B
:1020B000FD81E60FF71F2081233011F0283081F4D5
:1020C00024813581C280D380D6011196CD90DC90D9
:1020D00012972C153D0520F42F5F3F4F2483358345
:1020E0004F5F5F4F6A5F7F4FDFCFF4012681D801DA
:1020F00014962C93B2CF08811981D80115962C9192
:102100002111B1CFE080F18060E070E040E050E06C
:102110004E155F05F1F0EC81FD81E60FF71F208180
:10212000233011F0283081F424813581C280D3809E
:10213000D6011196CD90DC901297C216D30620F4EA
:1021400021503109248335834F5F5F4F6A5F7F4F92
:10215000DFCFF4012781D80115962C9384CF21502D
:10216000238381CFA901440F551FEC81FD81E40F2A
:10217000F51F6081653809F047C06181662319F059
:102180006150618341C0A0826C817D81FB01E40FBD
:10219000F51F0280F381E02DB082EE81FF81E20F16
:1021A000F31FD280DD2081F140E050E000E010E03C
:1021B000EA81FB81608171810617170728F5EE819E
:1021C000FF81E40FF51F6281D61219C0BA01660FB4
:1021D000771FEC81FD814F01860E971EF401E2808E
:1021E000F380F701F080F0FE0AC0F401A082EC81D8
:1021F000FD81E60FF71F0280F381E02DB0820F5FB3
:102200001F4F4D5F5F4FD4CF11962D5F3F4F34CF9F
:102210008BE0DF91CF911F910F91FF90EF90DF90B6
:10222000CF90BF90AF909F908F907F906F905F9076
:102230004F903F902F900895209114443091154471
:102240008091104490911144281B390B80911644C1
:10225000909117444091124450911344841B950B64
:10226000B90137FF04C066277727621B730BAC01E7
:1022700097FF04C044275527481B590B641775075F
:102280002CF0121613063CF080E00895181619067B
:1022900024F083E0089582E0089581E008954F924C
:1022A0005F926F927F928F929F92AF92BF92CF92E6
:1022B000DF92EF92FF92C82ED12CE12CF12C90915D
:1022C0000A449430B8F0915090930A4440910644E7
:1022D000509107446091084470910944452F562F4E
:1022E000672F772740930644509307446093084430
:1022F0007093094440910A44942F990F990F990FB4
:1023000004C0CC0CDD1CEE1CFF1C9A95D2F780900B
:10231000064490900744A0900844B0900944C8280F
:10232000D928EA28FB28C0920644D0920744E092BC
:102330000844F09209449091F943903F09F440C059
:10234000E6EEF1E420E030E080809180A280B3806E
:102350008C249D24AE24BF244480558066807780E1
:1023600084209520A620B72089288A288B2811F55B
:102370005BE0529FF001539FF00D1124EA51FE4B98
:102380009085ABEFB3E401900D925A95E1F7903947
:1023900031F490910B44992399F0906908C09F38CB
:1023A00031F490910B449F5F90930B4409C090933C
:1023B000F94306C02F5F3F4F3B962431310521F68C
:1023C0009091F5439111E7C0982F907F903509F0D7
:1023D000C6C0582F537020915C419091E84322234E
:1023E00061F091110AC0E091BA44F091BB44978921
:1023F0009093E74310925C4102C091113AC0E52FDF
:10240000F0E090915B41292F30E0B9016F5F7F4F81
:1024100063707727E617F70721F49091E6439F5FF3
:102420000AC02150310923703327E217F30741F422
:102430009091E64391509093E6431092E54303C098
:1024400059131092E6436091E6432091E7436213EB
:1024500002C091E00CC0062E000C770B33272195AB
:102460000CF430956217730709F076C09FEF9093D4
:10247000E8436091E843613019F06F3F09F06CC0A8
:102480002FEF3FEF2093B8443093B94490915B41D4
:10249000E091BA44F091BB44591749F0A52FB0E040
:1024A000262F290F237030E0A217B307C9F420911B
:1024B000E543613029F436892317ECF42F5F0DC012
:1024C0006689772761950CF47095A22F022E000C77
:1024D000BB0B6A177B077CF421502093E5430BC0AC
:1024E0001092E8431092E643208D2093E743109228
:1024F000B8441092B94426896091E543261307C079
:1025000020EF2093F9432091E4432F5F10C0062E63
:10251000000C770B332721950CF430956217730765
:10252000D9F421EF2093F9432091E44321502F70F7
:102530002093E443990F990F91602295207F292BD6
:1025400091E03091E84313160CF090E0990F292B9D
:102550002093F8431092E54350935B411CC0282F11
:102560002F77203299F41092E8431092E6431092AC
:10257000E5439091F9439E7F903F11F41092F94307
:1025800090EF90935B411092E44305C0903119F4B1
:1025900091E090935C414F5F40930A44FF90EF902D
:1025A000DF90CF90BF90AF909F908F907F906F9073
:1025B0005F904F90089581E09091FA43911101C08E
:1025C00080E008951092FA431092F9430895109212
:1025D0000B4410920A441092064410920744109241
:1025E0000844109209448FEF9FEF8093B844909372
:1025F000B9441092F64380E008952091B844309198
:10260000B94437FD06C0280F391F2093B8443093D2
:10261000B9440895AF92BF92CF92DF92EF92FF92AA
:102620000F931F93CF93DF93EC01892B09F4ECC236
:10263000EA81FB81E093BA44F093BB44A481B58165
:102640002C91A285B385109711F09C9101C090E068
:1026500021709170392F330F322B8091EC43281366
:1026600004C0222331F0A3E007C0222321F0A1E01F
:1026700003C0A0E001C0A2E02093EC438091ED43B1
:10268000981304C0992331F083E007C0992321F007
:1026900081E003C080E001C082E09093ED4324E03C
:1026A000A29FD0011124AE53BD4BA80FB11D8C9138
:1026B000333051F49091F543911115C091E090930E
:1026C000F5439093F7430BC01092F7434091B84401
:1026D0005091B9444F3F5F4F11F41092F5439091E0
:1026E000F543992319F1A081B1812D913C91A90164
:1026F00056954795A681B7812D913C9136952795A2
:10270000240F351F2093F3433093F443A281B38108
:102710002D913C91A90156954795A085B1852D91A4
:102720003C9136952795240F351F1BC0313059F445
:10273000A081B1812D913C912093F3433093F443D8
:10274000A281B3810CC0323081F4A681B7812D9172
:102750003C912093F3433093F443A085B1852D91B0
:102760003C912093F1433093F243813049F008F4D7
:10277000EDC1823009F479C0833009F4A1C0FCC1F5
:1027800010920A4410920644109207441092084492
:10279000109209441092EF438BE02BEF33E4D90100
:1027A0001D928A95E9F71092EE431092F943109228
:1027B000F843E090F343F090F443E0921444F09235
:1027C00015440091F1431091F24300931644109385
:1027D0001744258930E0E216F30610F482E101C0C7
:1027E00080E140E051E0421B530B4E155F0508F4B9
:1027F00081600217130708F488604017510708F436
:1028000084600E944F118093F04380910B44882391
:1028100009F451C080910C4490910D44E816F906DA
:1028200020F09701281B390B03C09C012E193F098A
:1028300080910E4490910F440817190728F0F80171
:10284000E81BF90BCF0102C0801B910BE091BA4449
:10285000F091BB44448950E04217530718F04817E1
:10286000590748F510920B4426C08091F34390918C
:10287000F44380930C4490930D448091F1439091E4
:10288000F24380930E4490930F441092F64380914C
:102890000444882321F088EA8093F94305C080E24C
:1028A0000E944F118093F0438BE0EBEFF3E4DF01E4
:1028B0001D928A95E9F71092B8441092B9445CC110
:1028C000992309F466C0A281B3812D913C91A08522
:1028D000B1858D919C912817390728F0A901481BD3
:1028E000590BCA0102C0821B930BA081B1812D91AB
:1028F0003C91A681B7814D915C912417350718F062
:10290000241B350B04C0BA01621B730B9B01409161
:10291000F743423060F41092EB43280F391F2093A5
:10292000E9433093EA4382E08093F74329C0423081
:1029300039F5280F391F818D90E04091E94350917E
:10294000EA43BC01640F751F6217730738F0820FEA
:10295000931F8417950708F459C112C091E0809124
:10296000EB43890F8093EB432093E9433093EA4391
:10297000913009F04DC191EC9093F9438093F84365
:102980008091F943882329F080EC0E944F118093B5
:10299000F043E091BA44F091BB442091B8443091A7
:1029A000B944858590E0281739077CF08091EE4383
:1029B00081110BC01091F64310FD07C080E80E9402
:1029C0004F118093F04311600FC0878590E0281766
:1029D00039076CF01091F64311FD09C080EA0E949E
:1029E0004F118093F04312601093F6431AC086850E
:1029F00090E028173907ACF08091EE43811111C0A7
:102A00008091F643833069F480E90E944F118093EE
:102A1000F0431092F6438FEF9FEF8093B84490936A
:102A2000B944A090F343B090F443A0921044B09204
:102A30001144C090F143D090F243C0921244D0921E
:102A40001344E0901444F0901544AE14BF0428F0F1
:102A5000C5018E199F097C0102C0EA18FB0800918C
:102A6000164410911744C016D10628F0D601A01BB9
:102A7000B10B8D0102C00C191D09E091BA44F0910F
:102A8000BB44838990E08E159F0518F0801791074D
:102A900070F48091EE4381110AC00E941C11806382
:102AA0000E944F118093F04381E08093EE43809128
:102AB000EE43882309F460C0E091BA44F091BB442E
:102AC000878590E02091B8443091B94428173907A0
:102AD0000CF052C0808990E08E159F0530F08189FE
:102AE00090E08017910708F047C00E941C11803FBA
:102AF000D1F09091EF438065992361F02091F043EC
:102B0000821308C020910A44215020930A44915016
:102B10009093EF430E944F118093F0438091EF43D5
:102B20008F5F8093EF438091B8449091B9440196B0
:102B300021F01092B8441092B944A0921444B0927B
:102B40001544C0921644D092174416C0858590E073
:102B50002091B8443091B944821793076CF480E80F
:102B60000E944F118093F04310920B448FEF9FEF20
:102B70008093B8449093B94480910544813021F406
:102B8000809103448093F9438091F943982F9E7F6D
:102B90001091F843903F31F410FF06C091E09093FC
:102BA000FA4302C08111FACF9091F5439923E1F0E5
:102BB0009091FA439923C1F09FEF980F933410F44A
:102BC0008C5F09C0982F907F903911F4805F03C00B
:102BD000803D19F484ED8093F9438091F943807C22
:102BE000803C11F01092F543E880F9800E94DB12DE
:102BF000F7018083E881F9818091F9438183E8813D
:102C0000F981128380E006C08BE004C09FEFA7CE5D
:102C100090ECB2CEDF91CF911F910F91FF90EF908A
:102C2000DF90CF90BF90AF9008959C016115710522
:102C300009F14F5F37FD06C0442321F04150220FB8
:102C4000331FF8CF77FD04C04F5F660F771FFACFB1
:102C500080E090E0442381F097FD0CC0880F991F1D
:102C600041502617370718F0261B370B019676952B
:102C70006795F0CF8FEF9FEF089526E0829FC00108
:102C80001124FC01E75EFB4B2281338120833183D9
:102C9000548145815283438364837583852F942FA8
:102CA00068177907D9F082179307C1F06217730785
:102CB000A1F08617970740F42817390778F0CB0161
:102CC0002617370758F407C08217930738F0CB014F
:102CD0006217730718F4C9010895CB01089526E01F
:102CE000269FF001279FF00D1124E80FF91FA28104
:102CF000B38111968D919C91129724813581821B0D
:102D0000930B08959F92AF92BF92CF92DF92EF9272
:102D1000FF920F931F93CF93DF935C016B01942E6F
:102D20007901B9010E946F161816190614F4EC0106
:102D300002C0C0E0D0E0CE14DF0458F4B701615007
:102D40007109C5010E946F161816190614F48C013A
:102D500002C000E010E0C90CD11C81E0C81AD10803
:102D6000EC14FD0448F4B7016F5F7F4FC5010E946A
:102D70006F161816190614F080E090E0801791077E
:102D800008F4C8018C0F9D1FDF91CF911F910F9107
:102D9000FF90EF90DF90CF90BF90AF909F900895FD
:102DA0002F923F924F925F926F927F928F929F925B
:102DB000AF92BF92CF92DF92EF92FF920F931F9349
:102DC000CF93DF93CDB7DEB72597CDBFDEBF2B0105
:102DD0004A838901FC01C384D484F681F983F29586
:102DE000FF70FB83B901C6010E946F168C839D831F
:102DF00097FF02C01C821D820415150549F0B80119
:102E000061507109C6010E946F167C0197FF02C0D4
:102E1000E12CF12C2A81222E312CC201820D931D2E
:102E200001974801A12CB12C612C712C08171907AE
:102E300009F47DC0B8016F5F7F4FC6010E946F1615
:102E400084189508A608B7085CE0880C991CAA1C91
:102E5000BB1C5A95D1F797FF02C080E090E0E816BE
:102E6000F90690F04C815D81481B590B4C835D83C2
:102E7000BA01681B790B6E0D7F1D4CE08C819D8122
:102E80000E94151690510BC08E199F096C817D818F
:102E90006E197F09680F791F4CE00E941516A50175
:102EA0009401280F391F411D511DDA01C9013A81D2
:102EB000333040F0B1016150710940E00E941516B5
:102EC000A0E0B0E0813040E19407A105B10520F019
:102ED00080E090E1A0E0B0E029812F70E9F058E2B5
:102EE000259F90011124A90160E070E084179507E7
:102EF000A607B70718F0821B930B03C080E090E091
:102F0000DC01220F331F60E070E1621B730B4CE0A9
:102F10000E941516A0E0B0E08115E0E19E07A10532
:102F2000B10598F08FEF9FE0A0E0B0E00EC08418EC
:102F30009508A608B7088CE0880C991CAA1CBB1C35
:102F40008A95D1F780E090E08DCF2CE030E0FB81D6
:102F50002F1B310904C0B695A795979587952A959B
:102F6000D2F72596CDBFDEBFDF91CF911F910F9194
:102F7000FF90EF90DF90CF90BF90AF909F908F9099
:102F80007F906F905F904F903F902F9008952F9279
:102F90003F924F925F926F927F928F929F92AF92E9
:102FA000BF92CF92DF92EF92FF920F931F93CF9336
:102FB000DF93CDB7DEB72897CDBFDEBF009709F40A
:102FC00000C1DC0112960D911C911397F801268126
:102FD000203D08F0F4C02D913C912F833887232B9E
:102FE00009F4EFC00115110509F4EBC043845484C2
:102FF0004114510409F4E5C032813B83C080D18083
:10300000C60120E0A601430F511D49835A8336E0D3
:1030100049815A818417950780F4389FF001399FC0
:10302000F00D1124E40DF51D6081653811F0AC013F
:1030300001C021E0CA010196EBCF222339F04601FD
:10304000AA24AA94BA2CE12CF12C34C0D8011596EC
:103050003C91159713968D919C911497AC01430F59
:10306000511D36E0BA018417950780F4389FF001AE
:10307000399FF00D1124E40DF51DE081E53811F0C4
:10308000BC0101C021E0CB010196ECCF2111D7CFCB
:10309000EF81F885808180FDD2CF1186128693C0A2
:1030A000B401C2010E946F16181619064CF0FFEF0A
:1030B0008F1A9F0A29813A818216930688F306C0E7
:1030C000E816F906A4F754017C01F1CFD801159652
:1030D000BC91BC83F80163807480130188248A94B6
:1030E000982CE12CF12C93012B0F311D2D833E8365
:1030F0006D817E812616370680F4B101C2010E94DF
:103100006F16181619062CF4E816F90614F4410186
:103110007C015FEF251A350AEBCF7FEF8716970604
:1031200021F08FEFA816B80639F4AF81B88519964B
:103130001D921C921A9747C0AC14BD0468F0E98137
:10314000FA81AE16BF0640F495014B81B601C2016B
:103150000E9482167C0102C0E12CF12C8614970497
:1031600070F02D813E818216930648F494014C81C3
:10317000B301C2010E9482168E0D9F1D02C080E025
:1031800090E0AF81B8852C91322F317020FF0AC0BA
:10319000009741F01996ED90FC901A978E0D9F1DA7
:1031A00096958795EF81F88581879287D801199642
:1031B0004D915C911A978417950728F00AC082E018
:1031C00059C18BE057C180E0EF81F885808380E0B2
:1031D00051C1311104C081E08093184402C01092A3
:1031E0001844F801428135808091184481117BC0D8
:1031F00080858370282EB1F49501B601C8010E9424
:10320000D016AF81B88511968D939C931297940137
:10321000432DB301C8010E94D016EF81F885858344
:10322000968399C0AF81B8851196ED90FC90129766
:1032300015964D905C9016979501B601C8010E94B5
:10324000D0166C019401432DB301C8010E94D01621
:10325000A7014C0D5D1D9201280F391FB1E02B1203
:1032600007C0B601660F771F460F571FBC010EC07F
:10327000E2E02E1205C0440F551F220F331F0AC073
:10328000B701660F771F460F571FB201660F771FF2
:10329000260F371FEC14FD0418F44E5F5F4F05C076
:1032A000CE14DF0410F4415051094816590618F4A1
:1032B0002E5F3F4F05C08415950510F4215031094C
:1032C0005695479556954795AF81B88511964D937C
:1032D0005C931297369527953695279515962D93DD
:1032E0003C93169738C09501B601C8010E94D016CC
:1032F0007C01EF81F885818392839401432DB30192
:10330000C8010E94D016AF81B88515968D939C9305
:1033100016971396ED92FC92149717968D939C93A3
:103320001897E0921944F0921A44E0921B44F092EC
:103330001C44E0921D44F0921E4480931F449093DD
:10334000204480932144909322448093234490937B
:10335000244481E839CFD80118968C91EF81F88503
:1033600061817281F82FF071EF2E84FD02C0FB01A4
:1033700004C080E00E943D16FC01AF81B885139621
:103380002D913C9114979C91E217F307B0F493FDB3
:103390000BC02E1B3F0BD80117964C9150E04217E3
:1033A000530710F0947016C0AF81B8851396ED9353
:1033B000FC9314979BE8F92E18C092FD0EC0AF0144
:1033C000421B530BD80117962C9130E02417350778
:1033D00020F098709168F92E08C0AF81B8851396D7
:1033E000ED93FC93149787E8F82EEF81F8856581BB
:1033F0007681E11002C0FB0104C081E00E943D160D
:10340000FC01AF81B88517962D913C9118979C913E
:10341000E217F307B0F495FD0BC02E1B3F0BD8014C
:1034200017964C9150E04217530710F0907116C058
:10343000AF81B8851796ED93FC9318978F2D826214
:10344000C3CE94FD0EC0AF01421B530BD80117969B
:103450002C9130E02417350720F09072892F8F29A6
:10346000B3CEAF81B8851796ED93FC9318978F2D47
:103470008261AACE2896CDBFDEBFDF91CF911F918A
:103480000F91FF90EF90DF90CF90BF90AF909F9003
:103490008F907F906F905F904F903F902F90089506
:1034A000009791F0DC01ED91FC91309769F010826A
:1034B000118212821382148215821682178210865C
:1034C0001186128680E008958BE00895A091BC4497
:1034D000B091BD4425E0AC01249FC001259F900D13
:1034E00011241496ED91FC911597E80FF91F818135
:1034F00092818617970781F18617970718F4681B42
:10350000790B04C09C01261B370BB901ED91FC918E
:103510008281803411F47695679565387105D0F411
:1035200066307105C8F0E381E073F0E083E0F69562
:10353000E7958A95E1F7EE52FD4B80819181689F76
:103540009001699F300D789F300D112481E0232B6D
:1035500021F402C081E0089580E0089580912A441A
:1035600090912B44A091BC44B091BD44ED91FC914D
:1035700011974081518125E0289FB001299F700D4E
:10358000112420E030E084179507A8F41496ED91FB
:10359000FC911597E20FF31FE60FF71FE0812B5FF9
:1035A0003F4FE0FD02C00196EECF80932A449093F6
:1035B0002B4480E0089510922A4410922B4481E01D
:1035C0000895AF92BF92CF92DF92EF92FF920F9346
:1035D0001F93CF93DF937C01E091BC44F091BD44F5
:1035E00084E18E9DE0018F9DD00D1124A281B381D5
:1035F000AC0FBD1F18962C91189719963C911997EE
:103600001A964C911A971B965C911B971C966C917D
:103610001C971D967C911D971E968C911E971F9648
:103620009C912093F00708E00E9444212093F10729
:103630000E9444212093F2070E9444212093F30723
:103640000E9444212093F4070E9444212093F5070F
:103650001092E007A081B18112968C91803809F414
:103660004FC0A281B381AC0FBD1FCC9011963C918D
:10367000119712964C91129713965C91139714968A
:103680006C91149715967C91159716968C911697B8
:1036900017969C91C092E8072C2D0E944421D22EAF
:1036A0002093E9070E944421122F2093EA070E94E9
:1036B0004421A22E2093EB070E944421B22E209396
:1036C000EC070E9444212093ED0780819181DC0169
:1036D00012968C91813821F481E08093E00710C02C
:1036E000823871F41092E007C092F807D092F9077F
:1036F0001093FA07A092FB07B092FC072093FD07F6
:1037000045E04E9DC0014F9D900D1124A481B581CF
:10371000A80FB91F13962D913C91149733702093E5
:10372000E4073093E507A481B581A80FB91F2C9158
:1037300021FD4C9324813581D901A80FB91F8C91AB
:103740008C7169F4A281B381AC0FBD1F5296AC910C
:10375000A295AF70B0E0A652BD4B8C9101C08FE135
:103760008093E607A281B381AC0FBD1F50968C9168
:103770008B3710F48C5F01C08FE78093C407A28160
:10378000B381AC0FBD1F53968C918093C707A28164
:10379000B381AC0FBD1F51968C9182958F70809331
:1037A000C90782819381C80FD91F89898F7080686A
:1037B0008093C20781E88093C00781E08093D0079F
:1037C000DF91CF911F910F91FF90EF90DF90CF90FD
:1037D000BF90AF9008952F923F924F925F926F9259
:1037E0007F928F929F92AF92BF92CF92DF92EF9291
:1037F000FF920F931F93CF93DF93CDB7DEB725973B
:10380000CDBFDEBF80912944882309F424C20091F2
:10381000BC441091BD442091BE443091BF442A83E2
:103820003B83C12CD12CA12CB12C212C312C198201
:1038300044244A945524539477247394D8018D904A
:103840009C90F401808191812816390608F0FFC10F
:10385000AA81BB814D915D91AA83BB83F801E4806D
:10386000F580EA0CFB1CD7012C91822F8C7190E023
:1038700096958795969587958230910509F481C133
:1038800028F4009759F0019701F1D7C183309105D1
:1038900009F43AC1049709F4C2C0CFC10280F38190
:1038A000E02DEC0DFD1D92899F708389981710F40F
:1038B000891B01C080E09A0102C0369527958A9540
:1038C000E2F7F70121833283B8C182819381FC0141
:1038D000EC0DFD1DBA01038802C0769567950A9428
:1038E000E2F76C837D83D70111966D937C931297D9
:1038F00013968D919C9114976115B2E07B0728F087
:10390000DB01AF5FB14031E006C0D2014C815D8187
:10391000A41BB50B30E0BD0176956795D4011296D6
:103920004C91403409F037256A30710508F047C0E2
:1039300026FD39C027FD39C0D40113962C91237080
:10394000233059F4BFE7B08BD8011496ED91FC9168
:103950001597EA0DFB1DB1E124C0223061F42189E5
:10396000207F218BD8011496ED91FC911597EA0DDB
:10397000FB1DB9E016C02130B1F421892F70218BD5
:10398000D8011296ED91FC911397EC0DFD1D218944
:103990002067218B1496ED91FC911597EA0DFB1D84
:1039A000BDE0B08302C0F7017082D8011496ED919A
:1039B000FC911597EA0DFB1D838394833EC18F3FD5
:1039C000B3E09B0711F0009731F421E8F701208361
:1039D0003EE0398332C1332311F09C0110C09C01B9
:1039E0002F3F43E03407A8F42F5F3F4F6150710928
:1039F00061307105A9F70DC02115310551F0215035
:103A00003109A901481B590B460F571F4130510579
:103A100099F7D70113962D933C9314970EC1F80193
:103A2000828093808C0C9D1CFA01D40153960C90DB
:103A3000539702C0F695E7950A94E2F7EC83FD836D
:103A400050966C90FFE76F120FC0EC81FD81D7019B
:103A50001196ED93FC931297D40150968C91509748
:103A60008F7B50968C9342C0F12C262D30E0C901FB
:103A70000F2C02C0969587950A94E2F780FF03C049
:103A80008F2DF12C01C087E08F5F873010F4F82E66
:103A9000EECF6C817D81C1010E94661A882351F0AE
:103AA00081E090E00F2C01C0880F0A94EAF7862984
:103AB000F401808BD801FF2091F01296ED91FC91DA
:103AC0001397EC0DFD1DFA9481E090E001C0880F82
:103AD000FA94EAF7809590898923808B07C0149621
:103AE000ED91FC911597EA0DFB1D7082D80114969B
:103AF000ED91FC911597EA0DFB1D8081813009F055
:103B00009CC02C813D8183C00280F381E02DEC0DAF
:103B1000FD1D9A01038802C0369527950A94E2F7A5
:103B20002C833D83918892942FE0922237E0931664
:103B300091F06C817D81C1010E94661A811104C0DF
:103B40009394D7017C9209C0911003C0F701708251
:103B500004C09A9402C096E0992ED8011296ED9175
:103B6000FC911397EC0DFD1D81898F70818B12964E
:103B7000ED91FC911397EC0DFD1D929480EF98222E
:103B800036C00280F381E02DEC0DFD1D9A01038803
:103B900002C0369527950A94E2F72C833D838189EC
:103BA0008F70982E91F0B901C1010E94661A81119F
:103BB00004C09A94D7017C920AC0B7E09B1203C05C
:103BC000F701708204C0939402C099249394D801A1
:103BD0001296ED91FC911397EC0DFD1D8189807F6C
:103BE000818B1296ED91FC911397EC0DFD1D81894F
:103BF000982A918A1496ED91FC911597EA0DFB1D78
:103C00002C813D812183328380818130B1F4211563
:103C100042E0340728F02F5F31402C833D8307C0FA
:103C2000B2018C819D81681B790B6C837D83AC8193
:103C3000BD811B9710F0B5E4B083EFEF2E1A3E0A5A
:103C4000F5E0AF0EB11C24E1C20ED11CF7CD82E02D
:103C50008093294402C0F3E0F98389812596CDBF82
:103C6000DEBFDF91CF911F910F91FF90EF90DF901A
:103C7000CF90BF90AF909F908F907F906F905F900C
:103C80004F903F902F9008955F926F927F928F9206
:103C90009F92AF92BF92CF92DF92EF92FF920F93DB
:103CA0001F93CF93DF93009709F492C0DC01ED914D
:103CB000FC916081718140E050E020E030E0B0E0B4
:103CC00010E0F12CE12C912C812C712C612C261709
:103CD000370751F1EC01EA81FB81E40FF51FA08069
:103CE000A085AA2AB180A185BA2AC280A285CA2A43
:103CF000D380A385DA2AD481A485DA2BC581A58552
:103D0000CA2B5680A685A5295780E785E529BA29BB
:103D10001B29FC28ED289D2A8C2A7A2A6E2A2F5FDF
:103D20003F4F4C5E5F4FD3CF2B2F312F4F2D5E2D4A
:103D3000692D782D872D962DA0E00E94602109F431
:103D400049C081E0809329442DEEC22E22E4D22E78
:103D5000C0E0D0E0AA24A394B12C4CE0542E2B2F29
:103D6000312F4F2D5E2D692D782D872D962D0C2FFF
:103D70000E944421217030E040E050E060E070E0BB
:103D800080E090E0A0E00E946021C9F0F60180810F
:103D9000E82FE295E695E770F0E0EE0FFF1FE152A5
:103DA000FD4B0190F081E02D8F71950102C0220F33
:103DB000331F8A95E2F7228326835386258721962F
:103DC0003FEFC31AD30AC033D10549F680E003C0E0
:103DD0008BE001C082E0DF91CF911F910F91FF90A6
:103DE000EF90DF90CF90BF90AF909F908F907F909B
:103DF0006F905F900895009731F08093BE44909348
:103E0000BF4480E008958BE008956115710561F16C
:103E1000009751F120912944222341F1243041F1AE
:103E20008093BC449093BD4460932744709328448E
:103E3000DC01ED91FC912281203419F41092C1072C
:103E400007C0203811F0213831F421E02093C10758
:103E50001092CB0711C0223869F421E02093C107EA
:103E600029E02093CB0708C08BE0089583E00895F4
:103E700081E0089582E008951092C007DC01ED9181
:103E8000FC9184819281903451F41092C507803165
:103E900010F4806201C08FE28093C30708C090E2F3
:103EA0009093C3078F3008F08FE08093C50781E0BF
:103EB0008093D3078093D20780935D4110922A4468
:103EC00010922B440E94AE1A81110BC084E08093A3
:103ED000294480912A4490912B440E94E11A80E069
:103EE000089582E08093294408950097C9F0DC0189
:103EF000ED91FC911197208131812617370790F0C1
:103F000045E0469F9001479F300D11241496ED9196
:103F1000FC911597E20FF31F81E0808380E0089504
:103F20008BE0089582E00895FC01892BD1F1A081F6
:103F3000B1818D919C91119786179707A0F11296E8
:103F40009C910480F581E02D903459F485E0869FA2
:103F5000D001879FB00D1124AE0FBF1F80EA90E003
:103F60000DC09058923080F485E0869FD001879FE5
:103F7000B00D1124AE0FBF1F80EF90E013968D930C
:103F80009C93149780E001C082E095E0969F900199
:103F9000979F300D1124E20FF31F90819260908360
:103FA00008958BE0089582E00895EF92FF921F93A9
:103FB000CF93DF93009709F477C0DC01ED91FC917A
:103FC0001197309709F470C06115710509F46CC040
:103FD0000190F081E02D12964D915C911397208114
:103FE00031814217530708F061C0FC011092C007ED
:103FF000609325447093264412E010935D418281C2
:10400000938180932A4490932B44C081D181C093A3
:10401000BC44D093BD4445E0489F9001499F300D7A
:104020001124AC81BD81A20FB31F11962D913C913B
:104030001297648170E0D901A60FB71F7901E61AC3
:10404000F70A24E1289FB001299F700D1124EA810D
:10405000FB81E60FF71F52895F703389351BAD0175
:10406000032E02C0440F551F0A94E2F7B70102C0A5
:10407000660F771F3A95E2F79B014093DE07509356
:10408000DF076093DC073093DD0724E02093C80747
:1040900023E02093D3071093D20721E02093D10788
:1040A0000E94E11A80E003C08BE001C082E0DF9152
:1040B000CF911F91FF90EF90089580915D418230E4
:1040C00049F481E080935D411092C0071092D107BE
:1040D00080E0089583E008952091DA073091DB07AE
:1040E00060912A4470912B44CB01880F991FE09175
:1040F000BE44F091BF44E80FF91F20833183A091A3
:10410000BC44B091BD4444E1469FC001479F900D1F
:1041100011241296ED91FC911397E80FF91F9289E3
:104120009F708389981710F4891B01C080E095E087
:10413000969FA001979F500D11241496ED91FC912C
:104140001597E40FF51F02C0369527958A95E2F77B
:104150002183328382E080932944E0912544F091C9
:10416000264409941092C00780915D41813009F086
:104170004EC04091DA075091DB0780912A4490911C
:104180002B449C01220F331FE091BE44F091BF44A9
:10419000E20FF31F40835183019680932A4490934A
:1041A0002B440E94AE1A811109C084E080932944F7
:1041B00080912A4490912B440C94E11A1092E807C4
:1041C0001092E9071092EA071092EB071092EC07A1
:1041D0001092ED071092F0071092F1071092F2077B
:1041E0001092F3071092F4071092F5071092F80757
:1041F0001092F9071092FA071092FB071092FC0731
:104200001092FD07E0912744F091284409940C9402
:104210006C20052E97FB1EF400940E94202157FD70
:1042200007D00E946C2107FC03D04EF40C9420218F
:1042300050954095309521953F4F4F4F5F4F0895D2
:1042400090958095709561957F4F8F4F9F4F089502
:10425000A29FB001B39FC001A39F700D811D1124C7
:10426000911DB29F700D811D1124911D08950E9412
:104270002821A59F900DB49F900DA49F800D911DA6
:104280001124089597FB10F8169400080F93083036
:1042900098F00850232F342F452F562F672F782F53
:1042A000892F902DF4CF05949795879577956795ED
:1042B00057954795379527950A95AAF70F91089531
:1042C0000024A7FD00942A1730054005500560051D
:1042D0007005800590050895A1E21A2EAA1BBB1B4C
:1042E000FD010DC0AA1FBB1FEE1FFF1FA217B307C2
:1042F000E407F50720F0A21BB30BE40BF50B661FD8
:10430000771F881F991F1A9469F76095709580959B
:1043100090959B01AC01BD01CF0108958F929F92B2
:10432000AF92BF92CF92DF92EF92FF92CF93DF9343
:10433000EC01688179818A819B8161157105810514
:10434000910521F464E279ED8BE597E02DE133EFFF
:1043500041E050E00E94092149015A019B01AC0152
:10436000A7EAB1E40E9437216B017C01ACEEB4EF07
:10437000A50194010E943322DC01CB018C0D9D1D0F
:10438000AE1DBF1DB7FF03C00197A109B0488883C8
:104390009983AA83BB83BC01CD019F77DF91CF9125
:1043A000FF90EF90DF90CF90BF90AF909F908F9055
:1043B00008958F929F92AF92BF92CF92DF92EF9229
:1043C000FF92609100407091014080910240909175
:1043D0000340611571058105910521F464E279EDD1
:1043E0008BE597E02DE133EF41E050E00E94092199
:1043F00049015A019B01AC01A7EAB1E40E943721AF
:104400006B017C01ACEEB4EFA50194010E94332254
:10441000DC01CB018C0D9D1DAE1DBF1DB7FF03C080
:104420000197A109B0488093004090930140A09368
:104430000240B0930340BC01CD019F77FF90EF9005
:10444000DF90CF90BF90AF909F908F900895609332
:104450000040709301408093024090930340089580
:10446000B7FF0C9437210E943721821B930B0895CC
:04447000F894FFCFEE
:104474000100000001000200030004000500060022
:10448400070008000C007F441A40324436442F448D
:10449400000000000000071464461E1E00143200D1
:1044A400010202002F443840040004000004700399
:1044B400132D0082443A44684082444D401901015E
:1044C4001901011901011901011901011901011948
:1044D4000101190101500100090002000500140541
:1044E400140178400800500532417E4040444000A9
:1044F400230000000000000040000000000002054E
:10450400010440002300000000002000000000001F
:104514000000020501044000230000000000000028
:104524008000000000000205010440002300000098
:10453400000010000000000000000205010430002B
:10454400C000000000000000200000000000020580
:1045540001043000C0000000000000000100000061
:104564000000020501043000C0000000000040000B
:10457400000000000000020501043000C00000003B
:1045840000000000020000000000020501044000D9
:104594002300000000003000C000000000000005FF
:1045A400010409004030012B0940094C09CD0926BA
:1045B4000A970A310B260B3D0B330957095E09652F
:1045C4000975091B099109E50A7C09F0010101003B
:1045D40002000300040005000600070008000C00A8
:1045E40001FF02FF03FF04FF05FF06FF07FF08FFAB
:1045F4000C000000000000000000000000000000AB
:1046040000000000000000000000000000000000A6
:104614000000000000000000000000000000000096
:104624000000000000000000000000000000000086
:104634000000000000000000000000000000000076
:104644000000000000000000000000000000000066
:1046540000000000000010200000F0FFFFFF8F00AA
:104664000010208000F0FFFFFF9000001020208049
:10467400F0FFFFFF9000001080A090F0FFFFFFD03C
:10468400010012305020F2FFFFFF110000123050E1
:10469400A0F2FFFFFF13010110305020F0FFFFFFD5
:1046A400100000103050A0F0FFFFFF120101113282
:1046B4005220F1FFFFFF210000113252A0F1FFFF51
:1046C400FF23010110325220F0FFFFFF20000010F1
:1046D4003252A0F0FFFFFF22010118335320F8FFEC
:1046E400FFFF310000183353A0F8FFFFFF3301012F
:1046F40010335320F0FFFFFF300000103353A0F0BD
:10470400FFFFFF32010114315120F4FFFFFF41008C
:1047140000143151A0F4FFFFFF4301011031512077
:10472400F0FFFFFF400000103151A0F0FFFFFF42F7
:10473400010100010203010101010201020203015E
:10474400020307001300350090001F0F0703010048
:10475400042004400460048004A004C00400010296
:1047640003040506072021222324252627606162ED
:1047740063646566678081828384858687A0A1A23D
:0E478400A3A4A5A6A7C0C1C2C3C4C5C6C700D2
:00000001FF
