:100000000C9476000C9495000C9495000C94EB00E5
:100010000C9495000C9495000C9495000C9495000C
:100020000C9495000C9495000C9495000C949500FC
:100030000C9495000C9495000C9495000C949500EC
:100040000C9495000C943D110C9495000C94950023
:100050000C9495000C9495000C9495000C949500CC
:100060000C9495000C9495000C9495000C94F70A50
:100070000C9495000C9495000C9495000C949B00A6
:100080000C9495000C94C3000C9495000C9495006E
:100090000C9495000C9495000C9495000C9495008C
:1000A0000C9495000C9495000C9495000C9495007C
:1000B0000C9495000C9495000C9495000C9495006C
:1000C0000C9495000C9495000C9495000C9495005C
:1000D0000C9495000C9495000C9495000C9495004C
:1000E0000C9495000C9495000C94950011241FBE5F
:1000F000CFEFCDBFDFE7DEBF13E4A0E0B0E4E6E87A
:10010000FEE400E00BBF02C007900D92AE33B107D2
:10011000D9F725E4AEE3B3E401C01D92A93CB207D0
:10012000E1F70E94AC020C9441270C9400000E945D
:10013000E30D0C94D2081F920F920FB60F92112468
:100140000BB60F922F933F934F935F936F937F93D1
:100150008F939F93AF93BF93EF93FF930E94730886
:10016000FF91EF91BF91AF919F918F917F916F918F
:100170005F914F913F912F910F900BBE0F900FBE4B
:100180000F901F9018951F920F920FB60F92112487
:100190000BB60F922F933F934F935F936F937F9381
:1001A0008F939F93AF93BF93EF93FF930E94580851
:1001B000FF91EF91BF91AF919F918F917F916F913F
:1001C0005F914F913F912F910F900BBE0F900FBEFB
:1001D0000F901F9018951F920F920FB60F92112437
:1001E0000BB60F922F933F934F935F936F937F9331
:1001F0008F939F93AF93BF93EF93FF930E94C20A95
:100200000E94730382E080934301FF91EF91BF91BD
:10021000AF919F918F917F916F915F914F913F919E
:100220002F910F900BBE0F900FBE0F901F9018953F
:10023000CF93DF93CDB7DEB76297CDBFDEBF82E14C
:10024000EFE7F1E4DE01119601900D928A95E1F756
:1002500042E150E0BE016F5F7F4F80E690E00E9478
:1002600092118FE59AEE0197F1F700C000006296B7
:10027000CDBFDEBFDF91CF9108951F93CF93DF9362
:10028000CDB7DEB76297CDBFDEBF882309F446C085
:10029000182F82E1EFE7F1E4DE01119601900D9253
:1002A0008A95E1F742E150E0BE016F5F7F4F80E643
:1002B00090E00E9492118FE59AEE0197F1F700C04D
:1002C00000009FEF2EE984E2915020408040E1F74A
:1002D00000C0000082E1E1E9F1E4DE011196019045
:1002E0000D928A95E1F742E150E0BE016F5F7F4FCA
:1002F00080E690E00E9492118FE59AEE0197F1F767
:1003000000C000009FEF2EE984E291502040804021
:10031000E1F700C00000115009F0BBCF6296CDBFDD
:10032000DEBFDF91CF911F91089550E090E00E94D1
:1003300092118FE59AEE0197F1F700C00000089541
:1003400081E3EFE3F3E4DF011D928A95E9F7209161
:1003500071432223D1F0A2E7B3E4215030E0220F11
:10036000331F2C583C4B91E0EC9111968C911197D6
:1003700047E0E49FF0011124E15CFC4BE80FF11D24
:1003800090831296A217B30779F7E0910F448091FA
:100390001044B7E0EB02F0011124E15CFC4BE80FE4
:1003A000F11D87FDFA9581E0808380913E43909115
:1003B0003F4390FB80F99091464390FB81F99091E7
:1003C0004D4390FB82F99091544390FB83F99091B7
:1003D0005B4390FB84F99091624390FB85F9909187
:1003E000694390FB86F9809305409091404390FBD0
:1003F00080F99091474390FB81F990914E4390FB97
:1004000082F99091554390FB83F990915C4390FB66
:1004100084F99091634390FB85F990916A4390FB36
:1004200086F9809307409091414390FB80F9909129
:10043000484390FB81F990914F4390FB82F9909152
:10044000564390FB83F990915D4390FB84F9909122
:10045000644390FB85F990916B4390FB86F9809300
:1004600009409091424390FB80F99091494390FB61
:1004700081F99091504390FB82F99091574390FB02
:1004800083F990915E4390FB84F99091654390FBD2
:1004900085F990916C4390FB86F980930B40909185
:1004A000434390FB80F990914A4390FB81F99091EE
:1004B000514390FB82F99091584390FB83F99091BE
:1004C0005F4390FB84F99091664390FB85F990918E
:1004D0006D4390FB86F980930D409091444390FBCF
:1004E00080F990914B4390FB81F99091524390FB9E
:1004F00082F99091594390FB83F99091604390FB6E
:1005000084F99091674390FB85F990916E4390FB3D
:1005100086F980930F409091454390FB80F990912C
:100520004C4390FB81F99091534390FB82F9909159
:100530005A4390FB83F99091614390FB84F9909129
:10054000684390FB85F990916F4390FB86F9809307
:100550003E438093114008950E94970085E00E94D9
:100560003D010E941F0B11E0D2E0C3E004C0809166
:10057000814481FD75C00E94D409E0913740F0911B
:1005800038408181807F803109F47AC0803209F45B
:100590007DC0803309F480C0803409F48EC080911E
:1005A000804485FF0BC080917043813011F0109220
:1005B0007043809180448F7D8093804480918044FB
:1005C00086FF0AC08091704381111093704380911F
:1005D00080448F7B809380448091804483FF0BC054
:1005E00080917043833011F0D093704380918044A8
:1005F000877F809380448091804484FF0BC08091EA
:100600007043823011F0C0937043809180448F7E9C
:10061000809380440E94EB178091814482FD0CC03E
:100620008091804480FF04C08091804481FF4BC052
:100630008091804481FD36C08091814480FF97CFB6
:100640000E9418018091814484608093814480914C
:1006500081448E7F809381448091814481FF8BCF40
:1006600082E00E943D010E941F0B809181448D7F9A
:1006700080938144809181448B7F809381447BCFA0
:100680008091804480618093804489CF80918044B0
:1006900088608093804483CF80918044806280937F
:1006A00080447DCF82E00E943D010E941F0B80911B
:1006B00080448D7F80938044BFCF8091804480644C
:1006C000809380446CCF0E94B30B0E94A00142E152
:1006D00064E070E480E60E949501809180448E7F02
:1006E00080938044A5CF80917F4491E0980F9093B0
:1006F0007F44893138F080918044816080938044C8
:1007000010927F4408958091D543811135C181E0D5
:1007100090E00090024102C0880F991F0A94E2F70E
:1007200080932E4080917A4080932F4080916E403C
:100730008093304081E08093D54380918A458093B7
:10074000034480918945809302441092FE43809136
:100750008845882309F40EC182E08093FE4393E02C
:10076000E0915540F0915640208120FF982F8091D4
:10077000D443982B9093FE43805F8093D443E091C1
:100780003B40F0913C4020813181C9019295829596
:100790008F7089279F7089278093FF43E0913D40A8
:1007A000F0913E4080819181AC01529542954F700D
:1007B00045275F704527409300442295207F8F7026
:1007C000822B80930144E091A545F091A64581815B
:1007D00092818093E6439093E7432091A74530911F
:1007E000A8452093D6433093D7432817390708F0FC
:1007F000BFC0821B8093F643E091AB45F091AC45BE
:10080000818192818093E8439093E9432091AD45A3
:100810003091AE452093D8433093D94328173907F8
:1008200008F4CEC080E08093F743E091B145F091A9
:10083000B245818192818093EA439093EB4320916A
:10084000B3453091B4452093DA433093DB43281706
:10085000390708F034C1821B8093F843E091B74513
:10086000F091B845818192818093EC439093ED4360
:100870002091B9453091BA452093DC433093DD4354
:100880002817390708F019C1821B8093F943E091BA
:100890008D45F0918E45818192818093EE439093B6
:1008A000EF4320918F45309190452093DE43309364
:1008B000DF432817390708F00AC1821B8093FA43E7
:1008C000E0919345F0919445818192818093F0432A
:1008D0009093F14320919545309196452093E043C4
:1008E0003093E1432817390708F0EFC0821B80934B
:1008F000FB43E0919945F0919A45818192818093E3
:10090000F2439093F34320919B4530919C45209373
:10091000E2433093E3432817390708F0D4C0821B21
:100920008093FC43E0919F45F091A04581819281A5
:100930008093F4439093F5432091A1453091A245D3
:100940002093E4433093E5432817390708F0B9C0F2
:10095000821B8093FD4380911A4080FF07C00E9454
:10096000D20880911A408E7F80931A400C94F5052E
:1009700080E040CF91E0F4CE80910444882309F4D4
:10098000DCCE80912E40482F50E021E030E00090F6
:10099000024102C0220F331F0A94E2F733274217A5
:1009A000530781F187FD0EC086FD93C085FD93C07E
:1009B00084FD93C083FD93C082FF93C095E003C084
:1009C000821B31CF90E087E0891B873008F086E0FA
:1009D00091E0082E01C0990F0A94EAF790932E40F7
:1009E000809302418093164180932A4180933E4137
:1009F0008093B2408093C6408093DA408093EE406B
:100A00000E94D20880912F4090917A40891741F03E
:100A100080937A4080937D40809380408093834090
:100A20008091304090916E40891741F080936E40E4
:100A300080937140809374408093774080913540DB
:100A4000E0915740F09158409681292F22952F70C0
:100A5000821729F09F708295807F892B8683E09191
:100A60003940F0913A4080911E40858780911F4027
:100A7000868780912040878780912140808B80915C
:100A80002240818B80912340828B80912440838BF4
:100A900080912540848B80912640858B80912740D2
:100AA000868B80912840878B80912940808F809110
:100AB0002A40818F1092044440CE80E0E6CE80E050
:100AC000CBCE80E046CF80E02BCF80E010CF80E01F
:100AD000F5CE91E078CF92E076CF93E074CF94E0BA
:100AE00072CF81FD04C080FF70CF97E06CCF96E09D
:100AF0006ACF883038F190EF980F9630E8F090EE9A
:100B0000980F9A3058F199EC980F9E3008F194E7BD
:100B1000980F983048F19DE5980F903158F5E92FDE
:100B2000E695F0E0EE0FFF1FEA51FC4B208181813A
:100B300090FD2FC0822F0895E82FF0E0E251FC4B8A
:100B400080810895E82FF0E0EA5EFF4B80810895F0
:100B5000E82FF0E0E951F04C80810895E82FF0E0B3
:100B6000E45FFF4B80810895E82FF0E0E659FC4BED
:100B700080810895EFE2E80FE03170F4AE2FA69582
:100B8000B0E0AA0FBB1FAA52BC4B9C9111968C914E
:100B9000E0FD0895892F089580E008958430E1F004
:100BA0009EED980F983050F4E82FF0E0E45FFF4B93
:100BB000608381E08093044480E0089599EC980F6D
:100BC0009E3088F4E82FF0E0E951F04C608381E03A
:100BD0008093044480E0089560931A4081E08093FC
:100BE000044480E0089581E00895EF92FF920F930E
:100BF0001F93CF9380910545882309F445C08091C8
:100C00003640813031F0CF911F910F91FF90EF90DE
:100C10000895809104458111F6CF0BE015E4C0E101
:100C20008C2F0E947905F80181938F01CF5FC63127
:100C3000B9F708E115E488E2E82E85E4F82EC3EA66
:100C40008C2F0E947905F80181938F01CF5FEE16FA
:100C5000FF06B1F70FE215E4CCE88C2F0E9479056E
:100C6000F80181938F01CF5FC439B9F78091844433
:100C7000813019F081E080930644CF911F910F914C
:100C8000FF90EF900C94EB172DEA209305458AE036
:100C9000809306451092074581E0809308451092A5
:100CA000094590E190930A459AED90931145209360
:100CB000124534E1309313458093144580931545D4
:100CC0001092164533EA30931745909328452093A8
:100CD00029452CE020932A4525E020932B4580933D
:100CE0002C4510922D458CE880932E4590933745E6
:100CF00086CF1F93CF93DF9380910644813009F410
:100D0000BDC080918244E0919F448E1708F4B2C028
:100D1000982F9E1B953008F4A9C0AE2FB0E0A557C0
:100D2000BB4B9C91EF5FE43109F4B7C0E0939F4463
:100D30009D3A09F09BC0909184449111B2C08E17E6
:100D400008F48C5E8E1B843008F490C0AE2FB0E0A7
:100D5000A557BB4B1C91A1E0AE0FA43109F46FC1A4
:100D6000B0E0A557BB4B8C91A2E0AE0FA43109F4C3
:100D700075C1ED5F80938644B0E0A557BB4BCC9125
:100D8000E43109F066C1D0918B4491E090938444A2
:100D90001092824410929F44803809F465C08138D3
:100DA00009F487C0813009F4E6C081115DC08091EB
:100DB00004458130E1F3109236406D2F8C2F0E9454
:100DC000CE0510928A4486E08093054481E08093AA
:100DD00004458DEA80932208809104458130E1F337
:100DE00081E08093044585E080932208809104454A
:100DF0008130E1F381E080930445109322088091D3
:100E000004458130E1F381E080930445809322081A
:100E1000809104458130E1F381E080930445109294
:100E20002208809104458130E1F381E080930445FC
:100E3000C0932208809104458130E1F381E08093E2
:100E40000445D0932208809104458130E1F381E08C
:100E5000809304458AED8093220880910445813077
:100E6000E1F381E08093364010928444DF91CF918A
:100E70001F91089594E1980F9E1B4CCF1092064449
:100E80009091044591113DCF809304458093834414
:100E9000809105458093220834CF10929F44E0E072
:100EA00047CF913019F780918644D0E0C0E010E040
:100EB0006FCF809104458130E1F31092364010925B
:100EC0008A4485E08D0F8093054481E0809304453A
:100ED0008DEA80932208809104458130E1F381E01E
:100EE0008093044584E08D0F80932208809104450F
:100EF0008130E1F381E080930445109322088091D2
:100F000004458130E1F381E0809304458093220819
:100F1000809104458130E1F381E080930445109293
:100F20002208809104458130E1F381E080930445FB
:100F3000C0932208809104458130E1F3DD2381F0E4
:100F4000DC0F11E08C2F0E947905109304458093EB
:100F50002208809104458130E1F3CF5FCD13F2CFB9
:100F600081E0809304458AED8093220880910445B6
:100F70008130E1F376CF809104458130E1F3109226
:100F8000364010928A4485E08D0F8093054481E0BD
:100F9000809304458DEA8093220880910445813036
:100FA000E1F381E08093044584E08D0F8093220873
:100FB000809104458130E1F381E0809304451093F2
:100FC0002208809104458130E1F381E0809304455B
:100FD00080932208809104458130E1F381E0809381
:100FE000044510922208809104458130E1F381E0AC
:100FF00080930445C0932208809104458130E1F339
:10100000CC2381F1DD2381F0DC0F11E08C2F0E94D5
:10101000790510930445809322088091044581301E
:10102000E1F3CF5FCD13F2CF81E0809304458AEDE9
:1010300080932208809104458130E1F312CF8091A2
:101040008B44E2E0A1E0B0E080938644A557BB4B1F
:10105000CC91F0E0E557FB4BD08197CEE1E0A0E0EA
:10106000B0E0F2CF81E08093044510922208809195
:1010700004458130E1F381E0809304451092220819
:10108000809104458130E1F381E080930445109222
:101090002208809104458130E1F381E0809304458A
:1010A00080E580932208809104458130E1F3BCCF34
:1010B0008091240880648093240880913640813098
:1010C00019F0109204450895809183448333C8F742
:1010D000E82FF0E0EB5FFA4B9081909322088F5F4E
:1010E0008093834408958091824490912008E82F52
:1010F000F0E0E557FB4B90838F5F843119F08093CC
:101100008244089510928244089581E080930D44B2
:1011100008958091074490910844449709F441C090
:1011200010922D0210921102809141018111FCCF89
:1011300080E880934001809151018111FCCF109291
:10114000500184E190E0809307449093084480919B
:10115000410182FDFCCF84E190E080934A019093AD
:101160004B01809142018260809342018091410154
:1011700081FDFCCF109248011092490180914101FC
:101180008111FCCF81E88093400181E080930E447F
:101190001092094410920A448091814482608093A5
:1011A000814408950F931F93CF938091410182FD55
:1011B000FCCF84E190E080934A0190934B018091B1
:1011C00042018260809342018091410181FDFCCF08
:1011D000109248011092490180917504877F809395
:1011E000750480917504887F846080937504809174
:1011F0007004877F8093700480917004887F84607E
:101200008093700480911604877F809316048091E8
:101210001604887F84608093160480917104877F10
:101220008093710480917104887F8460809371043D
:1012300080917604877F8093760480917604887FFE
:1012400084608093760480911504877F80931504D1
:1012500080911504887F84608093150480917704C1
:10126000877F8093770480917704887F8460809360
:10127000770480911404877F809314048091140470
:10128000887F84608093140480919204877F809388
:10129000920480919204887F84608093920480916C
:1012A0009304877F8093930480919304887F846064
:1012B000809393048091B404877F8093B4048091D9
:1012C000B404887F84608093B4048091B504877FE0
:1012D0008093B5048091B504887F84608093B504C1
:1012E00010922D0210921102809141018111FCCFC8
:1012F00080E880934001809151018111FCCF1092D0
:10130000500184E190E080930744909308448091D9
:10131000410182FDFCCF84E190E080934A019093EB
:101320004B01809142018260809342018091410192
:1013300081FDFCCF1092480110924901C0914101FA
:10134000C111FCCF81E88093400189E990E40E94BB
:101350004D2386E795E40E94042400E010E0B801E4
:1013600089E990E40E947E24B80189E990E40E9412
:101370009D240F5F1F4F0930110589F709E415E41B
:10138000A8016C2F86E690E40E946012CF5F0B5F8D
:101390001F4FC930A9F785E590E40E94591FCF91EE
:1013A0001F910F910C94F017CF9380910E448130D0
:1013B00009F466C0C0910D44C13019F0CF910C946E
:1013C000790610920D440E94F420882309F4B9C0D4
:1013D000C0930B44E0916640F0916740808187FDA7
:1013E000CDC081E080930C448091434580FF53C081
:1013F0001092094410920A44809107449091084445
:101400004497B9F10E94662510922D0210921102A4
:10141000809141018111FCCF80E88093400180914F
:1014200051018111FCCF1092500184E190E0809332
:101430000744909308448091410182FDFCCF84E1F0
:1014400090E080934A0190934B0180914201826029
:10145000809342018091410181FDFCCF10924801AF
:1014600010924901809141018111FCCF81E8809364
:101470004001F8940E9483037894CF910C947906EC
:1014800065E878E089E990E40E940E24811192CF0A
:1014900010920E448FCF8091094490910A4480327B
:1014A0009E4408F4A9CF69E878E083E990E40E94BB
:1014B000DE24209107443091084420323E44C9F292
:1014C0008111D7CF8BE08093110282E080932D02AF
:1014D000809141018111FCCF80E88093400180918F
:1014E00051018111FCCF85E18093500180E29EE49F
:1014F00080930744909308448091410182FDFCCF82
:1015000080E29EE480934A0190934B0180914201D6
:101510008260809342018091410181FDFCCF109255
:10152000480110924901809141018111FCCF81E86D
:1015300080934001809181448160809381448895AB
:1015400098CF86E690E40E947F12882319F082E00B
:1015500080930B4485E590E40E94D01C882319F009
:1015600083E080930B4487E390E40E941318882360
:1015700009F430CF84E080930B442CCF81E080933A
:101580000E4477CF81E080930E4480910744909180
:1015900008440E9455122091074430910844ADEC54
:1015A000BCEC0E94312696958795969587959695E1
:1015B00087950E9406182091074430910844809135
:1015C000094490910A44A9014095509584179507C4
:1015D00038F08FEF9FEF8093094490930A44089569
:1015E000820F931F8093094490930A4408951F9299
:1015F0000F920FB60F9211240BB60F922F933F93B9
:101600004F935F936F937F938F939F93AF93BF930A
:10161000EF93FF930E94BB25FF91EF91BF91AF9194
:101620009F918F917F916F915F914F913F912F91FA
:101630000F900BBE0F900FBE0F901F9018958F92BA
:101640009F92AF92BF92CF92DF92EF92FF92CF9391
:10165000DF9384E6E3EAF1E4A0E7B3E401900D92BE
:101660008A95E1F782E0809370438093714383E031
:1016700080937243809373438093744384E0809398
:101680007543809180448B7F80938044C0917F44D8
:101690000E94E2269B01AC01AC2FB0E00E944026E4
:1016A0000E94302797E0C92ED12CE12CF12C80919B
:1016B000804482FD46C00E94E2260E94E2266F5FBF
:1016C0007F4F8F4F9F4FA70196010E941226EB017B
:1016D0000E94E2260E94E2266F5F7F4F8F4F9F4F4E
:1016E000A70196010E9412264B015C01C0930F4492
:1016F0006093104480918044846080938044209162
:1017000071432223A1F2AE01E2E7F3E4215030E07D
:10171000220F331F2C583C4B04C032962E173F0724
:1017200031F2808190E084179507B9F7818190E0CC
:101730008815990591F7809180448B7F8093804430
:10174000ECCF0E94A00142E164E070E480E6DF910A
:10175000CF91FF90EF90DF90CF90BF90AF909F9090
:101760008F900C9495018F929F92AF92BF92CF92DF
:10177000DF92EF92FF92CF93DF938091704381309D
:1017800009F48CC008F484C0833009F444C070911B
:101790007243C0917343C15077FD44C077300CF061
:1017A00070E0C7FD42C0C7300CF0C0E060917143EB
:1017B000662309F457C0472F072E000C550BE2E7AC
:1017C000F3E42FEF260F30E0220F331F2C583C4B51
:1017D000AC2F0C2E000CBB0B04C032962E173F070B
:1017E00031F1808190E084179507B9F7818190E00D
:1017F000A817B90791F78091804482608093804454
:10180000DF91CF91FF90EF90DF90CF90BF90AF909E
:101810009F908F90089570917243C0917343CF5FF2
:1018200077FFBCCF76E0C7FFBECFC6E0BFCF6F3239
:1018300010F7262F822F90E0DC01AA0FBB1FA059C2
:10184000BC4B3C91FC01EE0FFF1FEE58FC4B30836C
:10185000880F991FFC01E259FC4B838113968C93EE
:10186000215041F770937243C093734380910F44AA
:101870007817D1F070E0FB01EE0FFF1FEE58FC4B24
:101880001082660F771FFB01E059FC4B1382B8CF23
:10189000709172437F5FC09173437ECF70917243AA
:1018A0007150C091734378CF80911044C813E2CF38
:1018B0006F5F60937143809180448B7F80938044FD
:1018C000C0917F440E94E2269B01AC01AC2FB0E0A6
:1018D0000E9440260E94302777E0C72ED12CE12CB1
:1018E000F12C8091804482FD8BCF0E94E2260E94E1
:1018F000E2266F5F7F4F8F4F9F4FA70196010E9497
:101900001226EB010E94E2260E94E2266F5F7F4FC3
:101910008F4F9F4FA70196010E9412264B015C0139
:10192000C0930F44609310448091804484608093FE
:101930008044209171432223A1F2AE01E2E7F3E457
:10194000215030E0220F331F2C583C4B04C03296FC
:10195000E217F30731F2808190E084179507B9F719
:10196000818190E08815990591F7809180448B7F63
:1019700080938044ECCF1092890080E0089544E287
:1019800068ED88E690E00E94C81180E008957894A0
:1019900080E00895E0E1F4E0808188608083E1E107
:1019A000F4E0808188608083E2E1F4E080818860F7
:1019B0008083E3E1F4E0808188608083E4E1F4E007
:1019C000808188608083E5E1F4E0808188608083A5
:1019D000E6E1F4E0808188608083E7E1F4E08081E3
:1019E00088608083E0E3F4E0808188608083E1E3C5
:1019F000F4E0808188608083E2E3F4E080818860A5
:101A00008083E3E3F4E0808188608083E4E3F4E0B2
:101A1000808188608083E5E3F4E080818860808352
:101A2000E6E3F4E0808188608083E7E3F4E080818E
:101A300088608083E0E5F4E0808188608083E1E570
:101A4000F4E0808188608083E2E5F4E08081886052
:101A50008083E3E5F4E0808188608083E4E5F4E05E
:101A6000808188608083E5E5F4E080818860808300
:101A7000E6E5F4E0808188608083E7E5F4E080813A
:101A800088608083E0E7F4E0808188608083E1E71C
:101A9000F4E0808188608083E2E7F4E08081886000
:101AA0008083E3E7F4E0808188608083E4E7F4E00A
:101AB000808188608083E5E7F4E0808188608083AE
:101AC000E6E7F4E0808188608083E7E7F4E08081E6
:101AD00088608083E0E9F4E0808188608083E1E9C8
:101AE000F4E0808188608083E2E9F4E080818860AE
:101AF0008083E3E9F4E0808188608083E4E9F4E0B6
:101B0000808188608083E5E9F4E08081886080835B
:101B1000E6E9F4E0808188608083E7E9F4E0808191
:101B200088608083E0EBF4E0808188608083E1EB73
:101B3000F4E0808188608083E2EBF4E0808188605B
:101B40008083E3EBF4E0808188608083E4EBF4E061
:101B5000808188608083E5EBF4E080818860808309
:101B6000E6EBF4E0808188608083E7EBF4E080813D
:101B700088608083E0EDF4E0808188608083E1ED1F
:101B8000F4E0808188608083E2EDF4E08081886009
:101B90008083E3EDF4E0808188608083E4EDF4E00D
:101BA000808188608083E5EDF4E0808188608083B7
:101BB000E6EDF4E0808188608083E7EDF4E08081E9
:101BC0008860808308950E94CA0C0E94BF0C4198CF
:101BD000E1E5F4E08081877F8083409A48980E9405
:101BE000E1110E94DC110E94C70C439A4B98E3E577
:101BF000F4E08081877F808380818F7780838081FC
:101C0000887F8083A0EEB5E015968C911597826051
:101C100015968C931597429A4A98E2E5F4E08081F4
:101C2000877F808380818F7780838081887F808396
:101C300015968C911597826015968C930E9468106A
:101C40000E94BB0C0C94CD11E0E0F9E08481886027
:101C50008483858181608583E1E1F4E480818E7FE6
:101C6000808313868EE00895E1E1F4E480818E7F25
:101C70008083138680E00895E0E0F9E0848183604A
:101C80008483E1E1F4E480818E7F8083138680E0A9
:101C90000895E1E1F4E48081886080838181880F88
:101CA00081608093070984E00895E1E1F4E4808194
:101CB000886080838181880F8093070983E008957D
:101CC000E0E0F9E084818B7F848384E00895E0E0A4
:101CD000F9E084818B7F848383E00895E0E0F9E07C
:101CE000848184608483848183608483E1E1F4E47B
:101CF00080818E7F8083138680E00895E0E0F9E0A4
:101D000084818460848388E00895E0E0F9E0848140
:101D100088608483858181608583E1E1F4E480814A
:101D20008E7F808382E083878EE0089581E008952E
:101D300085E0089580911144877F8093114482E06B
:101D400080931C44E0912144F091224480912D44E1
:101D500090912E4409958230E1F0833061F48091B6
:101D6000114488608093114480911244880F8093BD
:101D7000070983E008958091040983608093040932
:101D8000809111448E7F8093114410921C4480E016
:101D90000895809111448860809311448091124489
:101DA000880F81608093070984E008958091050978
:101DB00084FD21C080911144877F80931144E0917C
:101DC0001344F0911444CF010196809313449093EF
:101DD00014448081809308098091154490911644A1
:101DE00001978093154490931644892B11F083E05A
:101DF000089585E00895E0912344F0912444809172
:101E00002F44909130440995823071F08330C9F4A9
:101E10008091114488608093114480911244880F0E
:101E20008093070983E0089580911144886080932E
:101E3000114480911244880F81608093070984E0E7
:101E4000089580910409836080930409809111446E
:101E50008E7F8093114410921C4480E008958091FD
:101E60001144877F809311448091154490911644CA
:101E70008130910509F1209104092B7F20930409F9
:101E800001978093154490931644E0911344F09188
:101E900014448091080980838091134490911444E4
:101EA00001968093134490931444809104098260B6
:101EB0008093040984E008958091040984608093EC
:101EC00004091092154410921644E0911344F091C5
:101ED00014448091080980838091134490911444A4
:101EE000019680931344909314448091114484602C
:101EF00080931144E0911D44F0911E448091294447
:101F000090912A4409958250823038F480910409D6
:101F100084608093040988E00895809104098460B6
:101F2000809304098091040983608093040980915F
:101F300011448E7F8093114410921C4480E00895D8
:101F40008091050984FF19C0E0912344F091244455
:101F500080912F44909130440995823081F18330F3
:101F600001F580911144886080931144809112445E
:101F7000880F8093070983E008958091114484605D
:101F800080931144E0911D44F0911E4480912944B6
:101F900090912A440995833021F38430E9F082300E
:101FA00071F0809104098360809304098091114449
:101FB0008E7F8093114410921C4480E0089580919C
:101FC000114488608093114480911244880F81608D
:101FD0008093070984E008950C94D60E809105093A
:101FE00088608093050982E080931C44E0911F443F
:101FF000F091204480912B4490912C44099582309B
:1020000009F1833061F48091114488608093114418
:1020100080911244880F8093070983E0089580918E
:102020000409886080930409809105098160809388
:102030000509809111448E7F8093114410921C44B5
:102040008EE00895809111448860809311448091BE
:102050001244880F81608093070984E00895E1E1CC
:10206000F4E48081886080838181880F80930709F0
:1020700083E00895E1E1F4E48081886080838181D8
:10208000880F81608093070984E00895E1E1F4E41A
:102090008081886080838181880F816080930709B7
:1020A00084E00895009749F080932144909322445E
:1020B00060932D4470932E44089586E99EE08093AA
:1020C00021449093224410922D4410922E4408955E
:1020D000E0E0F9E083E7868381EC838308959091C3
:1020E000114491FD52C080931244947F8EE08093FE
:1020F0001B4424EF31E02093194430931A4492603A
:1021000094609093114486E99EE080931D449093DF
:102110001E441092294410922A4480931F449093A5
:10212000204410922B4410922C448093214490938D
:10213000224410922D4410922E4480932344909375
:10214000244410922F441092304488E99EE08093FA
:102150002544909326441092314410923244809149
:102160000409886080930409809105098160809347
:10217000050980910509806C809305098091030908
:10218000806C8093030980E0089581E00895809138
:10219000050982FF08C0809111448E7F809311440D
:1021A00082E080931C448091114480FD13C08D7F98
:1021B000809311448FEF8093124480910509806CC5
:1021C00080930509809103098F738093030980919F
:1021D0001C44089581E008959C019091114492FF60
:1021E0000BC02093134430931444609315447093B0
:1021F00016449B7F9093114408958091114480FF71
:1022000002C081E0089581608093114482E0809350
:102210001B4480910509806C8093050980911144CD
:1022200083FF07C08091050984FF03C08FE080937E
:102230001B448091050983FD15C08091050982FF2B
:1022400018C081E180931B44E1E1F0E0EE0FFF1F35
:10225000E85AFE4B0190F081E02D099580931B44D4
:1022600080E0089580E180931B448091050982FD00
:10227000E8CFE0911B44F0E0E9CF1F920F920FB638
:102280000F9211240BB60F922F933F934F935F93AE
:102290006F937F938F939F93AF93BF93EF93FF932E
:1022A00080910509806C809305098091114483FF1A
:1022B00004C08091050984FD2DC08091050983FF2C
:1022C00003C080E180931B448091050982FF26C0F2
:1022D00081E180931B44E1E1F0E0EE0FFF1FE85A3B
:1022E000FE4B0190F081E02D099580931B44FF91F6
:1022F000EF91BF91AF919F918F917F916F915F917E
:102300004F913F912F910F900BBE0F900FBE0F90EA
:102310001F9018958FE080931B44CFCFE0911B4412
:10232000F0E0DBCFCF92DF92EF92FF921F93CF933B
:10233000DF93182F7B016A01C0E1D7E202C0219729
:10234000D9F0812F0E946F108130C9F3B601C70107
:102350000E94EC1060E070E086EC91E10E94521067
:102360000E94FD10C0E1D7E202C0219769F00E94EF
:10237000C7108130D1F380E0DF91CF911F91FF90A2
:10238000EF90DF90CF90089582E0F6CF83E008953C
:102390001BBEFC0164BF40830895809141018111FF
:1023A000FCCF81E88093400181E08093470182E087
:1023B0008093420180E0089583E08093500080E0A4
:1023C0000895E0E2F8E081E493E08087918780EC73
:1023D0008583868380E00895CF92DF92FF920F93EA
:1023E0001F93CF93DF93EC01AE81BF81EB01CC0F44
:1023F000DD1FC60FD71FCA0FDB1FFA80FC01448107
:102400005581E6E0E69F9001E79F300D11248A0197
:10241000020F131FF80122813381F90121813281DA
:10242000F80104811581201B310BE8812E1B310935
:10243000EC01EA81FB8100811181FA0140E050E06A
:102440004017510739F146175707F9F012968C914A
:102450001297F8121AC0808185588230E8F0C48043
:10246000D58082819381EC0189819A81C816D90631
:1024700060F48C199D09CC91D0E0C817D90728F4D5
:102480008C1B9D0B2817390738F04F5F5F4F139651
:102490003696D6CF80E001C081E0DF91CF911F91C9
:1024A0000F91FF90DF90CF900895209135443091A7
:1024B0003644820F931F8093354490933644089599
:1024C0000097D9F041155105C1F026E0629FB00197
:1024D0001124DC011496ED91FC911597E60FF71F7E
:1024E00021E0208314968D919C911597FC01E60FB5
:1024F000F71F4283538380E008958BE008952F9265
:102500003F924F925F926F927F928F929F92AF9283
:10251000BF92CF92DF92EF92FF920F931F93CF93D0
:10252000DF93009709F47DC3EC01A12CB12C812C21
:10253000912C212CD12C33E0C32E45E8642E56E893
:10254000752E67E0362E72E0472EE8E05E2EEA81B7
:10255000FB81808191818816990608F0A5C17501DB
:10256000EE0CFF1C0C811D810E0D1F1DD8018C91DE
:10257000843009F4A2C038F4823001F108F049C077
:10258000813059F08AC1853809F4C2C0863809F40F
:10259000F6C0873009F081C137C1D8011296ED919C
:1025A000FC91139780818E7109F069C14C928C81E6
:1025B0009D81FC01EE0DFF1D518261C1F801218159
:1025C000222329F10280F381E02D253020F0818142
:1025D0009281D8010EC0D80114968D919C911597C7
:1025E000418152818417950769F04817590730F4E3
:1025F000019714968D939C93159704C00196F8014A
:10260000848395832150D80111962C9338C1F80109
:1026100031C1D80114962D913C91159712968D9148
:102620009C911397DC0111964D915C9112972417A0
:10263000350709F432C18E819F8142175307E0F4B8
:10264000241B350BDC01AA0DBB1D8C9190E005808D
:1026500002C0959587950A94E2F7992728173907BC
:1026600008F41BC18481882309F417C1F801308262
:10267000EA81FB8124811AC0FC01EA0DFB1D421B8B
:10268000530B808190E04817590708F406C18281F6
:10269000882331F0B401CE010E94EC118111FDC0FC
:1026A000E4E0D801EC93EA81FB8122818C819D8159
:1026B000FC01EE0DFF1D2183E2C0D80114962D917F
:1026C0003C9115971296ED91FC911397818192811F
:1026D0008217930708F4D7C0EE81FF81EA0DFB1D36
:1026E000821B930B208130E02817390708F0AFC018
:1026F0008281882331F0B401CE010E94EC11811156
:10270000CCC0F8018181882309F467C08150B6C02C
:10271000A881B981808513968C93EC81FD81EE0DA3
:10272000FF1D44815581A281B38111968D919C91A9
:10273000129784179507C0F0AE81BF81AA0DBB1D0B
:102740006C91262F30E011967C917F5F02C0359509
:1027500027957A95E2F7841B950B621B262F30E0B4
:102760002817390708F497C07082EA81FB8122811B
:102770008C819D81FC01EE0DFF1D218342C0D8019B
:1027800014966D917C9115971296ED91FC9113978B
:10279000218132812617370758F411968C911197B1
:1027A000811102C0CC9277C08150F801818373C03F
:1027B000EE81FF81EA0DFB1D8081482F50E0918161
:1027C0009F5F02C0559547959A95E2F7261B370BF8
:1027D000841B90E08217930760F4D8016C92EA8121
:1027E000FB8123818C819D81FC01EE0DFF1D2183E6
:1027F00052C0F8018181811102C0C0824CC0815059
:102800008183222423943BC0D80114962D913C91BE
:10281000159712968D919C911397DC0111968D91CD
:102820009C9112978217930768F5281B390BAE818C
:10283000BF81AA0DBB1D8C9190E0058002C09595CB
:1028400087950A94E2F799272817390718F4F801B1
:10285000C0821AC0D80111968C91119781110CC0B9
:1028600081E08C938C819D81FC01EE0DFF1D028027
:10287000F381E02DC08211C08150F8018183DD24F5
:10288000D3940BC0D801CC928C819D81FC01EE0DBC
:10289000FF1D118202C022242394BFEF8B1A9B0AD2
:1028A000E3E0AE0EB11C53CEE881F981808187FF51
:1028B00023C040E050E020E030E0EA81FB818081ED
:1028C00091812817390798F4EC81FD81E40FF51FF9
:1028D000A281B3818C9180FD05C09081977F11F01A
:1028E00081608C932F5F3F4F4A5F5F4FE6CFE88157
:1028F000F98180818F778083D11007C0E881F981C9
:1029000021106FC080818E7F6EC0EA81FB8181853E
:102910008823A1F3E881F981808180688083EA813E
:10292000FB818185813051F740E050E020E030E0CC
:1029300096E0D92EEA81FB816081718126173707E5
:10294000E8F60C811D81FA01EE0FFF1FE00FF11F69
:102950008081982F977FA1F1853811F08330B1F5F0
:10296000EE80FF80D701A40FB51F1296BC90BB204C
:1029700039F180E090E0C12C86179707F8F428170A
:102980003907D1F0D89ED001D99EB00D1124A00FE7
:10299000B11FAC91A43011F0A63871F4DC01AA0F7C
:1029A000BB1FA80FB91FAE0DBF1D1296AC91BA1276
:1029B00003C0CB01CC24C3940196DECFC11006C066
:1029C0000280F381E02D80818E7F05C00280F3813B
:1029D000E02D8081816080832F5F3F4F4D5F5F4F8F
:1029E000A9CF808181608083809135449091364465
:1029F000E881F98121813281A90148535F4F48174D
:102A0000590738F4821B930BAA24A394A3E0BA2E8F
:102A100044C08217930710F080E004C1821B930B1F
:102A20000197893C9105C0F3EFCF885C9109E8815B
:102A3000F9812181328128533F4F218332832381C1
:102A4000211196C02481222311F021502483E88192
:102A5000F9812581222311F0215025838A809B80D2
:102A6000D40116962C91169721111BC08A809B8049
:102A7000F4012781211148C0EA81FB8123812223AF
:102A800061F020E030E0A0E0B0E0EA81FB8140812D
:102A90005181A417B50708F46EC0893C910528F64A
:102AA000BBCF08811981F80124812111DFCFED907E
:102AB000FC9060E070E040E050E04E155F05F1F002
:102AC000EC81FD81E60FF71F2081233011F02830C3
:102AD00081F424813581C280D380D6011196CD90B6
:102AE000DC9012972C153D0520F42F5F3F4F248377
:102AF00035834F5F5F4F6A5F7F4FDFCFF4012681E1
:102B0000D80114962C93B2CF08811981D80115965B
:102B10002C912111B1CFE080F18060E070E040E0C5
:102B200050E04E155F05F1F0EC81FD81E60FF71FD7
:102B30002081233011F0283081F424813581C28036
:102B4000D380D6011196CD90DC901297C216D30691
:102B500020F421503109248335834F5F5F4F6A5F32
:102B60007F4FDFCFF4012781D80115962C9384CFB6
:102B70002150238381CFA901440F551FEC81FD8192
:102B8000E40FF51F6081653809F047C06181662355
:102B900019F06150618341C0A0826C817D81FB018D
:102BA000E40FF51F0280F381E02DB082EE81FF81FA
:102BB000E20FF31FD280DD2081F140E050E000E021
:102BC00010E0EA81FB81608171810617170728F503
:102BD000EE81FF81E40FF51F6281D61219C0BA01A0
:102BE000660F771FEC81FD814F01860E971EF40161
:102BF000E280F380F701F080F0FE0AC0F401A082C9
:102C0000EC81FD81E60FF71F0280F381E02DB08299
:102C10000F5F1F4F4D5F5F4FD4CF11962D5F3F4F1A
:102C200034CF8BE0DF91CF911F910F91FF90EF9008
:102C3000DF90CF90BF90AF909F908F907F906F90DC
:102C40005F904F903F902F9008952091674430916E
:102C500068448091634490916444281B390B8091AF
:102C6000694490916A444091654450916644841B44
:102C7000950BB90137FF04C066277727621B730BDA
:102C8000AC0197FF04C044275527481B590B641714
:102C900075072CF0121613063CF080E00895181604
:102CA000190624F083E0089582E0089581E00895F4
:102CB0004F925F926F927F928F929F92AF92BF924C
:102CC000CF92DF92EF92FF92C82ED12CE12CF12C03
:102CD00090915D449430B8F0915090935D44409150
:102CE000594450915A4460915B4470915C44452F23
:102CF000562F672F77274093594450935A44609337
:102D00005B4470935C4440915D44942F990F990FFC
:102D1000990F04C0CC0CDD1CEE1CFF1C9A95D2F759
:102D20008090594490905A44A0905B44B0905C4489
:102D3000C828D928EA28FB28C0925944D0925A447E
:102D4000E0925B44F0925C4490914C44903F09F4D3
:102D500040C0E7E0F2E420E030E080809180A28093
:102D6000B3808C249D24AE24BF244480558066808B
:102D7000778084209520A620B72089288A288B2850
:102D800011F55BE0529FF001539FF00D1124E95FB4
:102D9000FD4B9085AEE4B4E401900D925A95E1F7B5
:102DA000903931F490915E44992399F0906908C06C
:102DB0009F3831F490915E449F5F90935E4409C0C8
:102DC00090934C4406C02F5F3F4F3B962431310512
:102DD00021F6909148449111E7C0982F907F90354B
:102DE00009F0C6C0582F537020917D4190913B440B
:102DF000222361F091110AC0E091C345F091C445CE
:102E0000978990933A4410927D4102C091113AC043
:102E1000E52FF0E090917C41292F30E0B9016F5F00
:102E20007F4F63707727E617F70721F490913944B5
:102E30009F5F0AC02150310923703327E217F3073F
:102E400041F4909139449150909339441092384410
:102E500003C05913109239446091394420913A4487
:102E6000621302C091E00CC0062E000C770B3327D2
:102E700021950CF430956217730709F076C09FEF27
:102E800090933B4460913B44613019F06F3F09F0EF
:102E90006CC02FEF3FEF2093C1453093C245909116
:102EA0007C41E091C345F091C445591749F0A52FE5
:102EB000B0E0262F290F237030E0A217B307C9F422
:102EC00020913844613029F436892317ECF42F5FC0
:102ED0000DC06689772761950CF47095A22F022E9C
:102EE000000CBB0B6A177B077CF4215020933844FD
:102EF0000BC010923B4410923944208D20933A44E9
:102F00001092C1451092C24526896091384426131B
:102F100007C020EF20934C44209137442F5F10C00E
:102F2000062E000C770B332721950CF43095621791
:102F30007307D9F421EF20934C442091374421505A
:102F40002F7020933744990F990F91602295207F1D
:102F5000292B91E030913B4413160CF090E0990F2F
:102F6000292B20934B441092384450937C411CC031
:102F7000282F2F77203299F410923B441092394435
:102F80001092384490914C449E7F903F11F41092DF
:102F90004C4490EF90937C411092374405C090319F
:102FA00019F491E090937D414F5F40935D44FF9011
:102FB000EF90DF90CF90BF90AF909F908F907F90D9
:102FC0006F905F904F90089581E090914D449111E2
:102FD00001C080E0089510924D4410924C44089531
:102FE00010925E4410925D441092594410925A44DB
:102FF00010925B4410925C448FEF9FEF8093C14529
:103000009093C2451092494480E008952091C145B3
:103010003091C24537FD06C0280F391F2093C145A6
:103020003093C2450895AF92BF92CF92DF92EF9254
:10303000FF920F931F93CF93DF93EC01892B09F439
:10304000ECC2EA81FB81E093C345F093C445A481BF
:10305000B5812C91A285B385109711F09C9101C088
:1030600090E021709170392F330F322B80913F44C3
:10307000281304C0222331F0A3E007C0222321F04B
:10308000A1E003C0A0E001C0A2E020933F448091F2
:103090004044981304C0992331F083E007C099237A
:1030A00021F081E003C080E001C082E090934044C1
:1030B00024E0A29FD0011124AD51BD4BA80FB11D3A
:1030C0008C91333051F490914844911115C091E0A6
:1030D0009093484490934A440BC010924A444091C4
:1030E000C1455091C2454F3F5F4F11F41092484483
:1030F00090914844992319F1A081B1812D913C917F
:10310000A90156954795A681B7812D913C91369599
:103110002795240F351F2093464430934744A281BE
:10312000B3812D913C91A90156954795A085B18514
:103130002D913C9136952795240F351F1BC03130BA
:1031400059F4A081B1812D913C9120934644309354
:103150004744A281B3810CC0323081F4A681B7818B
:103160002D913C912093464430934744A085B185EE
:103170002D913C912093444430934544813049F053
:1031800008F4EDC1823009F479C0833009F4A1C09C
:10319000FCC110925D441092594410925A4410920E
:1031A0005B4410925C44109242448BE02EE434E481
:1031B000D9011D928A95E9F71092414410924C442E
:1031C00010924B44E0904644F0904744E0926744AC
:1031D000F09268440091444410914544009369443E
:1031E00010936A44258930E0E216F30610F482E178
:1031F00001C080E140E051E0421B530B4E155F05DA
:1032000008F481600217130708F48860401751071B
:1032100008F484600E9458168093434480915E4471
:10322000882309F451C080915F4490916044E8166E
:10323000F90620F09701281B390B03C09C012E19B9
:103240003F0980916144909162440817190728F062
:10325000F801E81BF90BCF0102C0801B910BE09134
:10326000C345F091C445448950E04217530718F014
:103270004817590748F510925E4426C0809146448D
:103280009091474480935F4490936044809144447C
:1032900090914544809361449093624410924944D4
:1032A00080915744882321F088EA80934C4405C0DC
:1032B00080E20E945816809343448BE0EEE4F4E4ED
:1032C000DF011D928A95E9F71092C1451092C2451F
:1032D0005CC1992309F466C0A281B3812D913C9110
:1032E000A085B1858D919C912817390728F0A901F7
:1032F000481B590BCA0102C0821B930BA081B181EC
:103300002D913C91A681B7814D915C912417350791
:1033100018F0241B350B04C0BA01621B730B9B0110
:1033200040914A44423060F410923E44280F391FC5
:1033300020933C4430933D4482E080934A4429C02A
:10334000423039F5280F391F818D90E040913C447F
:1033500050913D44BC01640F751F6217730738F02C
:10336000820F931F8417950708F459C112C091E08A
:1033700080913E44890F80933E4420933C44309397
:103380003D44913009F04DC191EC90934C448093B1
:103390004B4480914C44882329F080EC0E945816BD
:1033A00080934344E091C345F091C4452091C145C9
:1033B0003091C245858590E0281739077CF08091CF
:1033C000414481110BC01091494410FD07C080E8B1
:1033D0000E9458168093434411600FC0878590E087
:1033E000281739076CF01091494411FD09C080EA93
:1033F0000E945816809343441260109349441AC0A7
:10340000868590E028173907ACF0809141448111FE
:1034100011C080914944833069F480E90E945816B4
:1034200080934344109249448FEF9FEF8093C145AE
:103430009093C245A0904644B0904744A092634404
:10344000B0926444C0904444D0904544C0926544D6
:10345000D0926644E0906744F0906844AE14BF0494
:1034600028F0C5018E199F097C0102C0EA18FB08EB
:103470000091694410916A44C016D10628F0D60123
:10348000A01BB10B8D0102C00C191D09E091C345B1
:10349000F091C445838990E08E159F0518F0801740
:1034A000910770F48091414481110AC00E94251651
:1034B00080630E9458168093434481E08093414486
:1034C00080914144882309F460C0E091C345F091A4
:1034D000C445878590E02091C1453091C2452817A9
:1034E00039070CF052C0808990E08E159F0530F0AE
:1034F000818990E08017910708F047C00E94251647
:10350000803FD1F0909142448065992361F02091F1
:103510004344821308C020915D44215020935D44B0
:103520009150909342440E94581680934344809156
:1035300042448F5F809342448091C1459091C2453F
:10354000019621F01092C1451092C245A0926744A5
:10355000B0926844C0926944D0926A4416C085858E
:1035600090E02091C1453091C245821793076CF4D9
:1035700080E80E9458168093434410925E448FEF77
:103580009FEF8093C1459093C2458091584481300C
:1035900021F48091564480934C4480914C44982F60
:1035A0009E7F10914B44903F31F410FF06C091E094
:1035B00090934D4402C08111FACF909148449923D1
:1035C000E1F090914D449923C1F09FEF980F93340F
:1035D00010F48C5F09C0982F907F903911F4805FB0
:1035E00003C0803D19F484ED80934C4480914C4499
:1035F000807C803C11F010924844E880F9800E9461
:10360000E417F7018083E881F98180914C4481833C
:10361000E881F981128380E006C08BE004C09FEF4F
:10362000A7CE90ECB2CEDF91CF911F910F91FF907A
:10363000EF90DF90CF90BF90AF9008959C016115FF
:10364000710509F14F5F37FD06C0442321F0415059
:10365000220F331FF8CF77FD04C04F5F660F771F2F
:10366000FACF80E090E0442381F097FD0CC0880FF2
:10367000991F41502617370718F0261B370B019664
:1036800076956795F0CF8FEF9FEF089526E0829FA4
:10369000C0011124FC01E459FB4B228133812083BA
:1036A0003183548145815283438364837583852F9D
:1036B000942F68177907D9F082179307C1F0621722
:1036C0007307A1F08617970740F42817390778F099
:1036D000CB012617370758F407C08217930738F035
:1036E000CB016217730718F4C9010895CB0108953F
:1036F00026E0269FF001279FF00D1124E80FF91F07
:10370000A281B38111968D919C911297248135816C
:10371000821B930B08959F92AF92BF92CF92DF923C
:10372000EF92FF920F931F93CF93DF935C016B0196
:10373000942E7901B9010E94781B1816190614F409
:10374000EC0102C0C0E0D0E0CE14DF0458F4B701B1
:1037500061507109C5010E94781B1816190614F4EE
:103760008C0102C000E010E0C90CD11C81E0C81A35
:10377000D108EC14FD0448F4B7016F5F7F4FC50119
:103780000E94781B1816190614F080E090E080174C
:10379000910708F4C8018C0F9D1FDF91CF911F91F5
:1037A0000F91FF90EF90DF90CF90BF90AF909F90E0
:1037B00008952F923F924F925F926F927F928F92D5
:1037C0009F92AF92BF92CF92DF92EF92FF920F93B0
:1037D0001F93CF93DF93CDB7DEB72597CDBFDEBF65
:1037E0002B014A838901FC01C384D484F681F983C7
:1037F000F295FF70FB83B901C6010E94781B8C8390
:103800009D8397FF02C01C821D820415150549F097
:10381000B80161507109C6010E94781B7C0197FFB5
:1038200002C0E12CF12C2A81222E312CC201820D02
:10383000931D01974801A12CB12C612C712C081704
:10384000190709F47DC0B8016F5F7F4FC6010E9460
:10385000781B84189508A608B7085CE0880C991CAA
:10386000AA1CBB1C5A95D1F797FF02C080E090E0DC
:10387000E816F90690F04C815D81481B590B4C838A
:103880005D83BA01681B790B6E0D7F1D4CE08C8146
:103890009D810E941E1B90510BC08E199F096C8147
:1038A0007D816E197F09680F791F4CE00E941E1BF5
:1038B000A5019401280F391F411D511DDA01C901CD
:1038C0003A81333040F0B1016150710940E00E940B
:1038D0001E1BA0E0B0E0813040E19407A105B105D6
:1038E00020F080E090E1A0E0B0E029812F70E9F0C5
:1038F00058E2259F90011124A90160E070E084172F
:103900009507A607B70718F0821B930B03C080E04A
:1039100090E0DC01220F331F60E070E1621B730B4B
:103920004CE00E941E1BA0E0B0E08115E0E19E0784
:10393000A105B10598F08FEF9FE0A0E0B0E00EC0C8
:1039400084189508A608B7088CE0880C991CAA1C56
:10395000BB1C8A95D1F780E090E08DCF2CE030E061
:10396000FB812F1B310904C0B695A79597958795C4
:103970002A95D2F72596CDBFDEBFDF91CF911F915B
:103980000F91FF90EF90DF90CF90BF90AF909F90FE
:103990008F907F906F905F904F903F902F90089501
:1039A0002F923F924F925F926F927F928F929F924F
:1039B000AF92BF92CF92DF92EF92FF920F931F933D
:1039C000CF93DF93CDB7DEB72897CDBFDEBF00978B
:1039D00009F400C1DC0112960D911C911397F801B6
:1039E0002681203D08F0F4C02D913C912F8338872B
:1039F000232B09F4EFC00115110509F4EBC0438432
:103A000054844114510409F4E5C032813B83C080E1
:103A1000D180C60120E0A601430F511D49835A837E
:103A200036E049815A818417950780F4389FF00168
:103A3000399FF00D1124E40DF51D6081653811F0FA
:103A4000AC0101C021E0CA010196EBCF222339F07D
:103A50004601AA24AA94BA2CE12CF12C34C0D80136
:103A600015963C91159713968D919C911497AC01E6
:103A7000430F511D36E0BA018417950780F4389F33
:103A8000F001399FF00D1124E40DF51DE081E538BA
:103A900011F0BC0101C021E0CB010196ECCF211156
:103AA000D7CFEF81F885808180FDD2CF1186128635
:103AB00093C0B401C2010E94781B181619064CF07D
:103AC000FFEF8F1A9F0A29813A818216930688F3A5
:103AD00006C0E816F906A4F754017C01F1CFD8011D
:103AE0001596BC91BC83F80163807480130188240F
:103AF0008A94982CE12CF12C93012B0F311D2D83EE
:103B00003E836D817E812616370680F4B101C201A5
:103B10000E94781B181619062CF4E816F90614F4FE
:103B200041017C015FEF251A350AEBCF7FEF871645
:103B3000970621F08FEFA816B80639F4AF81B88543
:103B400019961D921C921A9747C0AC14BD0468F0D8
:103B5000E981FA81AE16BF0640F495014B81B601AA
:103B6000C2010E948B1B7C0102C0E12CF12C861447
:103B7000970470F02D813E818216930648F49401DB
:103B80004C81B301C2010E948B1B8E0D9F1D02C090
:103B900080E090E0AF81B8852C91322F317020FF0A
:103BA0000AC0009741F01996ED90FC901A978E0D7F
:103BB0009F1D96958795EF81F88581879287D8011B
:103BC00019964D915C911A978417950728F00AC0B1
:103BD00082E059C18BE057C180E0EF81F885808396
:103BE00080E051C1311104C081E080936B4402C078
:103BF00010926B44F8014281358080916B448111B1
:103C00007BC080858370282EB1F49501B601C80170
:103C10000E94D91BAF81B88511968D939C93129702
:103C20009401432DB301C8010E94D91BEF81F8858F
:103C30008583968399C0AF81B8851196ED90FC90ED
:103C4000129715964D905C9016979501B601C80194
:103C50000E94D91B6C019401432DB301C8010E943D
:103C6000D91BA7014C0D5D1D9201280F391FB1E032
:103C70002B1207C0B601660F771F460F571FBC01F6
:103C80000EC0E2E02E1205C0440F551F220F331F55
:103C90000AC0B701660F771F460F571FB201660FA4
:103CA000771F260F371FEC14FD0418F44E5F5F4F8B
:103CB00005C0CE14DF0410F44150510948165906CE
:103CC00018F42E5F3F4F05C08415950510F4215060
:103CD00031095695479556954795AF81B885119608
:103CE0004D935C93129736952795369527951596A3
:103CF0002D933C93169738C09501B601C8010E94D8
:103D0000D91B7C01EF81F885818392839401432D37
:103D1000B301C8010E94D91BAF81B88515968D9358
:103D20009C9316971396ED92FC92149717968D9389
:103D30009C931897E0926C44F0926D44E0926E442C
:103D4000F0926F44E0927044F09271448093724418
:103D50009093734480937444909375448093764415
:103D60009093774481E839CFD80118968C91EF81F0
:103D7000F88561817281F82FF071EF2E84FD02C009
:103D8000FB0104C080E00E94461BFC01AF81B885A6
:103D900013962D913C9114979C91E217F307B0F480
:103DA00093FD0BC02E1B3F0BD80117964C9150E092
:103DB0004217530710F0947016C0AF81B885139660
:103DC000ED93FC9314979BE8F92E18C092FD0EC05A
:103DD000AF01421B530BD80117962C9130E02417EA
:103DE000350720F098709168F92E08C0AF81B8852A
:103DF0001396ED93FC93149787E8F82EEF81F885DE
:103E000065817681E11002C0FB0104C081E00E945F
:103E1000461BFC01AF81B88517962D913C911897F0
:103E20009C91E217F307B0F495FD0BC02E1B3F0BDE
:103E3000D80117964C9150E04217530710F090713B
:103E400016C0AF81B8851796ED93FC9318978F2D08
:103E50008262C3CE94FD0EC0AF01421B530BD8014A
:103E600017962C9130E02417350720F09072892F97
:103E70008F29B3CEAF81B8851796ED93FC93189731
:103E80008F2D8261AACE2896CDBFDEBFDF91CF9164
:103E90001F910F91FF90EF90DF90CF90BF90AF9068
:103EA0009F908F907F906F905F904F903F902F905A
:103EB0000895009791F0DC01ED91FC91309769F045
:103EC0001082118212821382148215821682178246
:103ED00010861186128680E008958BE00895A091E7
:103EE000C545B091C64525E0AC01249FC001259F82
:103EF000900D11241496ED91FC911597E80FF91F80
:103F0000818192818617970781F18617970718F4A8
:103F1000681B790B04C09C01261B370BB901ED917E
:103F2000FC918281803411F476956795653871052E
:103F3000D0F466307105C8F0E381E073F0E083E00F
:103F4000F695E7958A95E1F7ED50FD4B80819181DB
:103F5000689F9001699F300D789F300D112481E09A
:103F6000232B21F402C081E0089580E00895809120
:103F70007D4490917E44A091C545B091C645ED9198
:103F8000FC9111974081518125E0289FB001299F24
:103F9000700D112420E030E084179507A8F41496E2
:103FA000ED91FC911597E20FF31FE60FF71FE081EB
:103FB0002B5F3F4FE0FD02C00196EECF80937D4422
:103FC00090937E4480E0089510927D4410927E4448
:103FD00081E00895AF92BF92CF92DF92EF92FF926D
:103FE0000F931F93CF93DF937C01E091C545F09130
:103FF000C64584E18E9DE0018F9DD00D1124A281E4
:10400000B381AC0FBD1F18962C91189719963C914F
:1040100019971A964C911A971B965C911B971C96B0
:104020006C911C971D967C911D971E968C911E97E6
:104030001F969C912093F00708E00E944D26209344
:10404000F1070E944D262093F2070E944D262093EF
:10405000F3070E944D262093F4070E944D262093DB
:10406000F5071092E007A081B18112968C918038FB
:1040700009F44FC0A281B381AC0FBD1FCC90119643
:104080003C91119712964C91129713965C9113974D
:1040900014966C91149715967C91159716968C91A1
:1040A000169717969C91C092E8072C2D0E944D26DA
:1040B000D22E2093E9070E944D26122F2093EA0763
:1040C0000E944D26A22E2093EB070E944D26B22E71
:1040D0002093EC070E944D262093ED07808191816B
:1040E000DC0112968C91813821F481E08093E00705
:1040F00010C0823871F41092E007C092F807D09295
:10410000F9071093FA07A092FB07B092FC072093DF
:10411000FD0745E04E9DC0014F9D900D1124A481E7
:10412000B581A80FB91F13962D913C911497337048
:104130002093E4073093E507A481B581A80FB91F48
:104140002C9121FD4C9324813581D901A80FB91FF1
:104150008C918C7169F4A281B381AC0FBD1F529612
:10416000AC91A295AF70B0E0A550BD4B8C9101C051
:104170008FE18093E607A281B381AC0FBD1F5096FB
:104180008C918B3710F48C5F01C08FE78093C4074C
:10419000A281B381AC0FBD1F53968C918093C7074A
:1041A000A281B381AC0FBD1F51968C9182958F7007
:1041B0008093C90782819381C80FD91F89898F7025
:1041C00080688093C20781E88093C00781E0809374
:1041D000D007DF91CF911F910F91FF90EF90DF906B
:1041E000CF90BF90AF9008952F923F924F925F92E1
:1041F0006F927F928F929F92AF92BF92CF92DF92F7
:10420000EF92FF920F931F93CF93DF93CDB7DEB75B
:104210002597CDBFDEBF80917C44882309F424C25A
:104220000091C5451091C6452091C7453091C845BC
:104230002A833B83C12CD12CA12CB12C212C312CD5
:10424000198244244A945524539477247394D801B2
:104250008D909C90F401808191812816390608F098
:10426000FFC1AA81BB814D915D91AA83BB83F801F7
:10427000E480F580EA0CFB1CD7012C91822F8C7115
:1042800090E096958795969587958230910509F4EB
:1042900081C128F4009759F0019701F1D7C183300B
:1042A000910509F43AC1049709F4C2C0CFC1028054
:1042B000F381E02DEC0DFD1D92899F708389981785
:1042C00010F4891B01C080E09A0102C03695279541
:1042D0008A95E2F7F70121833283B8C18281938105
:1042E000FC01EC0DFD1DBA01038802C076956795AF
:1042F0000A94E2F76C837D83D70111966D937C93CA
:10430000129713968D919C9114976115B2E07B07DB
:1043100028F0DB01AF5FB14031E006C0D2014C8133
:104320005D81A41BB50B30E0BD0176956795D40186
:1043300012964C91403409F037256A30710508F027
:1043400047C026FD39C027FD39C0D40113962C91F2
:104350002370233059F4BFE7B08BD8011496ED9148
:10436000FC911597EA0DFB1DB1E124C0223061F4E8
:104370002189207F218BD8011496ED91FC9115970E
:10438000EA0DFB1DB9E016C02130B1F421892F7070
:10439000218BD8011296ED91FC911397EC0DFD1D28
:1043A00021892067218B1496ED91FC911597EA0DD8
:1043B000FB1DBDE0B08302C0F7017082D8011496E6
:1043C000ED91FC911597EA0DFB1D838394833EC10B
:1043D0008F3FB3E09B0711F0009731F421E8F7011C
:1043E00020833EE0398332C1332311F09C0110C099
:1043F0009C012F3F43E03407A8F42F5F3F4F6150EB
:10440000710961307105A9F70DC02115310551F011
:1044100021503109A901481B590B460F571F413044
:10442000510599F7D70113962D933C9314970EC11C
:10443000F801828093808C0C9D1CFA01D401539664
:104440000C90539702C0F695E7950A94E2F7EC8337
:10445000FD8350966C90FFE76F120FC0EC81FD81D9
:10446000D7011196ED93FC931297D40150968C913D
:1044700050978F7B50968C9342C0F12C262D30E0C4
:10448000C9010F2C02C0969587950A94E2F780FF28
:1044900003C08F2DF12C01C087E08F5F873010F4AF
:1044A000F82EEECF6C817D81C1010E946F1F8823A1
:1044B00051F081E090E00F2C01C0880F0A94EAF7D8
:1044C0008629F401808BD801FF2091F01296ED919E
:1044D000FC911397EC0DFD1DFA9481E090E001C072
:1044E000880FFA94EAF7809590898923808B07C01A
:1044F0001496ED91FC911597EA0DFB1D7082D80181
:104500001496ED91FC911597EA0DFB1D8081813089
:1045100009F09CC02C813D8183C00280F381E02D95
:10452000EC0DFD1D9A01038802C0369527950A946B
:10453000E2F72C833D83918892942FE0922237E01A
:10454000931691F06C817D81C1010E946F1F8111D2
:1045500004C09394D7017C9209C0911003C0F70165
:10456000708204C09A9402C096E0992ED8011296E7
:10457000ED91FC911397EC0DFD1D81898F70818B5E
:104580001296ED91FC911397EC0DFD1D929480EF26
:10459000982236C00280F381E02DEC0DFD1D9A01BA
:1045A000038802C0369527950A94E2F72C833D8351
:1045B00081898F70982E91F0B901C1010E946F1FFF
:1045C000811104C09A94D7017C920AC0B7E09B1273
:1045D00003C0F701708204C0939402C0992493949D
:1045E000D8011296ED91FC911397EC0DFD1D818978
:1045F000807F818B1296ED91FC911397EC0DFD1D40
:104600008189982A918A1496ED91FC911597EA0D6B
:10461000FB1D2C813D812183328380818130B1F467
:10462000211542E0340728F02F5F31402C833D8371
:1046300007C0B2018C819D81681B790B6C837D83DF
:10464000AC81BD811B9710F0B5E4B083EFEF2E1A5B
:104650003E0AF5E0AF0EB11C24E1C20ED11CF7CD2D
:1046600082E080937C4402C0F3E0F983898125963F
:10467000CDBFDEBFDF91CF911F910F91FF90EF90E3
:10468000DF90CF90BF90AF909F908F907F906F9072
:104690005F904F903F902F9008955F926F927F921E
:1046A0008F929F92AF92BF92CF92DF92EF92FF9242
:1046B0000F931F93CF93DF93009709F492C0DC010F
:1046C000ED91FC916081718140E050E020E030E0AC
:1046D000B0E010E0F12CE12C912C812C712C612C9C
:1046E0002617370751F1EC01EA81FB81E40FF51F32
:1046F000A080A085AA2AB180A185BA2AC280A285FD
:10470000CA2AD380A385DA2AD481A485DA2BC5816D
:10471000A585CA2B5680A685A5295780E785E5295A
:10472000BA291B29FC28ED289D2A8C2A7A2A6E2A70
:104730002F5F3F4F4C5E5F4FD3CF2B2F312F4F2D2D
:104740005E2D692D782D872D962DA0E00E9469267B
:1047500009F449C081E080937C442EE0C22E23E41A
:10476000D22EC0E0D0E0AA24A394B12C4CE0542E69
:104770002B2F312F4F2D5E2D692D782D872D962DC6
:104780000C2F0E944D26217030E040E050E060E0A8
:1047900070E080E090E0A0E00E946926C9F0F60198
:1047A0008081E82FE295E695E770F0E0EE0FFF1FBD
:1047B000E050FD4B0190F081E02D8F71950102C01A
:1047C000220F331F8A95E2F722832683538625879B
:1047D00021963FEFC31AD30AC033D10549F680E0D2
:1047E00003C08BE001C082E0DF91CF911F910F9158
:1047F000FF90EF90DF90CF90BF90AF909F908F9001
:104800007F906F905F900895009731F08093C74537
:104810009093C84580E008958BE008956115710577
:1048200061F1009751F120917C44222341F1243021
:1048300041F18093C5459093C64560937A44709347
:104840007B44DC01ED91FC912281203419F410921B
:10485000C10707C0203811F0213831F421E020933E
:10486000C1071092CB0711C0223869F421E02093D0
:10487000C10729E02093CB0708C08BE0089583E0AF
:10488000089581E0089582E008951092C007DC0148
:10489000ED91FC9184819281903451F41092C5077E
:1048A000803110F4806201C08FE28093C30708C09A
:1048B00090E29093C3078F3008F08FE08093C50794
:1048C00081E08093D3078093D20780937E4110923A
:1048D0007D4410927E440E94B71F81110BC084E07A
:1048E00080937C4480917D4490917E440E94EA1F95
:1048F00080E0089582E080937C4408950097C9F099
:10490000DC01ED91FC911197208131812617370749
:1049100090F045E0469F9001479F300D112414967A
:10492000ED91FC911597E20FF31F81E0808380E009
:1049300008958BE0089582E00895FC01892BD1F160
:10494000A081B1818D919C91119786179707A0F155
:1049500012969C910480F581E02D903459F485E005
:10496000869FD001879FB00D1124AE0FBF1F80EA34
:1049700090E00DC09058923080F485E0869FD00181
:10498000879FB00D1124AE0FBF1F80EF90E01396EC
:104990008D939C93149780E001C082E095E0969FF0
:1049A0009001979F300D1124E20FF31F90819260C8
:1049B000908308958BE0089582E00895EF92FF922E
:1049C0001F93CF93DF93009709F477C0DC01ED913B
:1049D000FC911197309709F470C06115710509F4C5
:1049E0006CC00190F081E02D12964D915C9113976F
:1049F000208131814217530708F061C0FC011092F9
:104A0000C007609378447093794412E010937E411C
:104A10008281938180937D4490937E44C081D18133
:104A2000C093C545D093C64545E0489F9001499F36
:104A3000300D1124AC81BD81A20FB31F11962D91B1
:104A40003C911297648170E0D901A60FB71F7901DC
:104A5000E61AF70A24E1289FB001299F700D11245E
:104A6000EA81FB81E60FF71F52895F703389351B9E
:104A7000AD01032E02C0440F551F0A94E2F7B7019F
:104A800002C0660F771F3A95E2F79B014093DE075D
:104A90005093DF076093DC073093DD0724E0209319
:104AA000C80723E02093D3071093D20721E0209377
:104AB000D1070E94EA1F80E003C08BE001C082E0C2
:104AC000DF91CF911F91FF90EF90089580917E41EB
:104AD000823049F481E080937E411092C0071092A9
:104AE000D10780E0089583E008952091DA0730919E
:104AF000DB0760917D4470917E44CB01880F991F44
:104B0000E091C745F091C845E80FF91F2083318334
:104B1000A091C545B091C64544E1469FC001479F5D
:104B2000900D11241296ED91FC911397E80FF91F47
:104B300092899F708389981710F4891B01C080E0C7
:104B400095E0969FA001979F500D11241496ED912A
:104B5000FC911597E40FF51F02C0369527958A95AD
:104B6000E2F72183328382E080937C44E0917844B1
:104B7000F091794409941092C00780917E41813070
:104B800009F04EC04091DA075091DB0780917D44D7
:104B900090917E449C01220F331FE091C745F09114
:104BA000C845E20FF31F40835183019680937D44F3
:104BB00090937E440E94B71F811109C084E08093C6
:104BC0007C4480917D4490917E440C94EA1F109225
:104BD000E8071092E9071092EA071092EB0710928B
:104BE000EC071092ED071092F0071092F107109267
:104BF000F2071092F3071092F4071092F507109243
:104C0000F8071092F9071092FA071092FB0710921A
:104C1000FC071092FD07E0917A44F0917B440994DF
:104C20000C947525052E97FB1EF400940E942926EE
:104C300057FD07D00E94752607FC03D04EF40C9454
:104C4000292650954095309521953F4F4F4F5F4F06
:104C5000089590958095709561957F4F8F4F9F4FE8
:104C60000895A29FB001B39FC001A39F700D811D45
:104C70001124911DB29F700D811D1124911D089565
:104C80000E943126A59F900DB49F900DA49F800D8A
:104C9000911D1124089597FB10F8169400080F93A6
:104CA000083098F00850232F342F452F562F672FA8
:104CB000782F892F902DF4CF059497958795779528
:104CC000679557954795379527950A95AAF70F91B8
:104CD00008950024A7FD00942A17300540055005CB
:104CE00060057005800590050895A1E21A2EAA1BA3
:104CF000BB1BFD010DC0AA1FBB1FEE1FFF1FA2178C
:104D0000B307E407F50720F0A21BB30BE40BF50B88
:104D1000661F771F881F991F1A9469F76095709511
:104D2000809590959B01AC01BD01CF0108958F92B4
:104D30009F92AF92BF92CF92DF92EF92FF92CF936A
:104D4000DF93EC01688179818A819B81611571050E
:104D50008105910521F464E279ED8BE597E02DE181
:104D600033EF41E050E00E94122649015A019B01B5
:104D7000AC01A7EAB1E40E9440266B017C01ACEED5
:104D8000B4EFA50194010E943C27DC01CB018C0DFE
:104D90009D1DAE1DBF1DB7FF03C00197A109B048FF
:104DA00088839983AA83BB83BC01CD019F77DF9160
:104DB000CF91FF90EF90DF90CF90BF90AF909F90FA
:104DC0008F9008958F929F92AF92BF92CF92DF9271
:104DD000EF92FF92609100407091014080910240FB
:104DE00090910340611571058105910521F464E2FC
:104DF00079ED8BE597E02DE133EF41E050E00E9443
:104E0000122649015A019B01AC01A7EAB1E40E94B4
:104E100040266B017C01ACEEB4EFA50194010E9429
:104E20003C27DC01CB018C0D9D1DAE1DBF1DB7FFC6
:104E300003C00197A109B0488093004090930140BE
:104E4000A0930240B0930340BC01CD019F77FF9037
:104E5000EF90DF90CF90BF90AF909F908F9008958C
:104E60006093004070930140809302409093034010
:104E70000895B7FF0C9440260E944026821B930B96
:064E80000895F894FFCF35
:104E86000100000001000200030004000500060006
:104E9600070008000C000200003000030100146443
:104EA600461E1E001432000102020096040440143D
:104EB600140A000A00070188453B403B453F453838
:104EC60045000000000000071464461E1E00143250
:104ED6000001020200384559400400040000047035
:104EE60003132D008B45434589408B456E401901C0
:104EF6000119010119010119010119010119010124
:104F06001901011901011901000900020005001427
:104F160005140199400800FF0553419F404945404B
:104F26000023000000000000004000000000000414
:104F360005010440002300000000002000000000DE
:104F460000000004050104400023000000000000EA
:104F5600008000000000000405010440002300005A
:104F660000000010000000000000000405010430ED
:104F760000C0000000000000002000000000000447
:104F86000501043000C00000000000000001000020
:104F9600000000040501043000C0000000000040CD
:104FA60000000000000000040501043000C00000FD
:104FB600000000000002000000000004050104409B
:104FC600002300000000003000C0000000000000C8
:104FD6000502040900403001340E490E550ED60E66
:104FE6002F0FA00F3A102F1046103C0E600E670EC2
:104FF6006E0E7E0E240E9A0EEE0F850EF001010146
:105006000002000300040005000600070008000C6B
:105016000001FF02FF03FF04FF05FF06FF07FF086D
:10502600FF0C00000000000000000000000000006F
:10503600000000000000000000000000000000006A
:10504600000000000000000000000000000000005A
:10505600000000000000000000000000000000004A
:10506600000000000000000000000000000000003A
:10507600000000000000000000000000000000002A
:105086000000000000000010200000F0FFFFFF8F6E
:10509600000010208000F0FFFFFF9000001020208D
:1050A60080F0FFFFFF9000001080A090F0FFFFFF50
:1050B600D0010012305020F2FFFFFF110000123025
:1050C60050A0F2FFFFFF13010110305020F0FFFF48
:1050D600FF100000103050A0F0FFFFFF1201011179
:1050E600325220F1FFFFFF210000113252A0F1FFE2
:1050F600FFFF23010110325220F0FFFFFF200000C6
:10510600103252A0F0FFFFFF22010118335320F89E
:10511600FFFFFF310000183353A0F8FFFFFF3301F4
:105126000110335320F0FFFFFF300000103353A06F
:10513600F0FFFFFF32010114315120F4FFFFFF4160
:105146000000143151A0F4FFFFFF4301011031515B
:1051560020F0FFFFFF400000103151A0F0FFFFFFDD
:1051660042010100010203010101010201020203E1
:1051760001020307001300350090001F0F0703010B
:1051860000042004400460048004A004C00400015C
:105196000203040506072021222324252627606111
:1051A6006263646566678081828384858687A0A141
:0E51B600A2A3A4A5A6A7C0C1C2C3C4C5C6C7F4
:00000001FF
