S0160000536E616B6544656D6F41565244412E7372656329
S11300000C9476000C9495000C9495000C94EC00E0
S11300100C9495000C9495000C9495000C94950008
S11300200C9495000C9495000C9495000C949500F8
S11300300C9495000C9495000C9495000C949500E8
S11300400C9495000C94AE0C0C9495000C949500B3
S11300500C9495000C9495000C9495000C949500C8
S11300600C9495000C9495000C9495000C94240821
S11300700C9495000C9495000C9495000C949C00A1
S11300800C9495000C94C4000C9495000C94950069
S11300900C9495000C9495000C9495000C94950088
S11300A00C9495000C9495000C9495000C94950078
S11300B00C9495000C9495000C9495000C94950068
S11300C00C9495000C9495000C9495000C94950058
S11300D00C9495000C9495000C9495000C94950048
S11300E00C9495000C9495000C94950011241FBE5B
S11300F0CFEFCDBFDFE7DEBF13E4A0E0B0E4ECE177
S1130100F5E400E00BBF02C007900D92AE33B107D7
S1130110D9F725E4AEE3B3E401C01D92AA3CB207CB
S1130120E1F70E94E7010C948C220C9400000E94D9
S11301301C0A0E94A40608951F920F920FB60F92F4
S113014011240BB60F922F933F934F935F936F93AA
S11301507F938F939F93AF93BF93EF93FF930E94EB
S11301603606FF91EF91BF91AF919F918F917F914F
S11301706F915F914F913F912F910F900BBE0F9014
S11301800FBE0F901F9018951F920F920FB60F92EB
S113019011240BB60F922F933F934F935F936F935A
S11301A07F938F939F93AF93BF93EF93FF930E949B
S11301B01806FF91EF91BF91AF919F918F917F911D
S11301C06F915F914F913F912F910F900BBE0F90C4
S11301D00FBE0F901F9018951F920F920FB60F929B
S11301E011240BB60F922F933F934F935F936F930A
S11301F07F938F939F93AF93BF93EF93FF930E944B
S1130200EF070E94930282E080934301FF91EF91F4
S1130210BF91AF919F918F917F916F915F914F911A
S11302203F912F910F900BBE0F900FBE0F901F9018
S1130230189550E090E00E94D60C2FEF82E597E0ED
S1130240215080409040E1F700C000000895CF9312
S1130250DF93CDB7DEB76297CDBFDEBF82E1EFE7B4
S1130260F1E4DE01119601900D928A95E1F742E1E5
S1130270BE016F5F7F4F80E60E9419016296CDBF79
S1130280DEBFDF91CF910895CF93DF93CDB7DEB773
S11302906297CDBFDEBF82E1E1E9F1E4DE011196B0
S11302A001900D928A95E1F742E1BE016F5F7F4FA5
S11302B080E60E9419016296CDBFDEBFDF91CF9127
S11302C00895CF938823C9F0C82F0E9427012FEFE8
S11302D08EE994E2215080409040E1F700C0000094
S11302E00E9444012FEF8EE994E221508040904017
S11302F0E1F700C00000C15041F7CF910895CF93BA
S1130300DF93AFE3B3E480E793E4FD011192E817D0
S1130310F907E1F7209171432223C1F0C2E7D3E446
S1130320215030E0220F331F2C583C4B91E0E881E0
S1130330898147E0E49FF0011124E15CFC4BE80F64
S1130340F11D90832296C217D30789F7C0E1D4E444
S1130350E881898197E0E902F0011124E15CFC4B1A
S1130360E80FF11D87FDFA9581E08083E4E0F0E475
S113037097E080913E432C9120FB80F917962C91B5
S1130380179720FB81F91E962C911E9720FB82F96A
S113039055962C91559720FB83F95C962C915C978C
S11303A020FB84F993962C91939720FB85F99A96D8
S11303B02C919A9720FB86F980933E438183915038
S11303C0119632969111D5CFDF91CF9108950E9465
S11303D0970085E00E9461010E94D9080F2EF7E37F
S11303E0CF2EF0E4DF2EF02DC1E8D4E40F2EF0E799
S11303F0EF2EF3E4FF2EF02D992493946894BB24FC
S1130400B1F80F2EF3E0AF2EF02D02E814E48B2C9C
S11304100E944B07D601ED91FC918181807F803150
S113042021F488818061888311C0803221F488811D
S1130430886088830BC0803321F48881806288833C
S113044005C0803419F4888180648883888185FF9D
S113045008C0F7018081813009F0108288818F7D86
S11304608883888186FF07C0D7018C9181119C9273
S113047088818F7B8883888183FF08C0F70180810E
S1130480833009F0B0828881877F8883888184FFE4
S113049008C0D7018C91823009F0AC9288818F7E9C
S11304A088830E943613F801808182FD1EC08881F2
S11304B080FF10C0888181FD0DC00E94F8080E9451
S11304C07F0142E164E070E480E60E9419018881C2
S11304D08E7F8883888181FF08C0882D0E946101F6
S11304E00E94D90888818D7F8883D8018C9180FFF0
S11304F009C00E942701F801808184608083808183
S11305008E7F8083D8018C9181FF82CF8B2D0E94B6
S113051061010E94D908F80180818D7F80838081E8
S11305208B7F808375CF8091804491E0980F909366
S11305308044893138F0E1E8F4E48081816080838B
S11305401092804408950F931F93CF93DF9380916B
S1130550D643811118C0ECE2F0E481E090E0009011
S1130560024102C0880F991F0A94E2F78283AEE623
S1130570B0E41C968C911C9783838C91848381E0D6
S11305808093D643ACC080910544882309F4A7C066
S113059080912E40482F50E021E030E0009002414D
S11305A002C0220F331F0A94E2F73327421753077E
S11305B009F439C147E050E090E061E070E09B014C
S11305C0042E02C0220F331F0A94E2F7282319F0E5
S11305D087E0891B05C09F5F41505109983079F726
S11305E0873008F086E0CCE2D0E491E0082E01C028
S11305F0990F0A94EAF79A83EFE9F0E480930241B1
S11306008093164180932A4180933E41838B87A334
S113061083AF8093EE400E94A4068B8190917A4030
S1130620891709F407C1EEE6F0E484878787828B93
S1130630858B8091304090916E40891731F0EEE6C1
S1130640F0E4808383838683818780913540E091C1
S11306505740F09158409681292F22952F70821788
S113066029F09F708295807F892B8683E0913940A1
S1130670F0913A40AEE1B0E48C91858711968C916B
S11306801197868712968C911297878713968C916F
S11306901397808B14968C911497818B15968C915B
S11306A01597828B16968C911697838B17968C913F
S11306B01797848B18968C911897858B19968C9123
S11306C01997868B1A968C911A97878B1B968C9107
S11306D01B97808F1C968C91818F10920544AFEFED
S11306E0B3E4E9E8F5E4828115968C93159781814A
S11306F014968C9314971C928081882319F082E0BD
S11307008093FF43E0915540F0915640808180FFF3
S113071006C0EFEFF3E480818160808305C0EFEFD2
S1130720F3E480818E7F80838091D543EFEFF3E4FF
S11307309081982B9083805F8093D543ABE3B0E4A2
S1130740CD91DC91119728813981C90192958295C7
S11307508F7089279F708927818312960D90BC9191
S1130760A02D8D919C91AC01529542954F704527D7
S11307705F70452742832295207F8F70822B83836D
S113078027EF33E4E6E7F5E4C7EED3E407ED13E43B
S113079080E08430B8F440A951A9DA0111964D9152
S11307A05C9112974883598362A973A9D8016D9308
S11307B07C936417750710F4461B01C040E0D9010F
S11307C04C9316C040815181DA0111964D915C9190
S11307D012974883598362817381D8016D937C9306
S11307E06417750710F4461B01C040E0D9014C930F
S11307F08F5F2F5F3F4F369622960E5F1F4F8830D4
S113080041F680911A4080FF07C00E94A406E6E1E9
S1130810F0E484818E7F84830E94E50480913945CD
S11308208093D4430EC080912F4090917A409813C6
S1130830FACEFFCE8091304090916E408913FFCE66
S113084004CFDF91CF911F910F910895883030F438
S1130850E82FF0E0EA5EFF4B8081089590EF980F57
S1130860963030F4E82FF0E0E151FC4B808108959C
S113087090EE980F9A3030F4E82FF0E0E45FFF4BED
S11308808081089599EC980F9E3030F4E82FF0E0C1
S1130890E951F04C8081089594E7980F983030F432
S11308A0E82FF0E0E559FC4B808108959DE5980F11
S11308B0903168F4E92FE695F0E0EE0FFF1FE9515F
S11308C0FC4B2081818190FD15C0822F0895EFE2B9
S11308D0E80FE03170F4AE2FA695B0E0AA0FBB1F6D
S11308E0A952BC4B9C9111968C91E0FD03C0892FB9
S11308F0089580E00895843019F460931A4016C076
S11309009EED980F983030F4E82FF0E0E45FFF4B51
S113091060830CC099EC980F9E3030F4E82FF0E01F
S1130920E951F04C608302C081E0089581E0809336
S1130930054480E008959091A044E92FF0E0E45745
S1130940FB4B80819F5F943119F09093A0440895EC
S11309501092A044089591E0909305458093220855
S1130960809105458130E1F3089580910545811119
S113097009C081E0809305458093844480910645B5
S1130980809322080895E6E0F5E42DEA20838AE0C6
S11309908183128281E08383148290E195839AEDAE
S11309A09487258734E136878787808B118A33EAD9
S11309B0328B93A324A32CE025A325E026A387A3AD
S11309C010A68CE881A792AB0895EF92FF920F9343
S11309D01F93CF9380910645811102C00E94C304E6
S11309E0809136408130C1F580910545811134C034
S11309F00CE015E4C0E18C2F0E942604F8018193D9
S1130A008F01CF5FC631B9F709E115E40F2EF9E282
S1130A10EF2EF5E4FF2EF02DC3EA8C2F0E9426045E
S1130A20F80181938F01CF5FEE16FF06B1F700E363
S1130A3015E4CCE88C2F0E942604F80181938F01E1
S1130A40CF5FC439B9F780918544813019F081E0D2
S1130A50809307440E943613CF911F910F91FF900A
S1130A60EF900895809183449091A044891710F0E9
S1130A70891B08958C5E891B08951F93CF93DF9380
S1130A80C82F162FD42F10928B4485E08C0F80939F
S1130A9006448DEA0E94AB0484E08C0F0E94AB04F0
S1130AA0812F0E94AB0481E00E94AB0480E00E948D
S1130AB0AB048D2F0E94AB04DF91CF911F91089559
S1130AC0EF92FF921F93CF93DF938091074481307D
S1130AD021F4109207440E94B5040E943205853027
S1130AE008F4A0C00E949B048D3A09F09BC0809139
S1130AF0854481111CC00E943205843008F492C0E0
S1130B000E949B04182F0E949B040F2EF5E8EF2EE1
S1130B10F4E4FF2EF02DF70182830E949B04C82F7A
S1130B200E949B04D82F81E0F701808306C08130A6
S1130B3009F078C0D0E0C0E010E010928344109235
S1130B40A04480918744803809F46AC08138E9F46C
S1130B50809105458130E1F3109236404C2F612F8E
S1130B608D2F0E943D05DD2349F0DC0F8C2F0E9460
S1130B7026040E94AB04CF5FDC13F8CF8AED0E94F9
S1130B80AB0481E08093364048C0813061F58091A8
S1130B9005458130E1F3109236404C2F612F8D2FA3
S1130BA00E943D05CC2361F0DD23B1F0DC0F8C2FD6
S1130BB00E9426040E94AB04CF5FCD13F8CF0CC073
S1130BC080E00E94AB0480E00E94AB0480E00E94BD
S1130BD0AB0480E50E94AB048AED0E94AB0481E083
S1130BE0809336401AC0811118C080910545813028
S1130BF0E1F3109236406D2F8C2F0E947B044C2F12
S1130C00612F81E00E943D058D2F0E94AB048AED87
S1130C100E94AB0481E0809336401092854402C068
S1130C2010928544DF91CF911F91FF90EF9008952A
S1130C30E0E2F8E0848180648483809136408130EE
S1130C4019F010920545089580918444833358F433
S1130C50E82FF0E0EA5FFA4B9081909322088F5FCF
S1130C6080938444089510920545089580918344A7
S1130C7090912008E82FF0E0E457FB4B90838F5FBE
S1130C80843119F080938344089510928344089525
S1130C9081E080930E4408959C01892B69F0E0E47F
S1130CA0F1E0918192FDFDCFE0E4F1E0228733870A
S1130CB082818260828305C0E0E4F1E082818D7FDD
S1130CC08283E0E4F1E0818181FDFDCF109248014F
S1130CD0109249010895E0E0F2E015A6118AE0E4DB
S1130CE0F1E081818111FDCF80E880934001E0E44F
S1130CF0F1E081898111FDCF1092500184E190E0EF
S1130D0080930844909309440E944C06E0E4F1E087
S1130D1081818111FDCF81E8809340010895809104
S1130D20084490910944449771F00E946B0681E055
S1130D3080930F4410920A4410920B44E2E8F4E4C6
S1130D4080818260808308950F931F93CF93DF93F4
S1130D5084E190E00E944C06E5E7F4E08081877F1F
S1130D6080838081887F84608083E0E7F4E08081F1
S1130D70877F80838081887F84608083E6E1F4E0DC
S1130D808081877F80838081887F84608083E1E79E
S1130D90F4E08081877F80838081887F8460808382
S1130DA0E6E7F4E08081877F80838081887F8460A8
S1130DB08083E5E1F4E08081877F80838081887F80
S1130DC084608083E7E7F4E08081877F808380818B
S1130DD0887F84608083E4E1F4E08081877F80837E
S1130DE08081887F84608083E2E9F4E08081877F6A
S1130DF080838081887F84608083E3E9F4E080815C
S1130E00877F80838081887F84608083E4EBF4E043
S1130E108081877F80838081887F84608083E5EB05
S1130E20F4E08081877F80838081887F84608083F1
S1130E300E946B0689E990E40E94981E87E795E476
S1130E400E944F1FC0E0D0E0BE0189E990E40E94F7
S1130E50C91FBE0189E990E40E94E81F2196C930A8
S1130E60D10591F70AE415E4C0E0A8016C2F86E6E9
S1130E7090E40E94AB0DCF5F0B5F1F4FC930A9F701
S1130E8085E590E40E94A41A0E943B13DF91CF9160
S1130E901F910F91089580910F44813051F468E4BB
S1130EA076E089E990E40E94591F811102C01092F2
S1130EB00F4480910E44813009F08EC010920E448C
S1130EC00E943F1C81111CC086E690E40E94CA0D5A
S1130ED0882319F082E080930C4485E590E40E9415
S1130EE01B18882319F083E080930C4487E390E473
S1130EF00E945E13882339F084E080930C4403C07D
S1130F0081E080930C44E0916640F09167408081D9
S1130F10882324F481E080930F445AC081E08093B5
S1130F200D448091444580FF05C010920A441092FC
S1130F300B4444C080910A4490910B4480329E44F7
S1130F4008F43CC06FE876E083E990E40E9429202D
S1130F50209108443091094420323E44C9F1811162
S1130F6037C0E0E0F2E08BE0818B82E085A7E0E42B
S1130F70F1E081818111FDCF80E880934001E0E4BC
S1130F80F1E081898111FDCF85E18093500180E2F8
S1130F909EE480930844909309440E944C06E0E444
S1130FA0F1E081818111FDCF81E880934001E2E885
S1130FB0F4E480818160808388950AC0809108442C
S1130FC090910944449721F00E94B1200E946B063D
S1130FD0F8940E94A30278940E946005089581E029
S1130FE080930F4480910844909109440E94A00D7D
S1130FF02091084430910944ADECBCEC0E947C2162
S11310009695879596958795969587950E94511301
S1131010209108443091094480910A4490910B44F2
S1131020A901409550958417950738F4820F931FB2
S113103080930A4490930B4408958FEF9FEF80931D
S11310400A4490930B4408951F920F920FB60F9287
S113105011240BB60F922F933F934F935F936F938B
S11310607F938F939F93AF93BF93EF93FF930E94CC
S11310700621FF91EF91BF91AF919F918F917F9145
S11310806F915F914F913F912F910F900BBE0F90F5
S11310900FBE0F901F9018954F925F926F927F92A0
S11310A08F929F92AF92BF92DF92EF92FF920F9333
S11310B01F93CF93DF93E1E8F4E480818B7F8083F7
S11310C0C09180440E942D229B01AC01AC2FB0E062
S11310D00E948B210E947B22C1E8D4E400E114E445
S11310E00F2EF0E7EF2EF3E4FF2EF02D4FC00E94F9
S11310F02D220E942D224B015C010E942D220E9470
S11311002D222B013C01C501B4016F5F7F4F8F4F2E
S11311109F4F27E030E040E050E00E945D21D62E52
S1131120F8016083C301B2016F5F7F4F8F4F9F4F00
S113113027E030E040E050E00E945D21F801618347
S1131140888184608883F70121812223F9F0E2E712
S1131150F3E4215030E0220F331F2C583C4B4D2D2B
S1131160DD0C550B062E000C770B808190E04817A0
S1131170590741F4818190E06817790719F488814F
S11311808B7F88833296E217F30779F7888182FF91
S1131190AECFDF91CF911F910F91FF90EF90DF9031
S11311A0BF90AF909F908F907F906F905F904F9083
S11311B0089584E6E3EAF1E4A0E7B3E401900D9234
S11311C08A95E1F7E0E7F3E482E08083818383E0BA
S11311D082838383848384E085830E944C080E94F5
S11311E07F0142E164E070E480E60E941901089501
S11311F0CF9380917043813051F018F0833069F0BF
S113120012C0E0E7F3E472817F5FC38111C0E0E7BD
S1131210F3E472817150C3810BC0E0E7F3E472819F
S1131220C381CF5F05C0E0E7F3E47281C381C1509D
S1131230772324F077301CF070E001C076E0CC23F3
S113124024F0C7301CF0C0E001C0C6E060917143D7
S1131250662309F444C0E2E7F3E42FEF260F30E0FD
S1131260220F331F2C583C4B472F072E000C550BD5
S1131270AC2F0C2E000CBB0B808190E04817590753
S113128059F4818190E0A817B90731F4E1E8F4E456
S113129080818260808348C032962E173F0761F7B1
S11312A03EC0E1E8F4E48081826080833DC0822F07
S11312B090E0DC01AA0FBB1FA059BC4B3C91FC0180
S11312C0EE0FFF1FEE58FC4B3083880F991FFC0173
S11312D0E259FC4B838113968C93215041F7E0E74C
S11312E0F3E47283C3838091104478130AC080911D
S11312F01144C81306C06F5F609371430E944C0889
S113130013C070E0FB01EE0FFF1FEE58FC4B108280
S1131310660F771FFB01E059FC4B138205C06F3247
S113132008F0BFCF262FC3CFCF9108951092890024
S113133080E0089544E268ED88E690E00E94130D91
S113134080E00895789480E00895E0E1F4E08081FD
S113135088608193E83184E0F807C9F7E0E3F4E0BA
S1131360808188608193E83384E0F807C9F7E0E579
S1131370F4E0808188608193E83584E0F807C9F758
S1131380E0E7F4E0808188608193E83784E0F8073F
S1131390C9F7E0E9F4E0808188608193E83984E06A
S11313A0F807C9F7E0EBF4E0808188608193E83BBB
S11313B084E0F807C9F7E0EDF4E080818860819368
S11313C0E83D84E0F807C9F708954198E1E5F4E0C1
S11313D08081877F8083409A48980E942C0D0895CD
S11313E0439A4B98E3E5F4E08081877F8083808192
S11313F08F7780838081887F8083A0EEB5E0159607
S11314008C911597816015968C931597429A4A98FA
S1131410E2E5F4E08081877F808380818F77808319
S11314208081887F808315968C91159781601596AD
S11314308C930E94190C08950E94A5090E949A0990
S11314400E94E5090E94270D0E94A2090E94F0094A
S11314500E9496090E94180D0895E0E0F9E0848145
S113146088608483858181608583E2E1F4E48081FE
S11314708E7F808313868EE00895E2E1F4E4808118
S11314808E7F8083138680E00895E2E1F4E4808116
S1131490886080838181880F81608093070984E05C
S11314A008950E94450A08950E94450A0895E2E1BC
S11314B0F4E48081886080838181880F80930709A8
S11314C083E008950E94570A0895E0E0F9E08481DA
S11314D08B7F848384E00895E0E0F9E084818B7F4E
S11314E0848383E00895E0E0F9E084818460848368
S11314F088E00895E0E0F9E0848188608483858150
S113150081608583E2E1F4E480818E7F808382E0E0
S113151083878EE00895CF93DF93E0E0F9E085813F
S1131520806C85838091124483FF07C080910509F4
S113153084FF03C08FE080931C448091050983FFDE
S113154003C080E180931C448091050982FF03C09D
S113155081E180931C44C2E1D4E4EA85F0E0EE0F1B
S1131560FF1FE85AFE4B0190F081E02D09958A8710
S1131570DF91CF91089581E0089585E00895611584
S1131580710581F090E0FC01EE0FFF1FE25EFB4B62
S113159060837183880F991FFC01E65DFB4B4083D8
S11315A05183089590E0FC01EE0FFF1FE25EFB4BB8
S11315B02BEB3AE020833183880F991FFC01E65D11
S11315C0FB4B108211820895E0E0F9E08581886088
S11315D08583A2E1B4E482E01B968C931B971E964C
S11315E0ED91FC911F975A968D919C915B9709956B
S11315F0823019F0833021F006C00E94450A089514
S11316000E94570A08950E942D0A0895E0E0F9E027
S1131610848184608483848183608483E2E1F4E44C
S113162080818E7F8083138680E00895CF93DF933B
S1131630E2E1F4E48081877F80838481958101974E
S113164031F4E0E0F9E084818460848305C0E0E063
S1131650F9E084818B7F8483E2E1F4E484819581E1
S1131660019784839583892BA9F0DF01C281D381FB
S1131670E0E0F9E08085888312968D919C91139720
S1131680019612968D939C93139784818260848330
S113169084E026C0A2E1B4E41296ED91FC91139784
S11316A080910809808312968D919C9113970196DD
S11316B012968D939C9313978C9184608C931C96B3
S11316C0ED91FC911D9758968D919C915997099590
S11316D08250823018F40E94730A02C00E94060BE2
S11316E0DF91CF910895E0E0F9E084818360848301
S11316F0E2E1F4E480818E7F8083138680E00895A4
S1131700A2E1B4E48C91877F8C9382E01B968C9346
S11317101B975096ED91FC9151975C968D919C91FD
S11317205D970995823019F0833021F006C00E943C
S1131730450A08950E94570A08950E94730B08955C
S11317408091050984FF19C0A2E1B4E45296ED9199
S1131750FC9153975E968D919C915F970995823089
S113176019F0833021F006C00E94450A08950E94B2
S1131770570A08950E94730B0895E2E1F4E480810E
S1131780877F8083A281B381CD0101968283938375
S11317908C91809308098481958101978483958332
S11317A0892B11F485E0089583E00895809105095B
S11317B084FF19C0A2E1B4E45296ED91FC915397D1
S11317C05E968D919C915F970995823019F08330D4
S11317D021F006C00E94450A08950E94570A089500
S11317E00E94730B0895A2E1B4E48C9184608C93FD
S11317F01C96ED91FC911D9758968D919C9159974B
S11318000995833039F0843041F0823049F40E94E4
S1131810450A08950E94570A08950E94A00B08954E
S11318200E94730B0895AB01BC0182E00E94BF0AC1
S11318300895E0E0F9E083E7868381EC83830895EB
S11318409091124491FD36C0E2E1F4E48183892F42
S1131850847F9EE0928724EF31E020873187826085
S1131860846080838BEB9AE084879587108E118E39
S113187086879787128E138E808B918B148E158E8C
S1131880828B938B168E178E8DEB9AE0848B958BBF
S113189010A211A2E0E0F9E084818860848385814C
S11318A0816085838581806C85838381806C83835B
S11318B080E0089581E008958091050982FF07C0C2
S11318C0E2E1F4E480818E7F808382E083878091EB
S11318D0124480FD17C0E2E1F4E48D7F80838FEF32
S11318E08183A0E0B9E015968C911597806C1596CC
S11318F08C93159713968C9113978F7313968C93DF
S11319008385089581E008959C019091124492FF8B
S113191009C0E2E1F4E42283338364837583892F6D
S11319208B7F808308959091124490FD11C0E2E171
S1131930F4E491609083882321F081E080931C4437
S113194003C082E080931C440E948B0A80E00895C7
S113195081E0089580E00E94930C08951F920F92F5
S11319600FB60F9211240BB60F922F933F934F9300
S11319705F936F937F938F939F93AF93BF93EF93F3
S1131980FF930E948B0AFF91EF91BF91AF919F91BA
S11319908F917F916F915F914F913F912F910F9014
S11319A00BBE0F900FBE0F901F901895CF92DF9231
S11319B0EF92FF921F93CF93DF93182F7B016A015D
S11319C0C0E1D7E2812F0E94200C813019F42197C5
S11319D0C9F71FC0CD2BD1F0B601C7010E94840CFA
S11319E060E070E081E19DE00E94130C0E94AA0C6B
S11319F0C0E1D7E20E945C0C813021F42197D1F739
S1131A0082E007C0CD2B21F080E003C081E001C05B
S1131A1082E0DF91CF911F91FF90EF90DF90CF9004
S1131A20089583E008951BBEFC0164BF40830895BC
S1131A30E0E4F1E081818111FDCFE0E4F1E081E8AF
S1131A40808381E0878382E0828380E0089583E05D
S1131A508093500080E00895E0E2F8E081E493E0B0
S1131A608087918780EC8583868380E00895CF9278
S1131A70DF92FF920F931F93CF93DF93EC01AE811C
S1131A80BF81EB01CC0FDD1FC60FD71FCA0FDB1FB1
S1131A90FA80FC0144815581E6E0E69F9001E79FCE
S1131AA0300D11248A01020F131FF80122813381A2
S1131AB0F90121813281F80104811581201B310B48
S1131AC0E8812E1B3109EC01EA81FB81008111813F
S1131AD0FA0140E050E04017510739F14617570723
S1131AE0F9F012968C911297F8121AC080818558D9
S1131AF08230E8F0C480D58082819381EC018981B1
S1131B009A81C816D90660F48C199D09CC91D0E04D
S1131B10C817D90728F48C1B9D0B2817390738F0F0
S1131B204F5F5F4F13963696D6CF80E001C081E0B9
S1131B30DF91CF911F910F91FF90DF90CF90089587
S1131B402091364430913744820F931F809336445A
S1131B509093374408950097D9F041155105C1F089
S1131B6026E0629FB0011124DC011496ED91FC91F2
S1131B701597E60FF71F21E0208314968D919C9111
S1131B801597FC01E60FF71F4283538380E0089505
S1131B908BE008952F923F924F925F926F927F92C3
S1131BA08F929F92AF92BF92CF92DF92EF92FF9269
S1131BB00F931F93CF93DF93009709F47DC3EC0138
S1131BC0A12CB12C812C912C212CD12C33E0C32EAF
S1131BD045E8642E56E8752E67E0362E72E0472EEF
S1131BE0E8E05E2EEA81FB81808191818816990666
S1131BF008F0A5C17501EE0CFF1C0C811D810E0DB2
S1131C001F1DD8018C91843009F4A2C038F48230AD
S1131C1001F108F049C0813059F08AC1853809F4CE
S1131C20C2C0863809F4F6C0873009F081C137C1D3
S1131C30D8011296ED91FC91139780818E7109F071
S1131C4069C14C928C819D81FC01EE0DFF1D518276
S1131C5061C1F8012181222329F10280F381E02D61
S1131C60253020F081819281D8010EC0D8011496CC
S1131C708D919C911597418152818417950769F044
S1131C804817590730F4019714968D939C93159730
S1131C9004C00196F801848395832150D8011196DC
S1131CA02C9338C1F80131C1D80114962D913C917F
S1131CB0159712968D919C911397DC0111964D9175
S1131CC05C9112972417350709F432C18E819F81E4
S1131CD042175307E0F4241B350BDC01AA0DBB1D8E
S1131CE08C9190E0058002C0959587950A94E2F75F
S1131CF099272817390708F41BC18481882309F41C
S1131D0017C1F8013082EA81FB8124811AC0FC01E9
S1131D10EA0DFB1D421B530B808190E048175907C5
S1131D2008F406C18281882331F0B401CE010E94F7
S1131D30370D8111FDC0E4E0D801EC93EA81FB8109
S1131D4022818C819D81FC01EE0DFF1D2183E2C067
S1131D50D80114962D913C9115971296ED91FC9112
S1131D601397818192818217930708F4D7C0EE817B
S1131D70FF81EA0DFB1D821B930B208130E02817A5
S1131D80390708F0AFC08281882331F0B401CE0155
S1131D900E94370D8111CCC0F8018181882309F498
S1131DA067C08150B6C0A881B981808513968C9391
S1131DB0EC81FD81EE0DFF1D44815581A281B3812B
S1131DC011968D919C91129784179507C0F0AE815E
S1131DD0BF81AA0DBB1D6C91262F30E011967C911A
S1131DE07F5F02C0359527957A95E2F7841B950BA2
S1131DF0621B262F30E02817390708F497C0708239
S1131E00EA81FB8122818C819D81FC01EE0DFF1D05
S1131E10218342C0D80114966D917C911597129636
S1131E20ED91FC911397218132812617370758F4DD
S1131E3011968C911197811102C0CC9277C0815078
S1131E40F801818373C0EE81FF81EA0DFB1D80815F
S1131E50482F50E091819F5F02C0559547959A9510
S1131E60E2F7261B370B841B90E08217930760F47C
S1131E70D8016C92EA81FB8123818C819D81FC01D4
S1131E80EE0DFF1D218352C0F8018181811102C032
S1131E90C0824CC081508183222423943BC0D8014A
S1131EA014962D913C91159712968D919C911397B0
S1131EB0DC0111968D919C9112978217930768F516
S1131EC0281B390BAE81BF81AA0DBB1D8C9190E0FC
S1131ED0058002C0959587950A94E2F799272817FB
S1131EE0390718F4F801C0821AC0D80111968C91F0
S1131EF0119781110CC081E08C938C819D81FC0130
S1131F00EE0DFF1D0280F381E02DC08211C08150CF
S1131F10F8018183DD24D3940BC0D801CC928C8149
S1131F209D81FC01EE0DFF1D118202C02224239429
S1131F30BFEF8B1A9B0AE3E0AE0EB11C53CEE881CF
S1131F40F981808187FF23C040E050E020E030E049
S1131F50EA81FB81808191812817390798F4EC810B
S1131F60FD81E40FF51FA281B3818C9180FD05C032
S1131F709081977F11F081608C932F5F3F4F4A5F70
S1131F805F4FE6CFE881F98180818F778083D1101C
S1131F9007C0E881F98121106FC080818E7F6EC0F7
S1131FA0EA81FB8181858823A1F3E881F98180811D
S1131FB080688083EA81FB818185813051F740E02C
S1131FC050E020E030E096E0D92EEA81FB81608188
S1131FD0718126173707E8F60C811D81FA01EE0F8F
S1131FE0FF1FE00FF11F8081982F977FA1F18538A3
S1131FF011F08330B1F5EE80FF80D701A40FB51F37
S11320001296BC90BB2039F180E090E0C12C861779
S11320109707F8F428173907D1F0D89ED001D99E34
S1132020B00D1124A00FB11FAC91A43011F0A6384B
S113203071F4DC01AA0FBB1FA80FB91FAE0DBF1DA1
S11320401296AC91BA1203C0CB01CC24C39401966E
S1132050DECFC11006C00280F381E02D80818E7F27
S113206005C00280F381E02D8081816080832F5F31
S11320703F4F4D5F5F4FA9CF808181608083809106
S1132080364490913744E881F98121813281A90154
S113209048535F4F4817590738F4821B930BAA24FF
S11320A0A394A3E0BA2E44C08217930710F080E0F3
S11320B004C1821B930B0197893C9105C0F3EFCFB8
S11320C0885C9109E881F9812181328128533F4F4D
S11320D0218332832381211196C02481222311F08C
S11320E021502483E881F9812581222311F0215094
S11320F025838A809B80D40116962C9116972111F2
S11321001BC08A809B80F4012781211148C0EA8189
S1132110FB812381222361F020E030E0A0E0B0E0E5
S1132120EA81FB8140815181A417B50708F46EC090
S1132130893C910528F6BBCF08811981F8012481D7
S11321402111DFCFED90FC9060E070E040E050E0C2
S11321504E155F05F1F0EC81FD81E60FF71F20813C
S1132160233011F0283081F424813581C280D3805A
S1132170D6011196CD90DC9012972C153D0520F4D4
S11321802F5F3F4F248335834F5F5F4F6A5F7F4FDD
S1132190DFCFF4012681D80114962C93B2CF0881A5
S11321A01981D80115962C912111B1CFE080F180CD
S11321B060E070E040E050E04E155F05F1F0EC8126
S11321C0FD81E60FF71F2081233011F0283081F4C0
S11321D024813581C280D380D6011196CD90DC90C4
S11321E01297C216D30620F4215031092483358373
S11321F04F5F5F4F6A5F7F4FDFCFF4012781D801C4
S113220015962C9384CF2150238381CFA901440FA9
S1132210551FEC81FD81E40FF51F6081653809F0DD
S113222047C06181662319F06150618341C0A08277
S11322306C817D81FB01E40FF51F0280F381E02DA9
S1132240B082EE81FF81E20FF31FD280DD2081F1A5
S113225040E050E000E010E0EA81FB8160817181A0
S11322600617170728F5EE81FF81E40FF51F628139
S1132270D61219C0BA01660F771FEC81FD814F0198
S1132280860E971EF401E280F380F701F080F0FEE1
S11322900AC0F401A082EC81FD81E60FF71F0280E1
S11322A0F381E02DB0820F5F1F4F4D5F5F4FD4CF9E
S11322B011962D5F3F4F34CF8BE0DF91CF911F916B
S11322C00F91FF90EF90DF90CF90BF90AF909F90D1
S11322D08F907F906F905F904F903F902F900895D4
S11322E0209168443091694480916444909165449C
S11322F0281B390B80916A4490916B444091664449
S113230050916744841B950BB90137FF04C06627BD
S11323107727621B730BAC0197FF04C04427552732
S1132320481B590B641775072CF0121613063CF062
S113233080E008951816190624F083E0089582E0D9
S1132340089581E008954F925F926F927F928F92E9
S11323509F92AF92BF92CF92DF92EF92FF92C82EDC
S1132360D12CE12CF12C90915E449430B8F0915032
S113237090935E4440915A4450915B4460915C4414
S113238070915D44452F562F672F772740935A4409
S113239050935B4460935C4470935D4440915E440D
S11323A0942F990F990F990F04C0CC0CDD1CEE1CCF
S11323B0FF1C9A95D2F780905A4490905B44A09069
S11323C05C44B0905D44C828D928EA28FB28C09210
S11323D05A44D0925B44E0925C44F0925D44909104
S11323E04D44903F09F440C0E7E0F2E420E030E0DF
S11323F080809180A280B3808C249D24AE24BF244D
S1132400448055806680778084209520A620B7205C
S113241089288A288B2811F55BE0529FF001539F8D
S1132420F00D1124E95FFD4B9085AFE4B4E4019015
S11324300D925A95E1F7903931F490915F449923C4
S113244099F0906908C09F3831F490915F449F5F80
S113245090935F4409C090934D4406C02F5F3F4F53
S11324603B962431310521F6909149449111E7C0FE
S1132470982F907F903509F0C6C0582F5370209143
S11324807D4190913C44222361F091110AC0E09176
S1132490C445F091C545978990933B4410927D4182
S11324A002C091113AC0E52FF0E090917C41292FB0
S11324B030E0B9016F5F7F4F63707727E617F70746
S11324C021F490913A449F5F0AC02150310923704E
S11324D03327E217F30741F490913A4491509093D3
S11324E03A441092394403C0591310923A4460910B
S11324F03A4420913B44621302C091E00CC0062E82
S1132500000C770B332721950CF430956217730771
S113251009F076C09FEF90933C4460913C44613055
S113252019F06F3F09F06CC02FEF3FEF2093C245C5
S11325303093C34590917C41E091C445F091C545E9
S1132540591749F0A52FB0E0262F290F237030E04A
S1132550A217B307C9F420913944613029F43689AC
S11325602317ECF42F5F0DC06689772761950CF46F
S11325707095A22F022E000CBB0B6A177B077CF40C
S11325802150209339440BC010923C4410923A4499
S1132590208D20933B441092C2451092C345268956
S11325A060913944261307C020EF20934D442091B5
S11325B038442F5F10C0062E000C770B332721956B
S11325C00CF4309562177307D9F421EF20934D442E
S11325D02091384421502F7020933844990F990F3B
S11325E091602295207F292B91E030913C44131671
S11325F00CF090E0990F292B20934C44109239440D
S113260050937C411CC0282F2F77203299F41092CC
S11326103C4410923A441092394490914D449E7F28
S1132620903F11F410924D4490EF90937C4110929E
S1132630384405C0903119F491E090937D414F5F87
S113264040935E44FF90EF90DF90CF90BF90AF90A7
S11326509F908F907F906F905F904F90089581E04E
S113266090914E44911101C080E0089510924E441F
S113267010924D44089510925F4410925E4410925B
S11326805A4410925B4410925C4410925D448FEF64
S11326909FEF8093C2459093C34510924A4480E0D3
S11326A008952091C2453091C34537FD06C0280FD7
S11326B0391F2093C2453093C3450895AF92BF920A
S11326C0CF92DF92EF92FF920F931F93CF93DF93FA
S11326D0EC01892B09F4ECC2EA81FB81E093C44547
S11326E0F093C545A481B5812C91A285B38510973B
S11326F011F09C9101C090E021709170392F330F3B
S1132700322B80914044281304C0222331F0A3E0EB
S113271007C0222321F0A1E003C0A0E001C0A2E091
S11327202093404480914144981304C0992331F08C
S113273083E007C0992321F081E003C080E001C059
S113274082E09093414424E0A29FD0011124AD5132
S1132750BD4BA80FB11D8C91333051F49091494475
S1132760911115C091E09093494490934B440BC050
S113277010924B444091C2455091C3454F3F5F4F27
S113278011F41092494490914944992319F1A0817C
S1132790B1812D913C91A90156954795A681B781A8
S11327A02D913C9136952795240F351F209347444E
S11327B030934844A281B3812D913C91A90156954F
S11327C04795A085B1852D913C9136952795240F89
S11327D0351F1BC0313059F4A081B1812D913C913A
S11327E02093474430934844A281B3810CC03230D3
S11327F081F4A681B7812D913C9120934744309375
S11328004844A085B1852D913C9120934544309353
S11328104644813049F008F4EDC1823009F479C0AE
S1132820833009F4A1C0FCC110925E4410925A4452
S113283010925B4410925C4410925D4410924344A5
S11328408BE02FE434E4D9011D928A95E9F71092C4
S1132850424410924D4410924C44E0904744F0900E
S11328604844E0926844F0926944009145441091D0
S1132870464400936A4410936B44258930E0E21681
S1132880F30610F482E101C080E140E051E0421B14
S1132890530B4E155F0508F481600217130708F403
S11328A088604017510708F484600E94A311809344
S11328B0444480915F44882309F451C0809160446A
S11328C090916144E816F90620F09701281B390B12
S11328D003C09C012E193F09809162449091634486
S11328E00817190728F0F801E81BF90BCF0102C0FB
S11328F0801B910BE091C445F091C545448950E09B
S11329004217530718F04817590748F510925F44C7
S113291026C08091474490914844809360449093AA
S113292061448091454490914644809362449093DD
S1132930634410924A4480915844882321F088EAE1
S113294080934D4405C080E20E94A31180934444C7
S11329508BE0EFE4F4E4DF011D928A95E9F710922D
S1132960C2451092C3455CC1992309F466C0A28193
S1132970B3812D913C91A085B1858D919C912817AF
S1132980390728F0A901481B590BCA0102C0821B50
S1132990930BA081B1812D913C91A681B7814D917A
S11329A05C912417350718F0241B350B04C0BA01B9
S11329B0621B730B9B0140914B44423060F41092B4
S11329C03F44280F391F20933D4430933E4482E016
S11329D080934B4429C0423039F5280F391F818D2B
S11329E090E040913D4450913E44BC01640F751FFA
S11329F06217730738F0820F931F8417950708F442
S1132A0059C112C091E080913F44890F80933F44A3
S1132A1020933D4430933E44913009F04DC191ECF4
S1132A2090934D4480934C4480914D44882329F0E5
S1132A3080EC0E94A31180934444E091C445F0913A
S1132A40C5452091C2453091C345858590E028173E
S1132A5039077CF08091424481110BC010914A44A3
S1132A6010FD07C080E80E94A311809344441160C4
S1132A700FC0878590E0281739076CF010914A44FD
S1132A8011FD09C080EA0E94A3118093444412609E
S1132A9010934A441AC0868590E028173907ACF091
S1132AA080914244811111C080914A44833069F479
S1132AB080E90E94A3118093444410924A448FEF0A
S1132AC09FEF8093C2459093C345A0904744B09034
S1132AD04844A0926444B0926544C0904544D09068
S1132AE04644C0926644D0926744E0906844F090B3
S1132AF06944AE14BF0428F0C5018E199F097C01F6
S1132B0002C0EA18FB0800916A4410916B44C01695
S1132B10D10628F0D601A01BB10B8D0102C00C19FF
S1132B201D09E091C445F091C545838990E08E1557
S1132B309F0518F08017910770F480914244811129
S1132B400AC00E94701180630E94A31180934444C0
S1132B5081E08093424480914244882309F460C018
S1132B60E091C445F091C545878590E02091C24528
S1132B703091C345281739070CF052C0808990E082
S1132B808E159F0530F0818990E08017910708F039
S1132B9047C00E947011803FD1F0909143448065FA
S1132BA0992361F020914444821308C020915E442B
S1132BB0215020935E449150909343440E94A3116A
S1132BC080934444809143448F5F80934344809135
S1132BD0C2459091C345019621F01092C2451092CE
S1132BE0C345A0926844B0926944C0926A44D092AA
S1132BF06B4416C0858590E02091C2453091C34551
S1132C00821793076CF480E80E94A31180934444D4
S1132C1010925F448FEF9FEF8093C2459093C3451A
S1132C2080915944813021F48091574480934D44DC
S1132C3080914D44982F9E7F10914C44903F31F4E5
S1132C4010FF06C091E090934E4402C08111FACF68
S1132C50909149449923E1F090914E449923C1F015
S1132C609FEF980F933410F48C5F09C0982F907FD6
S1132C70903911F4805F03C0803D19F484ED809392
S1132C804D4480914D44807C803C11F01092494425
S1132C90E880F9800E942F13F7018083E881F9818D
S1132CA080914D448183E881F981128380E006C0DC
S1132CB08BE004C09FEFA7CE90ECB2CEDF91CF9112
S1132CC01F910F91FF90EF90DF90CF90BF90AF9046
S1132CD008959C016115710509F14F5F37FD06C028
S1132CE0442321F04150220F331FF8CF77FD04C055
S1132CF04F5F660F771FFACF80E090E0442381F0A6
S1132D0097FD0CC0880F991F41502617370718F0FC
S1132D10261B370B019676956795F0CF8FEF9FEFC3
S1132D20089526E0829FC0011124FC01E359FB4B66
S1132D3022813381208331835481458152834383AB
S1132D4064837583852F942F68177907D9F08217C8
S1132D509307C1F062177307A1F08617970740F431
S1132D602817390778F0CB012617370758F407C01E
S1132D708217930738F0CB016217730718F4C9015F
S1132D800895CB01089526E0269FF001279FF00DBA
S1132D901124E80FF91FA281B38111968D919C91A2
S1132DA0129724813581821B930B08959F92AF92D1
S1132DB0BF92CF92DF92EF92FF920F931F93CF9324
S1132DC0DF935C016B01942E7901B9010E94C31653
S1132DD01816190614F4EC0102C0C0E0D0E0CE14B9
S1132DE0DF0458F4B70161507109C5010E94C3168C
S1132DF01816190614F48C0102C000E010E0C90C86
S1132E00D11C81E0C81AD108EC14FD0448F4B701C0
S1132E106F5F7F4FC5010E94C3161816190614F080
S1132E2080E090E08017910708F4C8018C0F9D1F83
S1132E30DF91CF911F910F91FF90EF90DF90CF9092
S1132E40BF90AF909F9008952F923F924F925F92C0
S1132E506F927F928F929F92AF92BF92CF92DF92A6
S1132E60EF92FF920F931F93CF93DF93CDB7DEB70B
S1132E702597CDBFDEBF2B014A838901FC01C384A2
S1132E80D484F681F983F295FF70FB83B901C601FE
S1132E900E94C3168C839D8397FF02C01C821D82EF
S1132EA00415150549F0B80161507109C6010E9465
S1132EB0C3167C0197FF02C0E12CF12C2A81222E3B
S1132EC0312CC201820D931D01974801A12CB12C14
S1132ED0612C712C0817190709F47DC0B8016F5FC4
S1132EE07F4FC6010E94C31684189508A608B70828
S1132EF05CE0880C991CAA1CBB1C5A95D1F797FF5F
S1132F0002C080E090E0E816F90690F04C815D8103
S1132F10481B590B4C835D83BA01681B790B6E0DFA
S1132F207F1D4CE08C819D810E94691690510BC0DD
S1132F308E199F096C817D816E197F09680F791F35
S1132F404CE00E946916A5019401280F391F411D08
S1132F50511DDA01C9013A81333040F0B1016150A9
S1132F60710940E00E946916A0E0B0E0813040E1C0
S1132F709407A105B10520F080E090E1A0E0B0E065
S1132F8029812F70E9F058E2259F90011124A901AD
S1132F9060E070E084179507A607B70718F0821B56
S1132FA0930B03C080E090E0DC01220F331F60E04C
S1132FB070E1621B730B4CE00E946916A0E0B0E064
S1132FC08115E0E19E07A105B10598F08FEF9FE020
S1132FD0A0E0B0E00EC084189508A608B7088CE0FD
S1132FE0880C991CAA1CBB1C8A95D1F780E090E040
S1132FF08DCF2CE030E0FB812F1B310904C0B69546
S1133000A795979587952A95D2F72596CDBFDEBFCC
S1133010DF91CF911F910F91FF90EF90DF90CF90B0
S1133020BF90AF909F908F907F906F905F904F90E4
S11330303F902F9008952F923F924F925F926F92FC
S11330407F928F929F92AF92BF92CF92DF92EF9234
S1133050FF920F931F93CF93DF93CDB7DEB72897DB
S1133060CDBFDEBF009709F400C1DC0112960D91BB
S11330701C911397F8012681203D08F0F4C02D918E
S11330803C912F833887232B09F4EFC001151105D8
S113309009F4EBC0438454844114510409F4E5C099
S11330A032813B83C080D180C60120E0A601430F5A
S11330B0511D49835A8336E049815A818417950703
S11330C080F4389FF001399FF00D1124E40DF51DB3
S11330D06081653811F0AC0101C021E0CA0101969C
S11330E0EBCF222339F04601AA24AA94BA2CE12C6E
S11330F0F12C34C0D80115963C91159713968D91F7
S11331009C911497AC01430F511D36E0BA0184170A
S1133110950780F4389FF001399FF00D1124E40DD8
S1133120F51DE081E53811F0BC0101C021E0CB01BF
S11331300196ECCF2111D7CFEF81F885808180FDF6
S1133140D2CF1186128693C0B401C2010E94C31665
S1133150181619064CF0FFEF8F1A9F0A29813A813D
S11331608216930688F306C0E816F906A4F75401FC
S11331707C01F1CFD8011596BC91BC83F801638022
S11331807480130188248A94982CE12CF12C9301E7
S11331902B0F311D2D833E836D817E8126163706CC
S11331A080F4B101C2010E94C316181619062CF44A
S11331B0E816F90614F441017C015FEF251A350A7B
S11331C0EBCF7FEF8716970621F08FEFA816B8068E
S11331D039F4AF81B88519961D921C921A9747C08D
S11331E0AC14BD0468F0E981FA81AE16BF0640F460
S11331F095014B81B601C2010E94D6167C0102C022
S1133200E12CF12C8614970470F02D813E818216F6
S1133210930648F494014C81B301C2010E94D6166E
S11332208E0D9F1D02C080E090E0AF81B8852C9187
S1133230322F317020FF0AC0009741F01996ED90AB
S1133240FC901A978E0D9F1D96958795EF81F885B2
S113325081879287D80119964D915C911A978417AA
S1133260950728F00AC082E059C18BE057C180E07D
S1133270EF81F885808380E051C1311104C081E081
S113328080936C4402C010926C44F80142813580F2
S113329080916C4481117BC080858370282EB1F4A9
S11332A09501B601C8010E942417AF81B885119613
S11332B08D939C9312979401432DB301C8010E94EE
S11332C02417EF81F8858583968399C0AF81B885EB
S11332D01196ED90FC90129715964D905C90169770
S11332E09501B601C8010E9424176C019401432D75
S11332F0B301C8010E942417A7014C0D5D1D920162
S1133300280F391FB1E02B1207C0B601660F771FD3
S1133310460F571FBC010EC0E2E02E1205C0440F39
S1133320551F220F331F0AC0B701660F771F460FC0
S1133330571FB201660F771F260F371FEC14FD04C9
S113334018F44E5F5F4F05C0CE14DF0410F44150F3
S113335051094816590618F42E5F3F4F05C08415CD
S1133360950510F421503109569547955695479582
S1133370AF81B88511964D935C9312973695279536
S11333803695279515962D933C93169738C095013D
S1133390B601C8010E9424177C01EF81F88581835E
S11333A092839401432DB301C8010E942417AF8175
S11333B0B88515968D939C9316971396ED92FC926F
S11333C0149717968D939C931897E0926D44F092FE
S11333D06E44E0926F44F0927044E0927144F09233
S11333E0724480937344909374448093754490938F
S11333F07644809377449093784481E839CFD80118
S113340018968C91EF81F88561817281F82FF071A3
S1133410EF2E84FD02C0FB0104C080E00E949116DF
S1133420FC01AF81B88513962D913C9114979C9122
S1133430E217F307B0F493FD0BC02E1B3F0BD8012A
S113344017964C9150E04217530710F0947016C031
S1133450AF81B8851396ED93FC9314979BE8F92EEE
S113346018C092FD0EC0AF01421B530BD801179632
S11334702C9130E02417350720F098709168F92ECC
S113348008C0AF81B8851396ED93FC93149787E831
S1133490F82EEF81F88565817681E11002C0FB0189
S11334A004C081E00E949116FC01AF81B885179693
S11334B02D913C9118979C91E217F307B0F495FD78
S11334C00BC02E1B3F0BD80117964C9150E04217AE
S11334D0530710F0907116C0AF81B8851796ED931D
S11334E0FC9318978F2D8262C3CE94FD0EC0AF015A
S11334F0421B530BD80117962C9130E02417350743
S113350020F09072892F8F29B3CEAF81B88517969A
S1133510ED93FC9318978F2D8261AACE2896CDBF88
S1133520DEBFDF91CF911F910F91FF90EF90DF905D
S1133530CF90BF90AF909F908F907F906F905F904F
S11335404F903F902F900895009791F0DC01ED91FA
S1133550FC91309769F010821182128213821482D6
S113356015821682178210861186128680E00895CD
S11335708BE00895A091C645B091C74525E0AC0104
S1133580249FC001259F900D11241496ED91FC9168
S11335901597E80FF91F818192818617970781F1AA
S11335A08617970718F4681B790B04C09C01261B27
S11335B0370BB901ED91FC918281803411F4769539
S11335C0679565387105D0F466307105C8F0E381FC
S11335D0E073F0E083E0F695E7958A95E1F7ED5026
S11335E0FD4B80819181689F9001699F300D789F88
S11335F0300D112481E0232B21F402C081E00895D1
S113360080E0089580917E4490917F44A091C645C6
S1133610B091C745ED91FC9111974081518125E00E
S1133620289FB001299F700D112420E030E08417F9
S11336309507A8F41496ED91FC911597E20FF31FEA
S1133640E60FF71FE0812B5F3F4FE0FD02C00196BC
S1133650EECF80937E4490937F4480E0089510924F
S11336607E4410927F4481E00895AF92BF92CF923E
S1133670DF92EF92FF920F931F93CF93DF937C011E
S1133680E091C645F091C74584E18E9DE0018F9D90
S1133690D00D1124A281B381AC0FBD1F18962C91BB
S11336A0189719963C9119971A964C911A971B964C
S11336B05C911B971C966C911C971D967C911D9791
S11336C01E968C911E971F969C912093F00708E0FC
S11336D00E9498212093F1070E9498212093F207D9
S11336E00E9498212093F3070E9498212093F407C5
S11336F00E9498212093F5071092E007A081B181E0
S113370012968C91803809F44FC0A281B381AC0F1A
S1133710BD1FCC9011963C91119712964C91129723
S113372013965C91139714966C91149715967C914B
S1133730159716968C91169717969C91C092E80748
S11337402C2D0E949821D22E2093E9070E949821C3
S1133750122F2093EA070E949821A22E2093EB07B0
S11337600E949821B22E2093EC070E949821209366
S1133770ED0780819181DC0112968C91813821F4CE
S113378081E08093E00710C0823871F41092E00762
S1133790C092F807D092F9071093FA07A092FB079A
S11337A0B092FC072093FD0745E04E9DC0014F9D5C
S11337B0900D1124A481B581A80FB91F13962D91E2
S11337C03C91149733702093E4073093E507A48168
S11337D0B581A80FB91F2C9121FD4C93248135810B
S11337E0D901A80FB91F8C918C7169F4A281B3819E
S11337F0AC0FBD1F5296AC91A295AF70B0E0A5502E
S1133800BD4B8C9101C08FE18093E607A281B38107
S1133810AC0FBD1F50968C918B3710F48C5F01C098
S11338208FE78093C407A281B381AC0FBD1F539669
S11338308C918093C707A281B381AC0FBD1F5196B1
S11338408C9182958F708093C90782819381C80F70
S1133850D91F89898F7080688093C20781E880931B
S1133860C00781E08093D007DF91CF911F910F9122
S1133870FF90EF90DF90CF90BF90AF9008952F927C
S11338803F924F925F926F927F928F929F92AF92EC
S1133890BF92CF92DF92EF92FF920F931F93CF9339
S11338A0DF93CDB7DEB72597CDBFDEBF80917D44D2
S11338B0882309F424C20091C6451091C74520917C
S11338C0C8453091C9452A833B83C12CD12CA12CF6
S11338D0B12C212C312C198244244A94552453941C
S11338E077247394D8018D909C90F4018081918108
S11338F02816390608F0FFC1AA81BB814D915D915C
S1133900AA83BB83F801E480F580EA0CFB1CD70191
S11339102C91822F8C7190E096958795969587953A
S11339208230910509F481C128F4009759F0019778
S113393001F1D7C18330910509F43AC1049709F420
S1133940C2C0CFC10280F381E02DEC0DFD1D928930
S11339509F708389981710F4891B01C080E09A0135
S113396002C0369527958A95E2F7F70121833283C1
S1133970B8C182819381FC01EC0DFD1DBA0103885D
S113398002C0769567950A94E2F76C837D83D7012C
S113399011966D937C93129713968D919C91149725
S11339A06115B2E07B0728F0DB01AF5FB14031E085
S11339B006C0D2014C815D81A41BB50B30E0BD0172
S11339C076956795D40112964C91403409F03725C9
S11339D06A30710508F047C026FD39C027FD39C09B
S11339E0D40113962C912370233059F4BFE7B08B84
S11339F0D8011496ED91FC911597EA0DFB1DB1E1E8
S1133A0024C0223061F42189207F218BD8011496AF
S1133A10ED91FC911597EA0DFB1DB9E016C021301C
S1133A20B1F421892F70218BD8011296ED91FC916C
S1133A301397EC0DFD1D21892067218B1496ED91C0
S1133A40FC911597EA0DFB1DBDE0B08302C0F701A0
S1133A507082D8011496ED91FC911597EA0DFB1D27
S1133A60838394833EC18F3FB3E09B0711F000979B
S1133A7031F421E8F70120833EE0398332C1332356
S1133A8011F09C0110C09C012F3F43E03407A8F4BF
S1133A902F5F3F4F6150710961307105A9F70DC067
S1133AA02115310551F021503109A901481B590B49
S1133AB0460F571F4130510599F7D70113962D939F
S1133AC03C9314970EC1F801828093808C0C9D1C4A
S1133AD0FA01D40153960C90539702C0F695E795DA
S1133AE00A94E2F7EC83FD8350966C90FFE76F1223
S1133AF00FC0EC81FD81D7011196ED93FC931297D1
S1133B00D40150968C9150978F7B50968C9342C0E1
S1133B10F12C262D30E0C9010F2C02C09695879513
S1133B200A94E2F780FF03C08F2DF12C01C087E0D7
S1133B308F5F873010F4F82EEECF6C817D81C10148
S1133B400E94BA1A882351F081E090E00F2C01C042
S1133B50880F0A94EAF78629F401808BD801FF20A4
S1133B6091F01296ED91FC911397EC0DFD1DFA94D2
S1133B7081E090E001C0880FFA94EAF7809590897B
S1133B808923808B07C01496ED91FC911597EA0D5B
S1133B90FB1D7082D8011496ED91FC911597EA0DE6
S1133BA0FB1D8081813009F09CC02C813D8183C044
S1133BB00280F381E02DEC0DFD1D9A01038802C003
S1133BC0369527950A94E2F72C833D839188929445
S1133BD02FE0922237E0931691F06C817D81C10130
S1133BE00E94BA1A811104C09394D7017C9209C02F
S1133BF0911003C0F701708204C09A9402C096E049
S1133C00992ED8011296ED91FC911397EC0DFD1DA0
S1133C1081898F70818B1296ED91FC911397EC0D35
S1133C20FD1D929480EF982236C00280F381E02D2E
S1133C30EC0DFD1D9A01038802C0369527950A9460
S1133C40E2F72C833D8381898F70982E91F0B9011E
S1133C50C1010E94BA1A811104C09A94D7017C92BE
S1133C600AC0B7E09B1203C0F701708204C09394AA
S1133C7002C099249394D8011296ED91FC91139764
S1133C80EC0DFD1D8189807F818B1296ED91FC9155
S1133C901397EC0DFD1D8189982A918A1496ED9154
S1133CA0FC911597EA0DFB1D2C813D812183328304
S1133CB080818130B1F4211542E0340728F02F5F70
S1133CC031402C833D8307C0B2018C819D81681BE8
S1133CD0790B6C837D83AC81BD811B9710F0B5E4B7
S1133CE0B083EFEF2E1A3E0AF5E0AF0EB11C24E1CB
S1133CF0C20ED11CF7CD82E080937D4402C0F3E074
S1133D00F98389812596CDBFDEBFDF91CF911F91C5
S1133D100F91FF90EF90DF90CF90BF90AF909F9066
S1133D208F907F906F905F904F903F902F90089569
S1133D305F926F927F928F929F92AF92BF92CF9237
S1133D40DF92EF92FF920F931F93CF93DF9300972D
S1133D5009F492C0DC01ED91FC916081718140E035
S1133D6050E020E030E0B0E010E0F12CE12C912CA8
S1133D70812C712C612C2617370751F1EC01EA8153
S1133D80FB81E40FF51FA080A085AA2AB180A1853C
S1133D90BA2AC280A285CA2AD380A385DA2AD4810A
S1133DA0A485DA2BC581A585CA2B5680A685A529AD
S1133DB05780E785E529BA291B29FC28ED289D2A87
S1133DC08C2A7A2A6E2A2F5F3F4F4C5E5F4FD3CFE7
S1133DD02B2F312F4F2D5E2D692D782D872D962D6C
S1133DE0A0E00E94B42109F449C081E080937D449D
S1133DF02EE0C22E23E4D22EC0E0D0E0AA24A39465
S1133E00B12C4CE0542E2B2F312F4F2D5E2D692DCC
S1133E10782D872D962D0C2F0E949821217030E04B
S1133E2040E050E060E070E080E090E0A0E00E94BC
S1133E30B421C9F0F6018081E82FE295E695E77098
S1133E40F0E0EE0FFF1FE050FD4B0190F081E02DFC
S1133E508F71950102C0220F331F8A95E2F72283E6
S1133E6026835386258721963FEFC31AD30AC0338E
S1133E70D10549F680E003C08BE001C082E0DF9108
S1133E80CF911F910F91FF90EF90DF90CF90BF9053
S1133E90AF909F908F907F906F905F900895009760
S1133EA031F08093C8459093C94580E008958BE034
S1133EB008956115710561F1009751F120917D44D8
S1133EC0222341F1243041F18093C6459093C745A4
S1133ED060937B4470937C44DC01ED91FC912281DE
S1133EE0203419F41092C10707C0203811F021388A
S1133EF031F421E02093C1071092CB0711C022387E
S1133F0069F421E02093C10729E02093CB0708C07E
S1133F108BE0089583E0089581E0089582E0089598
S1133F201092C007DC01ED91FC9184819281903460
S1133F3051F41092C507803110F4806201C08FE201
S1133F408093C30708C090E29093C3078F3008F0B2
S1133F508FE08093C50781E08093D3078093D207D5
S1133F6080937E4110927E4410927F440E94021BF3
S1133F7081110BC084E080937D4480917E449091B4
S1133F807F440E94351B80E0089582E080937D4445
S1133F9008950097C9F0DC01ED91FC9111972081FF
S1133FA031812617370790F045E0469F9001479FDF
S1133FB0300D11241496ED91FC911597E20FF31F27
S1133FC081E0808380E008958BE0089582E0089585
S1133FD0FC01892BD1F1A081B1818D919C91119724
S1133FE086179707A0F112969C910480F581E02D25
S1133FF0903459F485E0869FD001879FB00D112439
S1134000AE0FBF1F80EA90E00DC09058923080F44C
S113401085E0869FD001879FB00D1124AE0FBF1F8E
S113402080EF90E013968D939C93149780E001C0E9
S113403082E095E0969F9001979F300D1124E20F46
S1134040F31F90819260908308958BE0089582E03D
S11340500895EF92FF921F93CF93DF93009709F493
S113406077C0DC01ED91FC911197309709F470C091
S11340706115710509F46CC00190F081E02D129670
S11340804D915C911397208131814217530708F0B9
S113409061C0FC011092C0076093794470937A4424
S11340A012E010937E418281938180937E449093A9
S11340B07F44C081D181C093C645D093C74545E0B4
S11340C0489F9001499F300D1124AC81BD81A20FFE
S11340D0B31F11962D913C911297648170E0D90120
S11340E0A60FB71F7901E61AF70A24E1289FB00149
S11340F0299F700D1124EA81FB81E60FF71F528975
S11341005F703389351BAD01032E02C0440F551F68
S11341100A94E2F7B70102C0660F771F3A95E2F7F7
S11341209B014093DE075093DF076093DC073093D5
S1134130DD0724E02093C80723E02093D3071093DE
S1134140D20721E02093D1070E94351B80E003C0F1
S11341508BE001C082E0DF91CF911F91FF90EF903F
S1134160089580917E41823049F481E080937E41BC
S11341701092C0071092D10780E0089583E008955B
S11341802091DA073091DB0760917E4470917F447F
S1134190CB01880F991FE091C845F091C945E80FFC
S11341A0F91F20833183A091C645B091C74544E1EE
S11341B0469FC001479F900D11241296ED91FC91EA
S11341C01397E80FF91F92899F708389981710F449
S11341D0891B01C080E095E0969FA001979F500D38
S11341E011241496ED91FC911597E40FF51F02C06C
S11341F0369527958A95E2F72183328382E080936E
S11342007D44E0917944F0917A4409941092C00776
S113421080917E41813009F04EC04091DA0750917F
S1134220DB0780917E4490917F449C01220F331FD1
S1134230E091C845F091C945E20FF31F40835183D3
S1134240019680937E4490937F440E94021B8111C7
S113425009C084E080937D4480917E4490917F44A2
S11342600C94351B1092E8071092E9071092EA07A4
S11342701092EB071092EC071092ED071092F007E2
S11342801092F1071092F2071092F3071092F407BC
S11342901092F5071092F8071092F9071092FA0796
S11342A01092FB071092FC071092FD07E0917B44EB
S11342B0F0917C4409940C94C020052E97FB1EF4C5
S11342C000940E94742157FD07D00E94C02107FC6E
S11342D003D04EF40C94742150954095309521955B
S11342E03F4F4F4F5F4F089590958095709561951E
S11342F07F4F8F4F9F4F0895A29FB001B39FC0017E
S1134300A39F700D811D1124911DB29F700D811DFD
S11343101124911D08950E947C21A59F900DB49FA6
S1134320900DA49F800D911D1124089597FB10F802
S1134330169400080F93083098F00850232F342F58
S1134340452F562F672F782F892F902DF4CF059462
S113435097958795779567955795479537952795B9
S11343600A95AAF70F9108950024A7FD00942A172F
S113437030054005500560057005800590050895D9
S1134380A1E21A2EAA1BBB1BFD010DC0AA1FBB1F55
S1134390EE1FFF1FA217B307E407F50720F0A21BC7
S11343A0B30BE40BF50B661F771F881F991F1A9434
S11343B069F760957095809590959B01AC01BD015E
S11343C0CF0108958F929F92AF92BF92CF92DF92C6
S11343D0EF92FF92CF93DF93EC01688179818A8118
S11343E09B81611571058105910521F464E279EDE4
S11343F08BE597E02DE133EF41E050E00E945D2131
S113440049015A019B01AC01A7EAB1E40E948B2146
S11344106B017C01ACEEB4EFA50194010E948722EC
S1134420DC01CB018C0D9D1DAE1DBF1DB7FF03C06C
S11344300197A109B04888839983AA83BB83BC01EF
S1134440CD019F77DF91CF91FF90EF90DF90CF90D8
S1134450BF90AF909F908F9008958F929F92AF924C
S1134460BF92CF92DF92EF92FF92609100407091E1
S113447001408091024090910340611571058105CE
S1134480910521F464E279ED8BE597E02DE133EFBA
S113449041E050E00E945D2149015A019B01AC01B9
S11344A0A7EAB1E40E948B216B017C01ACEEB4EF6E
S11344B0A50194010E948722DC01CB018C0D9D1D76
S11344C0AE1DBF1DB7FF03C00197A109B04880937B
S11344D0004090930140A0930240B0930340BC017C
S11344E0CD019F77FF90EF90DF90CF90BF90AF907A
S11344F09F908F9008956093004070930140809343
S11345000240909303400895B7FF0C948B210E94BE
S10F45108B21821B930B0895F894FFCFBD
S113451C0100000001000200030004000500060075
S113452C070008000C0002000030000301001464B2
S113453C461E1E00143200010202009604044014AC
S113454C140A000A00070189453B403C45404539A3
S113455C45000000000000071464461E1E001432BF
S113456C00010202003945594004000400000470A3
S113457C03132D008C45444589408C456E4028011D
S113458C0128010128010128010128010128010148
S113459C280101280101280100090002000500146A
S11345AC05140199400800FF0553419F404A4540BA
S11345BC0023000000000000004000000000000484
S11345CC050204400023000000000020000000004D
S11345DC0000000405020440002300000000000059
S11345EC00800000000000040502044000230000C9
S11345FC000000100000000000000004050204305C
S113460C00C00000000000000020000000000004B6
S113461C0502043000C0000000000000000100008E
S113462C000000040502043000C00000000000403B
S113463C00000000000000040502043000C000006B
S113464C0000000000020000000000040502044009
S113465C002300000000003000C000000000000037
S113466C05030409004030013D0A450A570AA00B12
S113467C160BD60B540A620A510A730B650A6C0AA0
S113468C060B730A2D0A800BE40A7A0AF001010165
S113469C0002000300040005000600070008000CDB
S11346AC0001FF02FF03FF04FF05FF06FF07FF08DD
S11346BCFF0C0000000000000000000000000000DF
S11346CC00000000000000000000000000000000DA
S11346DC00000000000000000000000000000000CA
S11346EC00000000000000000000000000000000BA
S11346FC00000000000000000000000000000000AA
S113470C0000000000000000000000000000000099
S113471C0000000000000010200000F0FFFFFF8FDD
S113472C000010208000F0FFFFFF900000102020FC
S113473C80F0FFFFFF9000001080A090F0FFFFFFBF
S113474CD0010012305020F2FFFFFF110000123094
S113475C50A0F2FFFFFF13010110305020F0FFFFB7
S113476CFF100000103050A0F0FFFFFF12010111E8
S113477C325220F1FFFFFF210000113252A0F1FF51
S113478CFFFF23010110325220F0FFFFFF20000035
S113479C103252A0F0FFFFFF22010118335320F80E
S11347ACFFFFFF310000183353A0F8FFFFFF330164
S11347BC0110335320F0FFFFFF300000103353A0DF
S11347CCF0FFFFFF32010114315120F4FFFFFF41D0
S11347DC0000143151A0F4FFFFFF430101103151CB
S11347EC20F0FFFFFF400000103151A0F0FFFFFF4D
S11347FC4201010001020301010101020102020351
S113480C01020307001300350090001F0F0703017A
S113481C00042004400460048004A004C0040001CB
S113482C0203040506072021222324252627606180
S113483C6263646566678081828384858687A0A1B0
S111484CA2A3A4A5A6A7C0C1C2C3C4C5C6C763
S9030000FC
